{
  "_format": "hh-sol-artifact-1",
  "contractName": "Certification",
  "sourceName": "contracts/Certification.sol",
  "abi": [
    {
      "inputs": [],
      "stateMutability": "nonpayable",
      "type": "constructor"
    },
    {
      "anonymous": false,
      "inputs": [
        {
          "indexed": false,
          "internalType": "string",
          "name": "certificate_id",
          "type": "string"
        }
      ],
      "name": "certificateGenerated",
      "type": "event"
    },
    {
      "inputs": [
        {
          "internalType": "address",
          "name": "_organization",
          "type": "address"
        }
      ],
      "name": "addOrganization",
      "outputs": [],
      "stateMutability": "nonpayable",
      "type": "function"
    },
    {
      "inputs": [
        {
          "internalType": "string",
          "name": "",
          "type": "string"
        }
      ],
      "name": "certificates",
      "outputs": [
        {
          "internalType": "string",
          "name": "certificate_id",
          "type": "string"
        },
        {
          "internalType": "string",
          "name": "candidate_name",
          "type": "string"
        },
        {
          "internalType": "string",
          "name": "certification_name",
          "type": "string"
        },
        {
          "internalType": "string",
          "name": "org_name",
          "type": "string"
        },
        {
          "internalType": "uint256",
          "name": "emission_date",
          "type": "uint256"
        },
        {
          "internalType": "string",
          "name": "ipfs_hash",
          "type": "string"
        }
      ],
      "stateMutability": "view",
      "type": "function"
    },
    {
      "inputs": [
        {
          "internalType": "string",
          "name": "_certificate_id",
          "type": "string"
        },
        {
          "internalType": "string",
          "name": "_candidate_name",
          "type": "string"
        },
        {
          "internalType": "string",
          "name": "_certification_name",
          "type": "string"
        },
        {
          "internalType": "string",
          "name": "_org_name",
          "type": "string"
        },
        {
          "internalType": "uint256",
          "name": "_emission_date",
          "type": "uint256"
        },
        {
          "internalType": "string",
          "name": "_ipfs_hash",
          "type": "string"
        }
      ],
      "name": "generateCertificate",
      "outputs": [],
      "stateMutability": "nonpayable",
      "type": "function"
    },
    {
      "inputs": [
        {
          "internalType": "string",
          "name": "_certificate_id",
          "type": "string"
        }
      ],
      "name": "getCertificate",
      "outputs": [
        {
          "internalType": "string",
          "name": "certificate_id",
          "type": "string"
        },
        {
          "internalType": "string",
          "name": "_candidate_name",
          "type": "string"
        },
        {
          "internalType": "string",
          "name": "_certification_name",
          "type": "string"
        },
        {
          "internalType": "string",
          "name": "_org_name",
          "type": "string"
        },
        {
          "internalType": "uint256",
          "name": "_emission_date",
          "type": "uint256"
        },
        {
          "internalType": "string",
          "name": "_ipfs_hash",
          "type": "string"
        }
      ],
      "stateMutability": "view",
      "type": "function"
    },
    {
      "inputs": [
        {
          "internalType": "string",
          "name": "_certificate_id",
          "type": "string"
        }
      ],
      "name": "isVerified",
      "outputs": [
        {
          "internalType": "bool",
          "name": "",
          "type": "bool"
        }
      ],
      "stateMutability": "view",
      "type": "function"
    },
    {
      "inputs": [
        {
          "internalType": "address",
          "name": "",
          "type": "address"
        }
      ],
      "name": "organizations",
      "outputs": [
        {
          "internalType": "bool",
          "name": "",
          "type": "bool"
        }
      ],
      "stateMutability": "view",
      "type": "function"
    },
    {
      "inputs": [],
      "name": "owner",
      "outputs": [
        {
          "internalType": "address",
          "name": "",
          "type": "address"
        }
      ],
      "stateMutability": "view",
      "type": "function"
    },
    {
      "inputs": [
        {
          "internalType": "address",
          "name": "_organization",
          "type": "address"
        }
      ],
      "name": "removeOrganization",
      "outputs": [],
      "stateMutability": "nonpayable",
      "type": "function"
    }
  ],
  "bytecode": "0x6080604052348015600f57600080fd5b50336000806101000a81548173ffffffffffffffffffffffffffffffffffffffff021916908373ffffffffffffffffffffffffffffffffffffffff160217905550611c988061005f6000396000f3fe608060405234801561001057600080fd5b50600436106100885760003560e01c80638da5cb5b1161005b5780638da5cb5b146101255780638f2b91ea14610143578063d68287df14610178578063ed0f2e751461019457610088565b8063234c76d51461008d5780635a1f7406146100bd5780636ff2c610146100ed57806377f073ab14610109575b600080fd5b6100a760048036038101906100a29190610fcc565b6101c9565b6040516100b49190611030565b60405180910390f35b6100d760048036038101906100d291906110a9565b610203565b6040516100e49190611030565b60405180910390f35b610107600480360381019061010291906110a9565b610223565b005b610123600480360381019061011e919061110c565b61030c565b005b61012d6106b1565b60405161013a9190611234565b60405180910390f35b61015d60048036038101906101589190610fcc565b6106d5565b60405161016f969594939291906112dd565b60405180910390f35b610192600480360381019061018d91906110a9565b6109cf565b005b6101ae60048036038101906101a99190610fcc565b610ab7565b6040516101c0969594939291906112dd565b60405180910390f35b6000806002836040516101dc919061139d565b908152602001604051809103902060050180546101f8906113e3565b905014159050919050565b60016020528060005260406000206000915054906101000a900460ff1681565b60008054906101000a900473ffffffffffffffffffffffffffffffffffffffff1673ffffffffffffffffffffffffffffffffffffffff163373ffffffffffffffffffffffffffffffffffffffff16146102b1576040517f08c379a00000000000000000000000000000000000000000000000000000000081526004016102a890611486565b60405180910390fd5b6000600160008373ffffffffffffffffffffffffffffffffffffffff1673ffffffffffffffffffffffffffffffffffffffff16815260200190815260200160002060006101000a81548160ff02191690831515021790555050565b60011515600160003373ffffffffffffffffffffffffffffffffffffffff1673ffffffffffffffffffffffffffffffffffffffff16815260200190815260200160002060009054906101000a900460ff1615151461039f576040517f08c379a000000000000000000000000000000000000000000000000000000000815260040161039690611518565b60405180910390fd5b60008651116103e3576040517f08c379a00000000000000000000000000000000000000000000000000000000081526004016103da90611584565b60405180910390fd5b6000855111610427576040517f08c379a000000000000000000000000000000000000000000000000000000000815260040161041e906115f0565b60405180910390fd5b600084511161046b576040517f08c379a000000000000000000000000000000000000000000000000000000000815260040161046290611682565b60405180910390fd5b60008351116104af576040517f08c379a00000000000000000000000000000000000000000000000000000000081526004016104a690611714565b60405180910390fd5b600082116104f2576040517f08c379a00000000000000000000000000000000000000000000000000000000081526004016104e990611780565b60405180910390fd5b6000815111610536576040517f08c379a000000000000000000000000000000000000000000000000000000000815260040161052d906117ec565b60405180910390fd5b6000600287604051610548919061139d565b90815260200160405180910390206005018054610564906113e3565b9050146105a6576040517f08c379a000000000000000000000000000000000000000000000000000000000815260040161059d9061187e565b60405180910390fd5b60006040518060c00160405280888152602001878152602001868152602001858152602001848152602001838152509050806002886040516105e8919061139d565b9081526020016040518091039020600082015181600001908161060b9190611a4a565b5060208201518160010190816106219190611a4a565b5060408201518160020190816106379190611a4a565b50606082015181600301908161064d9190611a4a565b506080820151816004015560a082015181600501908161066d9190611a4a565b509050507f267fae70dc2912ede5096795f49d41fac472461a02e4f8703eceee0e785bbd1d876040516106a09190611b1c565b60405180910390a150505050505050565b60008054906101000a900473ffffffffffffffffffffffffffffffffffffffff1681565b60028180516020810182018051848252602083016020850120818352809550505050505060009150905080600001805461070e906113e3565b80601f016020809104026020016040519081016040528092919081815260200182805461073a906113e3565b80156107875780601f1061075c57610100808354040283529160200191610787565b820191906000526020600020905b81548152906001019060200180831161076a57829003601f168201915b50505050509080600101805461079c906113e3565b80601f01602080910402602001604051908101604052809291908181526020018280546107c8906113e3565b80156108155780601f106107ea57610100808354040283529160200191610815565b820191906000526020600020905b8154815290600101906020018083116107f857829003601f168201915b50505050509080600201805461082a906113e3565b80601f0160208091040260200160405190810160405280929190818152602001828054610856906113e3565b80156108a35780601f10610878576101008083540402835291602001916108a3565b820191906000526020600020905b81548152906001019060200180831161088657829003601f168201915b5050505050908060030180546108b8906113e3565b80601f01602080910402602001604051908101604052809291908181526020018280546108e4906113e3565b80156109315780601f1061090657610100808354040283529160200191610931565b820191906000526020600020905b81548152906001019060200180831161091457829003601f168201915b50505050509080600401549080600501805461094c906113e3565b80601f0160208091040260200160405190810160405280929190818152602001828054610978906113e3565b80156109c55780601f1061099a576101008083540402835291602001916109c5565b820191906000526020600020905b8154815290600101906020018083116109a857829003601f168201915b5050505050905086565b60008054906101000a900473ffffffffffffffffffffffffffffffffffffffff1673ffffffffffffffffffffffffffffffffffffffff163373ffffffffffffffffffffffffffffffffffffffff1614610a5d576040517f08c379a0000000000000000000000000000000000000000000000000000000008152600401610a5490611bb0565b60405180910390fd5b60018060008373ffffffffffffffffffffffffffffffffffffffff1673ffffffffffffffffffffffffffffffffffffffff16815260200190815260200160002060006101000a81548160ff02191690831515021790555050565b606080606080600060606000600288604051610ad3919061139d565b90815260200160405180910390206040518060c0016040529081600082018054610afc906113e3565b80601f0160208091040260200160405190810160405280929190818152602001828054610b28906113e3565b8015610b755780601f10610b4a57610100808354040283529160200191610b75565b820191906000526020600020905b815481529060010190602001808311610b5857829003601f168201915b50505050508152602001600182018054610b8e906113e3565b80601f0160208091040260200160405190810160405280929190818152602001828054610bba906113e3565b8015610c075780601f10610bdc57610100808354040283529160200191610c07565b820191906000526020600020905b815481529060010190602001808311610bea57829003601f168201915b50505050508152602001600282018054610c20906113e3565b80601f0160208091040260200160405190810160405280929190818152602001828054610c4c906113e3565b8015610c995780601f10610c6e57610100808354040283529160200191610c99565b820191906000526020600020905b815481529060010190602001808311610c7c57829003601f168201915b50505050508152602001600382018054610cb2906113e3565b80601f0160208091040260200160405190810160405280929190818152602001828054610cde906113e3565b8015610d2b5780601f10610d0057610100808354040283529160200191610d2b565b820191906000526020600020905b815481529060010190602001808311610d0e57829003601f168201915b5050505050815260200160048201548152602001600582018054610d4e906113e3565b80601f0160208091040260200160405190810160405280929190818152602001828054610d7a906113e3565b8015610dc75780601f10610d9c57610100808354040283529160200191610dc7565b820191906000526020600020905b815481529060010190602001808311610daa57829003601f168201915b50505050508152505090506000600289604051610de4919061139d565b90815260200160405180910390206005018054610e00906113e3565b905003610e42576040517f08c379a0000000000000000000000000000000000000000000000000000000008152600401610e3990611c42565b60405180910390fd5b8781602001518260400151836060015184608001518560a001519650965096509650965096505091939550919395565b6000604051905090565b600080fd5b600080fd5b600080fd5b600080fd5b6000601f19601f8301169050919050565b7f4e487b7100000000000000000000000000000000000000000000000000000000600052604160045260246000fd5b610ed982610e90565b810181811067ffffffffffffffff82111715610ef857610ef7610ea1565b5b80604052505050565b6000610f0b610e72565b9050610f178282610ed0565b919050565b600067ffffffffffffffff821115610f3757610f36610ea1565b5b610f4082610e90565b9050602081019050919050565b82818337600083830152505050565b6000610f6f610f6a84610f1c565b610f01565b905082815260208101848484011115610f8b57610f8a610e8b565b5b610f96848285610f4d565b509392505050565b600082601f830112610fb357610fb2610e86565b5b8135610fc3848260208601610f5c565b91505092915050565b600060208284031215610fe257610fe1610e7c565b5b600082013567ffffffffffffffff81111561100057610fff610e81565b5b61100c84828501610f9e565b91505092915050565b60008115159050919050565b61102a81611015565b82525050565b60006020820190506110456000830184611021565b92915050565b600073ffffffffffffffffffffffffffffffffffffffff82169050919050565b60006110768261104b565b9050919050565b6110868161106b565b811461109157600080fd5b50565b6000813590506110a38161107d565b92915050565b6000602082840312156110bf576110be610e7c565b5b60006110cd84828501611094565b91505092915050565b6000819050919050565b6110e9816110d6565b81146110f457600080fd5b50565b600081359050611106816110e0565b92915050565b60008060008060008060c0878903121561112957611128610e7c565b5b600087013567ffffffffffffffff81111561114757611146610e81565b5b61115389828a01610f9e565b965050602087013567ffffffffffffffff81111561117457611173610e81565b5b61118089828a01610f9e565b955050604087013567ffffffffffffffff8111156111a1576111a0610e81565b5b6111ad89828a01610f9e565b945050606087013567ffffffffffffffff8111156111ce576111cd610e81565b5b6111da89828a01610f9e565b93505060806111eb89828a016110f7565b92505060a087013567ffffffffffffffff81111561120c5761120b610e81565b5b61121889828a01610f9e565b9150509295509295509295565b61122e8161106b565b82525050565b60006020820190506112496000830184611225565b92915050565b600081519050919050565b600082825260208201905092915050565b60005b8381101561128957808201518184015260208101905061126e565b60008484015250505050565b60006112a08261124f565b6112aa818561125a565b93506112ba81856020860161126b565b6112c381610e90565b840191505092915050565b6112d7816110d6565b82525050565b600060c08201905081810360008301526112f78189611295565b9050818103602083015261130b8188611295565b9050818103604083015261131f8187611295565b905081810360608301526113338186611295565b905061134260808301856112ce565b81810360a08301526113548184611295565b9050979650505050505050565b600081905092915050565b60006113778261124f565b6113818185611361565b935061139181856020860161126b565b80840191505092915050565b60006113a9828461136c565b915081905092915050565b7f4e487b7100000000000000000000000000000000000000000000000000000000600052602260045260246000fd5b600060028204905060018216806113fb57607f821691505b60208210810361140e5761140d6113b4565b5b50919050565b7f4f6e6c7920746865206f776e65722063616e2072656d6f7665206f7267616e6960008201527f7a6174696f6e7300000000000000000000000000000000000000000000000000602082015250565b600061147060278361125a565b915061147b82611414565b604082019050919050565b6000602082019050818103600083015261149f81611463565b9050919050565b7f4f6e6c7920617574686f72697a6564206f7267616e697a6174696f6e7320636160008201527f6e2067656e657261746520636572746966696361746573000000000000000000602082015250565b600061150260378361125a565b915061150d826114a6565b604082019050919050565b60006020820190508181036000830152611531816114f5565b9050919050565b7f43657274696669636174652049442063616e6e6f7420626520656d7074790000600082015250565b600061156e601e8361125a565b915061157982611538565b602082019050919050565b6000602082019050818103600083015261159d81611561565b9050919050565b7f43616e646964617465206e616d652063616e6e6f7420626520656d7074790000600082015250565b60006115da601e8361125a565b91506115e5826115a4565b602082019050919050565b60006020820190508181036000830152611609816115cd565b9050919050565b7f43657274696669636174696f6e206e616d652063616e6e6f7420626520656d7060008201527f7479000000000000000000000000000000000000000000000000000000000000602082015250565b600061166c60228361125a565b915061167782611610565b604082019050919050565b6000602082019050818103600083015261169b8161165f565b9050919050565b7f4f7267616e697a6174696f6e206e616d652063616e6e6f7420626520656d707460008201527f7900000000000000000000000000000000000000000000000000000000000000602082015250565b60006116fe60218361125a565b9150611709826116a2565b604082019050919050565b6000602082019050818103600083015261172d816116f1565b9050919050565b7f456d697373696f6e2064617465206d7573742062652076616c69640000000000600082015250565b600061176a601b8361125a565b915061177582611734565b602082019050919050565b600060208201905081810360008301526117998161175d565b9050919050565b7f4950465320686173682063616e6e6f7420626520656d70747900000000000000600082015250565b60006117d660198361125a565b91506117e1826117a0565b602082019050919050565b60006020820190508181036000830152611805816117c9565b9050919050565b7f43657274696669636174652077697468207468697320494420616c726561647960008201527f2065786973747300000000000000000000000000000000000000000000000000602082015250565b600061186860278361125a565b91506118738261180c565b604082019050919050565b600060208201905081810360008301526118978161185b565b9050919050565b60008190508160005260206000209050919050565b60006020601f8301049050919050565b600082821b905092915050565b6000600883026119007fffffffffffffffffffffffffffffffffffffffffffffffffffffffffffffffff826118c3565b61190a86836118c3565b95508019841693508086168417925050509392505050565b6000819050919050565b600061194761194261193d846110d6565b611922565b6110d6565b9050919050565b6000819050919050565b6119618361192c565b61197561196d8261194e565b8484546118d0565b825550505050565b600090565b61198a61197d565b611995818484611958565b505050565b5b818110156119b9576119ae600082611982565b60018101905061199b565b5050565b601f8211156119fe576119cf8161189e565b6119d8846118b3565b810160208510156119e7578190505b6119fb6119f3856118b3565b83018261199a565b50505b505050565b600082821c905092915050565b6000611a2160001984600802611a03565b1980831691505092915050565b6000611a3a8383611a10565b9150826002028217905092915050565b611a538261124f565b67ffffffffffffffff811115611a6c57611a6b610ea1565b5b611a7682546113e3565b611a818282856119bd565b600060209050601f831160018114611ab45760008415611aa2578287015190505b611aac8582611a2e565b865550611b14565b601f198416611ac28661189e565b60005b82811015611aea57848901518255600182019150602085019450602081019050611ac5565b86831015611b075784890151611b03601f891682611a10565b8355505b6001600288020188555050505b505050505050565b60006020820190508181036000830152611b368184611295565b905092915050565b7f4f6e6c7920746865206f776e65722063616e20616464206f7267616e697a617460008201527f696f6e7300000000000000000000000000000000000000000000000000000000602082015250565b6000611b9a60248361125a565b9150611ba582611b3e565b604082019050919050565b60006020820190508181036000830152611bc981611b8d565b9050919050565b7f43657274696669636174652077697468207468697320494420646f6573206e6f60008201527f7420657869737400000000000000000000000000000000000000000000000000602082015250565b6000611c2c60278361125a565b9150611c3782611bd0565b604082019050919050565b60006020820190508181036000830152611c5b81611c1f565b905091905056fea2646970667358221220b084a4690766fcf2eb3bd6fe3088c2a6be91f78b863fd7cbf627a9628117e18364736f6c634300081c0033",
  "linkReferences": {},
  "deployedLinkReferences": {}
}