{
	"backend/contracts/Certification.sol": {
		"Certification": {
			"abi": [
				{
					"inputs": [],
					"stateMutability": "nonpayable",
					"type": "constructor"
				},
				{
					"anonymous": false,
					"inputs": [
						{
							"indexed": false,
							"internalType": "string",
							"name": "certificate_id",
							"type": "string"
						}
					],
					"name": "CertificateGenerated",
					"type": "event"
				},
				{
					"anonymous": false,
					"inputs": [
						{
							"indexed": false,
							"internalType": "address",
							"name": "organization",
							"type": "address"
						},
						{
							"indexed": false,
							"internalType": "string",
							"name": "org_name",
							"type": "string"
						}
					],
					"name": "OrganizationAuthorized",
					"type": "event"
				},
				{
					"anonymous": false,
					"inputs": [
						{
							"indexed": false,
							"internalType": "address",
							"name": "organization",
							"type": "address"
						}
					],
					"name": "OrganizationUnauthorized",
					"type": "event"
				},
				{
					"inputs": [
						{
							"internalType": "string",
							"name": "_certificate_id",
							"type": "string"
						},
						{
							"internalType": "string",
							"name": "_candidate_name",
							"type": "string"
						},
						{
							"internalType": "string",
							"name": "_certification_name",
							"type": "string"
						},
						{
							"internalType": "string",
							"name": "_org_name",
							"type": "string"
						},
						{
							"internalType": "uint256",
							"name": "_emission_date",
							"type": "uint256"
						},
						{
							"internalType": "string",
							"name": "_ipfs_hash",
							"type": "string"
						}
					],
					"name": "addCertificate",
					"outputs": [],
					"stateMutability": "nonpayable",
					"type": "function"
				},
				{
					"inputs": [
						{
							"internalType": "address",
							"name": "_organization",
							"type": "address"
						},
						{
							"internalType": "string",
							"name": "_org_name",
							"type": "string"
						}
					],
					"name": "authorizeOrganization",
					"outputs": [],
					"stateMutability": "nonpayable",
					"type": "function"
				},
				{
					"inputs": [
						{
							"internalType": "string",
							"name": "",
							"type": "string"
						}
					],
					"name": "certificates",
					"outputs": [
						{
							"internalType": "string",
							"name": "candidate_name",
							"type": "string"
						},
						{
							"internalType": "string",
							"name": "certification_name",
							"type": "string"
						},
						{
							"internalType": "string",
							"name": "org_name",
							"type": "string"
						},
						{
							"internalType": "uint256",
							"name": "emission_date",
							"type": "uint256"
						},
						{
							"internalType": "string",
							"name": "ipfs_hash",
							"type": "string"
						}
					],
					"stateMutability": "view",
					"type": "function"
				},
				{
					"inputs": [
						{
							"internalType": "string",
							"name": "_certificate_id",
							"type": "string"
						}
					],
					"name": "getCertificate",
					"outputs": [
						{
							"internalType": "string",
							"name": "_candidate_name",
							"type": "string"
						},
						{
							"internalType": "string",
							"name": "_certification_name",
							"type": "string"
						},
						{
							"internalType": "string",
							"name": "_org_name",
							"type": "string"
						},
						{
							"internalType": "uint256",
							"name": "_emission_date",
							"type": "uint256"
						},
						{
							"internalType": "string",
							"name": "_ipfs_hash",
							"type": "string"
						}
					],
					"stateMutability": "view",
					"type": "function"
				},
				{
					"inputs": [
						{
							"internalType": "string",
							"name": "_certificate_id",
							"type": "string"
						}
					],
					"name": "isVerified",
					"outputs": [
						{
							"internalType": "bool",
							"name": "",
							"type": "bool"
						}
					],
					"stateMutability": "view",
					"type": "function"
				},
				{
					"inputs": [
						{
							"internalType": "address",
							"name": "_organization",
							"type": "address"
						}
					],
					"name": "unauthorizeOrganization",
					"outputs": [],
					"stateMutability": "nonpayable",
					"type": "function"
				}
			],
			"devdoc": {
				"kind": "dev",
				"methods": {},
				"version": 1
			},
			"evm": {
				"assembly": "    /* \"backend/contracts/Certification.sol\":57:3619  contract Certification {... */\n  mstore(0x40, 0x80)\n    /* \"backend/contracts/Certification.sol\":881:930  constructor() {... */\n  callvalue\n  dup1\n  iszero\n  tag_1\n  jumpi\n  revert(0x00, 0x00)\ntag_1:\n  pop\n    /* \"backend/contracts/Certification.sol\":913:923  msg.sender */\n  caller\n    /* \"backend/contracts/Certification.sol\":905:910  owner */\n  0x02\n  0x00\n    /* \"backend/contracts/Certification.sol\":905:923  owner = msg.sender */\n  0x0100\n  exp\n  dup2\n  sload\n  dup2\n  0xffffffffffffffffffffffffffffffffffffffff\n  mul\n  not\n  and\n  swap1\n  dup4\n  0xffffffffffffffffffffffffffffffffffffffff\n  and\n  mul\n  or\n  swap1\n  sstore\n  pop\n    /* \"backend/contracts/Certification.sol\":57:3619  contract Certification {... */\n  dataSize(sub_0)\n  dup1\n  dataOffset(sub_0)\n  0x00\n  codecopy\n  0x00\n  return\nstop\n\nsub_0: assembly {\n        /* \"backend/contracts/Certification.sol\":57:3619  contract Certification {... */\n      mstore(0x40, 0x80)\n      callvalue\n      dup1\n      iszero\n      tag_1\n      jumpi\n      revert(0x00, 0x00)\n    tag_1:\n      pop\n      jumpi(tag_2, lt(calldatasize, 0x04))\n      shr(0xe0, calldataload(0x00))\n      dup1\n      0x234c76d5\n      eq\n      tag_3\n      jumpi\n      dup1\n      0x8f2b91ea\n      eq\n      tag_4\n      jumpi\n      dup1\n      0x9d739043\n      eq\n      tag_5\n      jumpi\n      dup1\n      0xd5ced930\n      eq\n      tag_6\n      jumpi\n      dup1\n      0xed0f2e75\n      eq\n      tag_7\n      jumpi\n      dup1\n      0xffd022bd\n      eq\n      tag_8\n      jumpi\n    tag_2:\n      revert(0x00, 0x00)\n        /* \"backend/contracts/Certification.sol\":3457:3617  function isVerified(string memory _certificate_id) public view returns (bool) {... */\n    tag_3:\n      tag_9\n      0x04\n      dup1\n      calldatasize\n      sub\n      dup2\n      add\n      swap1\n      tag_10\n      swap2\n      swap1\n      tag_11\n      jump\t// in\n    tag_10:\n      tag_12\n      jump\t// in\n    tag_9:\n      mload(0x40)\n      tag_13\n      swap2\n      swap1\n      tag_14\n      jump\t// in\n    tag_13:\n      mload(0x40)\n      dup1\n      swap2\n      sub\n      swap1\n      return\n        /* \"backend/contracts/Certification.sol\":266:316  mapping(string => Certificate) public certificates */\n    tag_4:\n      tag_15\n      0x04\n      dup1\n      calldatasize\n      sub\n      dup2\n      add\n      swap1\n      tag_16\n      swap2\n      swap1\n      tag_11\n      jump\t// in\n    tag_16:\n      tag_17\n      jump\t// in\n    tag_15:\n      mload(0x40)\n      tag_18\n      swap6\n      swap5\n      swap4\n      swap3\n      swap2\n      swap1\n      tag_19\n      jump\t// in\n    tag_18:\n      mload(0x40)\n      dup1\n      swap2\n      sub\n      swap1\n      return\n        /* \"backend/contracts/Certification.sol\":936:1162  function authorizeOrganization(address _organization, string memory _org_name) public onlyOwner {... */\n    tag_5:\n      tag_20\n      0x04\n      dup1\n      calldatasize\n      sub\n      dup2\n      add\n      swap1\n      tag_21\n      swap2\n      swap1\n      tag_22\n      jump\t// in\n    tag_21:\n      tag_23\n      jump\t// in\n    tag_20:\n      stop\n        /* \"backend/contracts/Certification.sol\":1168:1357  function unauthorizeOrganization(address _organization) public onlyOwner {... */\n    tag_6:\n      tag_24\n      0x04\n      dup1\n      calldatasize\n      sub\n      dup2\n      add\n      swap1\n      tag_25\n      swap2\n      swap1\n      tag_26\n      jump\t// in\n    tag_25:\n      tag_27\n      jump\t// in\n    tag_24:\n      stop\n        /* \"backend/contracts/Certification.sol\":2820:3451  function getCertificate(... */\n    tag_7:\n      tag_28\n      0x04\n      dup1\n      calldatasize\n      sub\n      dup2\n      add\n      swap1\n      tag_29\n      swap2\n      swap1\n      tag_11\n      jump\t// in\n    tag_29:\n      tag_30\n      jump\t// in\n    tag_28:\n      mload(0x40)\n      tag_31\n      swap6\n      swap5\n      swap4\n      swap3\n      swap2\n      swap1\n      tag_19\n      jump\t// in\n    tag_31:\n      mload(0x40)\n      dup1\n      swap2\n      sub\n      swap1\n      return\n        /* \"backend/contracts/Certification.sol\":1363:2814  function addCertificate(... */\n    tag_8:\n      tag_32\n      0x04\n      dup1\n      calldatasize\n      sub\n      dup2\n      add\n      swap1\n      tag_33\n      swap2\n      swap1\n      tag_34\n      jump\t// in\n    tag_33:\n      tag_35\n      jump\t// in\n    tag_32:\n      stop\n        /* \"backend/contracts/Certification.sol\":3457:3617  function isVerified(string memory _certificate_id) public view returns (bool) {... */\n    tag_12:\n        /* \"backend/contracts/Certification.sol\":3529:3533  bool */\n      0x00\n        /* \"backend/contracts/Certification.sol\":3609:3610  0 */\n      0x00\n        /* \"backend/contracts/Certification.sol\":3558:3570  certificates */\n      0x00\n        /* \"backend/contracts/Certification.sol\":3571:3586  _certificate_id */\n      dup4\n        /* \"backend/contracts/Certification.sol\":3558:3587  certificates[_certificate_id] */\n      mload(0x40)\n      tag_37\n      swap2\n      swap1\n      tag_38\n      jump\t// in\n    tag_37:\n      swap1\n      dup2\n      mstore\n      0x20\n      add\n      mload(0x40)\n      dup1\n      swap2\n      sub\n      swap1\n      keccak256\n        /* \"backend/contracts/Certification.sol\":3558:3597  certificates[_certificate_id].ipfs_hash */\n      0x04\n      add\n        /* \"backend/contracts/Certification.sol\":3552:3605  bytes(certificates[_certificate_id].ipfs_hash).length */\n      dup1\n      sload\n      tag_39\n      swap1\n      tag_40\n      jump\t// in\n    tag_39:\n      swap1\n      pop\n        /* \"backend/contracts/Certification.sol\":3552:3610  bytes(certificates[_certificate_id].ipfs_hash).length != 0 */\n      eq\n      iszero\n        /* \"backend/contracts/Certification.sol\":3545:3610  return bytes(certificates[_certificate_id].ipfs_hash).length != 0 */\n      swap1\n      pop\n        /* \"backend/contracts/Certification.sol\":3457:3617  function isVerified(string memory _certificate_id) public view returns (bool) {... */\n      swap2\n      swap1\n      pop\n      jump\t// out\n        /* \"backend/contracts/Certification.sol\":266:316  mapping(string => Certificate) public certificates */\n    tag_17:\n      0x00\n      dup2\n      dup1\n      mload\n      0x20\n      dup2\n      add\n      dup3\n      add\n      dup1\n      mload\n      dup5\n      dup3\n      mstore\n      0x20\n      dup4\n      add\n      0x20\n      dup6\n      add\n      keccak256\n      dup2\n      dup4\n      mstore\n      dup1\n      swap6\n      pop\n      pop\n      pop\n      pop\n      pop\n      pop\n      0x00\n      swap2\n      pop\n      swap1\n      pop\n      dup1\n      0x00\n      add\n      dup1\n      sload\n      tag_41\n      swap1\n      tag_40\n      jump\t// in\n    tag_41:\n      dup1\n      0x1f\n      add\n      0x20\n      dup1\n      swap2\n      div\n      mul\n      0x20\n      add\n      mload(0x40)\n      swap1\n      dup2\n      add\n      0x40\n      mstore\n      dup1\n      swap3\n      swap2\n      swap1\n      dup2\n      dup2\n      mstore\n      0x20\n      add\n      dup3\n      dup1\n      sload\n      tag_42\n      swap1\n      tag_40\n      jump\t// in\n    tag_42:\n      dup1\n      iszero\n      tag_43\n      jumpi\n      dup1\n      0x1f\n      lt\n      tag_44\n      jumpi\n      0x0100\n      dup1\n      dup4\n      sload\n      div\n      mul\n      dup4\n      mstore\n      swap2\n      0x20\n      add\n      swap2\n      jump(tag_43)\n    tag_44:\n      dup3\n      add\n      swap2\n      swap1\n      0x00\n      mstore\n      keccak256(0x00, 0x20)\n      swap1\n    tag_45:\n      dup2\n      sload\n      dup2\n      mstore\n      swap1\n      0x01\n      add\n      swap1\n      0x20\n      add\n      dup1\n      dup4\n      gt\n      tag_45\n      jumpi\n      dup3\n      swap1\n      sub\n      0x1f\n      and\n      dup3\n      add\n      swap2\n    tag_43:\n      pop\n      pop\n      pop\n      pop\n      pop\n      swap1\n      dup1\n      0x01\n      add\n      dup1\n      sload\n      tag_46\n      swap1\n      tag_40\n      jump\t// in\n    tag_46:\n      dup1\n      0x1f\n      add\n      0x20\n      dup1\n      swap2\n      div\n      mul\n      0x20\n      add\n      mload(0x40)\n      swap1\n      dup2\n      add\n      0x40\n      mstore\n      dup1\n      swap3\n      swap2\n      swap1\n      dup2\n      dup2\n      mstore\n      0x20\n      add\n      dup3\n      dup1\n      sload\n      tag_47\n      swap1\n      tag_40\n      jump\t// in\n    tag_47:\n      dup1\n      iszero\n      tag_48\n      jumpi\n      dup1\n      0x1f\n      lt\n      tag_49\n      jumpi\n      0x0100\n      dup1\n      dup4\n      sload\n      div\n      mul\n      dup4\n      mstore\n      swap2\n      0x20\n      add\n      swap2\n      jump(tag_48)\n    tag_49:\n      dup3\n      add\n      swap2\n      swap1\n      0x00\n      mstore\n      keccak256(0x00, 0x20)\n      swap1\n    tag_50:\n      dup2\n      sload\n      dup2\n      mstore\n      swap1\n      0x01\n      add\n      swap1\n      0x20\n      add\n      dup1\n      dup4\n      gt\n      tag_50\n      jumpi\n      dup3\n      swap1\n      sub\n      0x1f\n      and\n      dup3\n      add\n      swap2\n    tag_48:\n      pop\n      pop\n      pop\n      pop\n      pop\n      swap1\n      dup1\n      0x02\n      add\n      dup1\n      sload\n      tag_51\n      swap1\n      tag_40\n      jump\t// in\n    tag_51:\n      dup1\n      0x1f\n      add\n      0x20\n      dup1\n      swap2\n      div\n      mul\n      0x20\n      add\n      mload(0x40)\n      swap1\n      dup2\n      add\n      0x40\n      mstore\n      dup1\n      swap3\n      swap2\n      swap1\n      dup2\n      dup2\n      mstore\n      0x20\n      add\n      dup3\n      dup1\n      sload\n      tag_52\n      swap1\n      tag_40\n      jump\t// in\n    tag_52:\n      dup1\n      iszero\n      tag_53\n      jumpi\n      dup1\n      0x1f\n      lt\n      tag_54\n      jumpi\n      0x0100\n      dup1\n      dup4\n      sload\n      div\n      mul\n      dup4\n      mstore\n      swap2\n      0x20\n      add\n      swap2\n      jump(tag_53)\n    tag_54:\n      dup3\n      add\n      swap2\n      swap1\n      0x00\n      mstore\n      keccak256(0x00, 0x20)\n      swap1\n    tag_55:\n      dup2\n      sload\n      dup2\n      mstore\n      swap1\n      0x01\n      add\n      swap1\n      0x20\n      add\n      dup1\n      dup4\n      gt\n      tag_55\n      jumpi\n      dup3\n      swap1\n      sub\n      0x1f\n      and\n      dup3\n      add\n      swap2\n    tag_53:\n      pop\n      pop\n      pop\n      pop\n      pop\n      swap1\n      dup1\n      0x03\n      add\n      sload\n      swap1\n      dup1\n      0x04\n      add\n      dup1\n      sload\n      tag_56\n      swap1\n      tag_40\n      jump\t// in\n    tag_56:\n      dup1\n      0x1f\n      add\n      0x20\n      dup1\n      swap2\n      div\n      mul\n      0x20\n      add\n      mload(0x40)\n      swap1\n      dup2\n      add\n      0x40\n      mstore\n      dup1\n      swap3\n      swap2\n      swap1\n      dup2\n      dup2\n      mstore\n      0x20\n      add\n      dup3\n      dup1\n      sload\n      tag_57\n      swap1\n      tag_40\n      jump\t// in\n    tag_57:\n      dup1\n      iszero\n      tag_58\n      jumpi\n      dup1\n      0x1f\n      lt\n      tag_59\n      jumpi\n      0x0100\n      dup1\n      dup4\n      sload\n      div\n      mul\n      dup4\n      mstore\n      swap2\n      0x20\n      add\n      swap2\n      jump(tag_58)\n    tag_59:\n      dup3\n      add\n      swap2\n      swap1\n      0x00\n      mstore\n      keccak256(0x00, 0x20)\n      swap1\n    tag_60:\n      dup2\n      sload\n      dup2\n      mstore\n      swap1\n      0x01\n      add\n      swap1\n      0x20\n      add\n      dup1\n      dup4\n      gt\n      tag_60\n      jumpi\n      dup3\n      swap1\n      sub\n      0x1f\n      and\n      dup3\n      add\n      swap2\n    tag_58:\n      pop\n      pop\n      pop\n      pop\n      pop\n      swap1\n      pop\n      dup6\n      jump\t// out\n        /* \"backend/contracts/Certification.sol\":936:1162  function authorizeOrganization(address _organization, string memory _org_name) public onlyOwner {... */\n    tag_23:\n        /* \"backend/contracts/Certification.sol\":655:660  owner */\n      0x02\n      0x00\n      swap1\n      sload\n      swap1\n      0x0100\n      exp\n      swap1\n      div\n      0xffffffffffffffffffffffffffffffffffffffff\n      and\n        /* \"backend/contracts/Certification.sol\":641:660  msg.sender == owner */\n      0xffffffffffffffffffffffffffffffffffffffff\n      and\n        /* \"backend/contracts/Certification.sol\":641:651  msg.sender */\n      caller\n        /* \"backend/contracts/Certification.sol\":641:660  msg.sender == owner */\n      0xffffffffffffffffffffffffffffffffffffffff\n      and\n      eq\n        /* \"backend/contracts/Certification.sol\":633:688  require(msg.sender == owner, \"Caller is not the owner\") */\n      tag_62\n      jumpi\n      mload(0x40)\n      0x08c379a000000000000000000000000000000000000000000000000000000000\n      dup2\n      mstore\n      0x04\n      add\n      tag_63\n      swap1\n      tag_64\n      jump\t// in\n    tag_63:\n      mload(0x40)\n      dup1\n      swap2\n      sub\n      swap1\n      revert\n    tag_62:\n        /* \"backend/contracts/Certification.sol\":1083:1092  _org_name */\n      dup1\n        /* \"backend/contracts/Certification.sol\":1042:1065  authorizedOrganizations */\n      0x01\n        /* \"backend/contracts/Certification.sol\":1042:1080  authorizedOrganizations[_organization] */\n      0x00\n        /* \"backend/contracts/Certification.sol\":1066:1079  _organization */\n      dup5\n        /* \"backend/contracts/Certification.sol\":1042:1080  authorizedOrganizations[_organization] */\n      0xffffffffffffffffffffffffffffffffffffffff\n      and\n      0xffffffffffffffffffffffffffffffffffffffff\n      and\n      dup2\n      mstore\n      0x20\n      add\n      swap1\n      dup2\n      mstore\n      0x20\n      add\n      0x00\n      keccak256\n        /* \"backend/contracts/Certification.sol\":1042:1092  authorizedOrganizations[_organization] = _org_name */\n      swap1\n      dup2\n      tag_66\n      swap2\n      swap1\n      tag_67\n      jump\t// in\n    tag_66:\n      pop\n        /* \"backend/contracts/Certification.sol\":1107:1155  OrganizationAuthorized(_organization, _org_name) */\n      0x54eb74644004a78d5f65a4d9e805eb6e2524b80c47ae9324c5566083467c30cf\n        /* \"backend/contracts/Certification.sol\":1130:1143  _organization */\n      dup3\n        /* \"backend/contracts/Certification.sol\":1145:1154  _org_name */\n      dup3\n        /* \"backend/contracts/Certification.sol\":1107:1155  OrganizationAuthorized(_organization, _org_name) */\n      mload(0x40)\n      tag_68\n      swap3\n      swap2\n      swap1\n      tag_69\n      jump\t// in\n    tag_68:\n      mload(0x40)\n      dup1\n      swap2\n      sub\n      swap1\n      log1\n        /* \"backend/contracts/Certification.sol\":936:1162  function authorizeOrganization(address _organization, string memory _org_name) public onlyOwner {... */\n      pop\n      pop\n      jump\t// out\n        /* \"backend/contracts/Certification.sol\":1168:1357  function unauthorizeOrganization(address _organization) public onlyOwner {... */\n    tag_27:\n        /* \"backend/contracts/Certification.sol\":655:660  owner */\n      0x02\n      0x00\n      swap1\n      sload\n      swap1\n      0x0100\n      exp\n      swap1\n      div\n      0xffffffffffffffffffffffffffffffffffffffff\n      and\n        /* \"backend/contracts/Certification.sol\":641:660  msg.sender == owner */\n      0xffffffffffffffffffffffffffffffffffffffff\n      and\n        /* \"backend/contracts/Certification.sol\":641:651  msg.sender */\n      caller\n        /* \"backend/contracts/Certification.sol\":641:660  msg.sender == owner */\n      0xffffffffffffffffffffffffffffffffffffffff\n      and\n      eq\n        /* \"backend/contracts/Certification.sol\":633:688  require(msg.sender == owner, \"Caller is not the owner\") */\n      tag_71\n      jumpi\n      mload(0x40)\n      0x08c379a000000000000000000000000000000000000000000000000000000000\n      dup2\n      mstore\n      0x04\n      add\n      tag_72\n      swap1\n      tag_64\n      jump\t// in\n    tag_72:\n      mload(0x40)\n      dup1\n      swap2\n      sub\n      swap1\n      revert\n    tag_71:\n        /* \"backend/contracts/Certification.sol\":1258:1281  authorizedOrganizations */\n      0x01\n        /* \"backend/contracts/Certification.sol\":1258:1296  authorizedOrganizations[_organization] */\n      0x00\n        /* \"backend/contracts/Certification.sol\":1282:1295  _organization */\n      dup3\n        /* \"backend/contracts/Certification.sol\":1258:1296  authorizedOrganizations[_organization] */\n      0xffffffffffffffffffffffffffffffffffffffff\n      and\n      0xffffffffffffffffffffffffffffffffffffffff\n      and\n      dup2\n      mstore\n      0x20\n      add\n      swap1\n      dup2\n      mstore\n      0x20\n      add\n      0x00\n      keccak256\n      0x00\n        /* \"backend/contracts/Certification.sol\":1251:1296  delete authorizedOrganizations[_organization] */\n      tag_74\n      swap2\n      swap1\n      tag_75\n      jump\t// in\n    tag_74:\n        /* \"backend/contracts/Certification.sol\":1311:1350  OrganizationUnauthorized(_organization) */\n      0x66496c008f81f560d8f9c68c2edbb02b6c2f87b21f33ac94d6ba3497fdbfa720\n        /* \"backend/contracts/Certification.sol\":1336:1349  _organization */\n      dup2\n        /* \"backend/contracts/Certification.sol\":1311:1350  OrganizationUnauthorized(_organization) */\n      mload(0x40)\n      tag_76\n      swap2\n      swap1\n      tag_77\n      jump\t// in\n    tag_76:\n      mload(0x40)\n      dup1\n      swap2\n      sub\n      swap1\n      log1\n        /* \"backend/contracts/Certification.sol\":1168:1357  function unauthorizeOrganization(address _organization) public onlyOwner {... */\n      pop\n      jump\t// out\n        /* \"backend/contracts/Certification.sol\":2820:3451  function getCertificate(... */\n    tag_30:\n        /* \"backend/contracts/Certification.sol\":2919:2948  string memory _candidate_name */\n      0x60\n        /* \"backend/contracts/Certification.sol\":2958:2991  string memory _certification_name */\n      dup1\n        /* \"backend/contracts/Certification.sol\":3001:3024  string memory _org_name */\n      0x60\n        /* \"backend/contracts/Certification.sol\":3034:3056  uint256 _emission_date */\n      0x00\n        /* \"backend/contracts/Certification.sol\":3066:3090  string memory _ipfs_hash */\n      0x60\n        /* \"backend/contracts/Certification.sol\":3107:3131  Certificate storage cert */\n      0x00\n        /* \"backend/contracts/Certification.sol\":3134:3146  certificates */\n      0x00\n        /* \"backend/contracts/Certification.sol\":3147:3162  _certificate_id */\n      dup8\n        /* \"backend/contracts/Certification.sol\":3134:3163  certificates[_certificate_id] */\n      mload(0x40)\n      tag_79\n      swap2\n      swap1\n      tag_38\n      jump\t// in\n    tag_79:\n      swap1\n      dup2\n      mstore\n      0x20\n      add\n      mload(0x40)\n      dup1\n      swap2\n      sub\n      swap1\n      keccak256\n        /* \"backend/contracts/Certification.sol\":3107:3163  Certificate storage cert = certificates[_certificate_id] */\n      swap1\n      pop\n        /* \"backend/contracts/Certification.sol\":3214:3215  0 */\n      0x00\n        /* \"backend/contracts/Certification.sol\":3188:3192  cert */\n      dup2\n        /* \"backend/contracts/Certification.sol\":3188:3202  cert.ipfs_hash */\n      0x04\n      add\n        /* \"backend/contracts/Certification.sol\":3182:3210  bytes(cert.ipfs_hash).length */\n      dup1\n      sload\n      tag_80\n      swap1\n      tag_40\n      jump\t// in\n    tag_80:\n      swap1\n      pop\n        /* \"backend/contracts/Certification.sol\":3182:3215  bytes(cert.ipfs_hash).length != 0 */\n      sub\n        /* \"backend/contracts/Certification.sol\":3174:3259  require(bytes(cert.ipfs_hash).length != 0, \"Certificate with this ID does not exist\") */\n      tag_81\n      jumpi\n      mload(0x40)\n      0x08c379a000000000000000000000000000000000000000000000000000000000\n      dup2\n      mstore\n      0x04\n      add\n      tag_82\n      swap1\n      tag_83\n      jump\t// in\n    tag_82:\n      mload(0x40)\n      dup1\n      swap2\n      sub\n      swap1\n      revert\n    tag_81:\n        /* \"backend/contracts/Certification.sol\":3291:3295  cert */\n      dup1\n        /* \"backend/contracts/Certification.sol\":3291:3310  cert.candidate_name */\n      0x00\n      add\n        /* \"backend/contracts/Certification.sol\":3324:3328  cert */\n      dup2\n        /* \"backend/contracts/Certification.sol\":3324:3347  cert.certification_name */\n      0x01\n      add\n        /* \"backend/contracts/Certification.sol\":3361:3365  cert */\n      dup3\n        /* \"backend/contracts/Certification.sol\":3361:3374  cert.org_name */\n      0x02\n      add\n        /* \"backend/contracts/Certification.sol\":3388:3392  cert */\n      dup4\n        /* \"backend/contracts/Certification.sol\":3388:3406  cert.emission_date */\n      0x03\n      add\n      sload\n        /* \"backend/contracts/Certification.sol\":3420:3424  cert */\n      dup5\n        /* \"backend/contracts/Certification.sol\":3420:3434  cert.ipfs_hash */\n      0x04\n      add\n        /* \"backend/contracts/Certification.sol\":3270:3444  return (... */\n      dup5\n      dup1\n      sload\n      tag_84\n      swap1\n      tag_40\n      jump\t// in\n    tag_84:\n      dup1\n      0x1f\n      add\n      0x20\n      dup1\n      swap2\n      div\n      mul\n      0x20\n      add\n      mload(0x40)\n      swap1\n      dup2\n      add\n      0x40\n      mstore\n      dup1\n      swap3\n      swap2\n      swap1\n      dup2\n      dup2\n      mstore\n      0x20\n      add\n      dup3\n      dup1\n      sload\n      tag_85\n      swap1\n      tag_40\n      jump\t// in\n    tag_85:\n      dup1\n      iszero\n      tag_86\n      jumpi\n      dup1\n      0x1f\n      lt\n      tag_87\n      jumpi\n      0x0100\n      dup1\n      dup4\n      sload\n      div\n      mul\n      dup4\n      mstore\n      swap2\n      0x20\n      add\n      swap2\n      jump(tag_86)\n    tag_87:\n      dup3\n      add\n      swap2\n      swap1\n      0x00\n      mstore\n      keccak256(0x00, 0x20)\n      swap1\n    tag_88:\n      dup2\n      sload\n      dup2\n      mstore\n      swap1\n      0x01\n      add\n      swap1\n      0x20\n      add\n      dup1\n      dup4\n      gt\n      tag_88\n      jumpi\n      dup3\n      swap1\n      sub\n      0x1f\n      and\n      dup3\n      add\n      swap2\n    tag_86:\n      pop\n      pop\n      pop\n      pop\n      pop\n      swap5\n      pop\n      dup4\n      dup1\n      sload\n      tag_89\n      swap1\n      tag_40\n      jump\t// in\n    tag_89:\n      dup1\n      0x1f\n      add\n      0x20\n      dup1\n      swap2\n      div\n      mul\n      0x20\n      add\n      mload(0x40)\n      swap1\n      dup2\n      add\n      0x40\n      mstore\n      dup1\n      swap3\n      swap2\n      swap1\n      dup2\n      dup2\n      mstore\n      0x20\n      add\n      dup3\n      dup1\n      sload\n      tag_90\n      swap1\n      tag_40\n      jump\t// in\n    tag_90:\n      dup1\n      iszero\n      tag_91\n      jumpi\n      dup1\n      0x1f\n      lt\n      tag_92\n      jumpi\n      0x0100\n      dup1\n      dup4\n      sload\n      div\n      mul\n      dup4\n      mstore\n      swap2\n      0x20\n      add\n      swap2\n      jump(tag_91)\n    tag_92:\n      dup3\n      add\n      swap2\n      swap1\n      0x00\n      mstore\n      keccak256(0x00, 0x20)\n      swap1\n    tag_93:\n      dup2\n      sload\n      dup2\n      mstore\n      swap1\n      0x01\n      add\n      swap1\n      0x20\n      add\n      dup1\n      dup4\n      gt\n      tag_93\n      jumpi\n      dup3\n      swap1\n      sub\n      0x1f\n      and\n      dup3\n      add\n      swap2\n    tag_91:\n      pop\n      pop\n      pop\n      pop\n      pop\n      swap4\n      pop\n      dup3\n      dup1\n      sload\n      tag_94\n      swap1\n      tag_40\n      jump\t// in\n    tag_94:\n      dup1\n      0x1f\n      add\n      0x20\n      dup1\n      swap2\n      div\n      mul\n      0x20\n      add\n      mload(0x40)\n      swap1\n      dup2\n      add\n      0x40\n      mstore\n      dup1\n      swap3\n      swap2\n      swap1\n      dup2\n      dup2\n      mstore\n      0x20\n      add\n      dup3\n      dup1\n      sload\n      tag_95\n      swap1\n      tag_40\n      jump\t// in\n    tag_95:\n      dup1\n      iszero\n      tag_96\n      jumpi\n      dup1\n      0x1f\n      lt\n      tag_97\n      jumpi\n      0x0100\n      dup1\n      dup4\n      sload\n      div\n      mul\n      dup4\n      mstore\n      swap2\n      0x20\n      add\n      swap2\n      jump(tag_96)\n    tag_97:\n      dup3\n      add\n      swap2\n      swap1\n      0x00\n      mstore\n      keccak256(0x00, 0x20)\n      swap1\n    tag_98:\n      dup2\n      sload\n      dup2\n      mstore\n      swap1\n      0x01\n      add\n      swap1\n      0x20\n      add\n      dup1\n      dup4\n      gt\n      tag_98\n      jumpi\n      dup3\n      swap1\n      sub\n      0x1f\n      and\n      dup3\n      add\n      swap2\n    tag_96:\n      pop\n      pop\n      pop\n      pop\n      pop\n      swap3\n      pop\n      dup1\n      dup1\n      sload\n      tag_99\n      swap1\n      tag_40\n      jump\t// in\n    tag_99:\n      dup1\n      0x1f\n      add\n      0x20\n      dup1\n      swap2\n      div\n      mul\n      0x20\n      add\n      mload(0x40)\n      swap1\n      dup2\n      add\n      0x40\n      mstore\n      dup1\n      swap3\n      swap2\n      swap1\n      dup2\n      dup2\n      mstore\n      0x20\n      add\n      dup3\n      dup1\n      sload\n      tag_100\n      swap1\n      tag_40\n      jump\t// in\n    tag_100:\n      dup1\n      iszero\n      tag_101\n      jumpi\n      dup1\n      0x1f\n      lt\n      tag_102\n      jumpi\n      0x0100\n      dup1\n      dup4\n      sload\n      div\n      mul\n      dup4\n      mstore\n      swap2\n      0x20\n      add\n      swap2\n      jump(tag_101)\n    tag_102:\n      dup3\n      add\n      swap2\n      swap1\n      0x00\n      mstore\n      keccak256(0x00, 0x20)\n      swap1\n    tag_103:\n      dup2\n      sload\n      dup2\n      mstore\n      swap1\n      0x01\n      add\n      swap1\n      0x20\n      add\n      dup1\n      dup4\n      gt\n      tag_103\n      jumpi\n      dup3\n      swap1\n      sub\n      0x1f\n      and\n      dup3\n      add\n      swap2\n    tag_101:\n      pop\n      pop\n      pop\n      pop\n      pop\n      swap1\n      pop\n      swap6\n      pop\n      swap6\n      pop\n      swap6\n      pop\n      swap6\n      pop\n      swap6\n      pop\n      pop\n        /* \"backend/contracts/Certification.sol\":2820:3451  function getCertificate(... */\n      swap2\n      swap4\n      swap6\n      swap1\n      swap3\n      swap5\n      pop\n      jump\t// out\n        /* \"backend/contracts/Certification.sol\":1363:2814  function addCertificate(... */\n    tag_35:\n        /* \"backend/contracts/Certification.sol\":811:812  0 */\n      0x00\n        /* \"backend/contracts/Certification.sol\":764:787  authorizedOrganizations */\n      0x01\n        /* \"backend/contracts/Certification.sol\":764:799  authorizedOrganizations[msg.sender] */\n      0x00\n        /* \"backend/contracts/Certification.sol\":788:798  msg.sender */\n      caller\n        /* \"backend/contracts/Certification.sol\":764:799  authorizedOrganizations[msg.sender] */\n      0xffffffffffffffffffffffffffffffffffffffff\n      and\n      0xffffffffffffffffffffffffffffffffffffffff\n      and\n      dup2\n      mstore\n      0x20\n      add\n      swap1\n      dup2\n      mstore\n      0x20\n      add\n      0x00\n      keccak256\n        /* \"backend/contracts/Certification.sol\":758:807  bytes(authorizedOrganizations[msg.sender]).length */\n      dup1\n      sload\n      tag_105\n      swap1\n      tag_40\n      jump\t// in\n    tag_105:\n      swap1\n      pop\n        /* \"backend/contracts/Certification.sol\":758:812  bytes(authorizedOrganizations[msg.sender]).length != 0 */\n      sub\n        /* \"backend/contracts/Certification.sol\":750:857  require(bytes(authorizedOrganizations[msg.sender]).length != 0, \"Caller is not an authorized organization\") */\n      tag_106\n      jumpi\n      mload(0x40)\n      0x08c379a000000000000000000000000000000000000000000000000000000000\n      dup2\n      mstore\n      0x04\n      add\n      tag_107\n      swap1\n      tag_108\n      jump\t// in\n    tag_107:\n      mload(0x40)\n      dup1\n      swap2\n      sub\n      swap1\n      revert\n    tag_106:\n        /* \"backend/contracts/Certification.sol\":1687:1688  0 */\n      0x00\n        /* \"backend/contracts/Certification.sol\":1661:1676  _certificate_id */\n      dup7\n        /* \"backend/contracts/Certification.sol\":1655:1684  bytes(_certificate_id).length */\n      mload\n        /* \"backend/contracts/Certification.sol\":1655:1688  bytes(_certificate_id).length > 0 */\n      gt\n        /* \"backend/contracts/Certification.sol\":1647:1723  require(bytes(_certificate_id).length > 0, \"Certificate ID cannot be empty\") */\n      tag_110\n      jumpi\n      mload(0x40)\n      0x08c379a000000000000000000000000000000000000000000000000000000000\n      dup2\n      mstore\n      0x04\n      add\n      tag_111\n      swap1\n      tag_112\n      jump\t// in\n    tag_111:\n      mload(0x40)\n      dup1\n      swap2\n      sub\n      swap1\n      revert\n    tag_110:\n        /* \"backend/contracts/Certification.sol\":1773:1774  0 */\n      0x00\n        /* \"backend/contracts/Certification.sol\":1747:1762  _candidate_name */\n      dup6\n        /* \"backend/contracts/Certification.sol\":1741:1770  bytes(_candidate_name).length */\n      mload\n        /* \"backend/contracts/Certification.sol\":1741:1774  bytes(_candidate_name).length > 0 */\n      gt\n        /* \"backend/contracts/Certification.sol\":1733:1809  require(bytes(_candidate_name).length > 0, \"Candidate name cannot be empty\") */\n      tag_113\n      jumpi\n      mload(0x40)\n      0x08c379a000000000000000000000000000000000000000000000000000000000\n      dup2\n      mstore\n      0x04\n      add\n      tag_114\n      swap1\n      tag_115\n      jump\t// in\n    tag_114:\n      mload(0x40)\n      dup1\n      swap2\n      sub\n      swap1\n      revert\n    tag_113:\n        /* \"backend/contracts/Certification.sol\":1863:1864  0 */\n      0x00\n        /* \"backend/contracts/Certification.sol\":1833:1852  _certification_name */\n      dup5\n        /* \"backend/contracts/Certification.sol\":1827:1860  bytes(_certification_name).length */\n      mload\n        /* \"backend/contracts/Certification.sol\":1827:1864  bytes(_certification_name).length > 0 */\n      gt\n        /* \"backend/contracts/Certification.sol\":1819:1903  require(bytes(_certification_name).length > 0, \"Certification name cannot be empty\") */\n      tag_116\n      jumpi\n      mload(0x40)\n      0x08c379a000000000000000000000000000000000000000000000000000000000\n      dup2\n      mstore\n      0x04\n      add\n      tag_117\n      swap1\n      tag_118\n      jump\t// in\n    tag_117:\n      mload(0x40)\n      dup1\n      swap2\n      sub\n      swap1\n      revert\n    tag_116:\n        /* \"backend/contracts/Certification.sol\":1947:1948  0 */\n      0x00\n        /* \"backend/contracts/Certification.sol\":1927:1936  _org_name */\n      dup4\n        /* \"backend/contracts/Certification.sol\":1921:1944  bytes(_org_name).length */\n      mload\n        /* \"backend/contracts/Certification.sol\":1921:1948  bytes(_org_name).length > 0 */\n      gt\n        /* \"backend/contracts/Certification.sol\":1913:1986  require(bytes(_org_name).length > 0, \"Organization name cannot be empty\") */\n      tag_119\n      jumpi\n      mload(0x40)\n      0x08c379a000000000000000000000000000000000000000000000000000000000\n      dup2\n      mstore\n      0x04\n      add\n      tag_120\n      swap1\n      tag_121\n      jump\t// in\n    tag_120:\n      mload(0x40)\n      dup1\n      swap2\n      sub\n      swap1\n      revert\n    tag_119:\n        /* \"backend/contracts/Certification.sol\":2021:2022  0 */\n      0x00\n        /* \"backend/contracts/Certification.sol\":2004:2018  _emission_date */\n      dup3\n        /* \"backend/contracts/Certification.sol\":2004:2022  _emission_date > 0 */\n      gt\n        /* \"backend/contracts/Certification.sol\":1996:2054  require(_emission_date > 0, \"Emission date must be valid\") */\n      tag_122\n      jumpi\n      mload(0x40)\n      0x08c379a000000000000000000000000000000000000000000000000000000000\n      dup2\n      mstore\n      0x04\n      add\n      tag_123\n      swap1\n      tag_124\n      jump\t// in\n    tag_123:\n      mload(0x40)\n      dup1\n      swap2\n      sub\n      swap1\n      revert\n    tag_122:\n        /* \"backend/contracts/Certification.sol\":2099:2100  0 */\n      0x00\n        /* \"backend/contracts/Certification.sol\":2078:2088  _ipfs_hash */\n      dup2\n        /* \"backend/contracts/Certification.sol\":2072:2096  bytes(_ipfs_hash).length */\n      mload\n        /* \"backend/contracts/Certification.sol\":2072:2100  bytes(_ipfs_hash).length > 0 */\n      gt\n        /* \"backend/contracts/Certification.sol\":2064:2130  require(bytes(_ipfs_hash).length > 0, \"IPFS hash cannot be empty\") */\n      tag_125\n      jumpi\n      mload(0x40)\n      0x08c379a000000000000000000000000000000000000000000000000000000000\n      dup2\n      mstore\n      0x04\n      add\n      tag_126\n      swap1\n      tag_127\n      jump\t// in\n    tag_126:\n      mload(0x40)\n      dup1\n      swap2\n      sub\n      swap1\n      revert\n    tag_125:\n        /* \"backend/contracts/Certification.sol\":2218:2219  0 */\n      0x00\n        /* \"backend/contracts/Certification.sol\":2167:2179  certificates */\n      0x00\n        /* \"backend/contracts/Certification.sol\":2180:2195  _certificate_id */\n      dup8\n        /* \"backend/contracts/Certification.sol\":2167:2196  certificates[_certificate_id] */\n      mload(0x40)\n      tag_128\n      swap2\n      swap1\n      tag_38\n      jump\t// in\n    tag_128:\n      swap1\n      dup2\n      mstore\n      0x20\n      add\n      mload(0x40)\n      dup1\n      swap2\n      sub\n      swap1\n      keccak256\n        /* \"backend/contracts/Certification.sol\":2167:2206  certificates[_certificate_id].ipfs_hash */\n      0x04\n      add\n        /* \"backend/contracts/Certification.sol\":2161:2214  bytes(certificates[_certificate_id].ipfs_hash).length */\n      dup1\n      sload\n      tag_129\n      swap1\n      tag_40\n      jump\t// in\n    tag_129:\n      swap1\n      pop\n        /* \"backend/contracts/Certification.sol\":2161:2219  bytes(certificates[_certificate_id].ipfs_hash).length == 0 */\n      eq\n        /* \"backend/contracts/Certification.sol\":2140:2284  require(... */\n      tag_130\n      jumpi\n      mload(0x40)\n      0x08c379a000000000000000000000000000000000000000000000000000000000\n      dup2\n      mstore\n      0x04\n      add\n      tag_131\n      swap1\n      tag_132\n      jump\t// in\n    tag_131:\n      mload(0x40)\n      dup1\n      swap2\n      sub\n      swap1\n      revert\n    tag_130:\n        /* \"backend/contracts/Certification.sol\":2388:2397  _org_name */\n      dup3\n        /* \"backend/contracts/Certification.sol\":2372:2399  keccak256(bytes(_org_name)) */\n      dup1\n      mload\n      swap1\n      0x20\n      add\n      keccak256\n        /* \"backend/contracts/Certification.sol\":2331:2354  authorizedOrganizations */\n      0x01\n        /* \"backend/contracts/Certification.sol\":2331:2366  authorizedOrganizations[msg.sender] */\n      0x00\n        /* \"backend/contracts/Certification.sol\":2355:2365  msg.sender */\n      caller\n        /* \"backend/contracts/Certification.sol\":2331:2366  authorizedOrganizations[msg.sender] */\n      0xffffffffffffffffffffffffffffffffffffffff\n      and\n      0xffffffffffffffffffffffffffffffffffffffff\n      and\n      dup2\n      mstore\n      0x20\n      add\n      swap1\n      dup2\n      mstore\n      0x20\n      add\n      0x00\n      keccak256\n        /* \"backend/contracts/Certification.sol\":2315:2368  keccak256(bytes(authorizedOrganizations[msg.sender])) */\n      mload(0x40)\n      tag_133\n      swap2\n      swap1\n      tag_134\n      jump\t// in\n    tag_133:\n      mload(0x40)\n      dup1\n      swap2\n      sub\n      swap1\n      keccak256\n        /* \"backend/contracts/Certification.sol\":2315:2399  keccak256(bytes(authorizedOrganizations[msg.sender])) == keccak256(bytes(_org_name)) */\n      eq\n        /* \"backend/contracts/Certification.sol\":2294:2480  require(... */\n      tag_135\n      jumpi\n      mload(0x40)\n      0x08c379a000000000000000000000000000000000000000000000000000000000\n      dup2\n      mstore\n      0x04\n      add\n      tag_136\n      swap1\n      tag_137\n      jump\t// in\n    tag_136:\n      mload(0x40)\n      dup1\n      swap2\n      sub\n      swap1\n      revert\n    tag_135:\n        /* \"backend/contracts/Certification.sol\":2522:2754  Certificate({... */\n      mload(0x40)\n      dup1\n      0xa0\n      add\n      0x40\n      mstore\n      dup1\n        /* \"backend/contracts/Certification.sol\":2564:2579  _candidate_name */\n      dup7\n        /* \"backend/contracts/Certification.sol\":2522:2754  Certificate({... */\n      dup2\n      mstore\n      0x20\n      add\n        /* \"backend/contracts/Certification.sol\":2613:2632  _certification_name */\n      dup6\n        /* \"backend/contracts/Certification.sol\":2522:2754  Certificate({... */\n      dup2\n      mstore\n      0x20\n      add\n        /* \"backend/contracts/Certification.sol\":2656:2665  _org_name */\n      dup5\n        /* \"backend/contracts/Certification.sol\":2522:2754  Certificate({... */\n      dup2\n      mstore\n      0x20\n      add\n        /* \"backend/contracts/Certification.sol\":2694:2708  _emission_date */\n      dup4\n        /* \"backend/contracts/Certification.sol\":2522:2754  Certificate({... */\n      dup2\n      mstore\n      0x20\n      add\n        /* \"backend/contracts/Certification.sol\":2733:2743  _ipfs_hash */\n      dup3\n        /* \"backend/contracts/Certification.sol\":2522:2754  Certificate({... */\n      dup2\n      mstore\n      pop\n        /* \"backend/contracts/Certification.sol\":2490:2502  certificates */\n      0x00\n        /* \"backend/contracts/Certification.sol\":2503:2518  _certificate_id */\n      dup8\n        /* \"backend/contracts/Certification.sol\":2490:2519  certificates[_certificate_id] */\n      mload(0x40)\n      tag_138\n      swap2\n      swap1\n      tag_38\n      jump\t// in\n    tag_138:\n      swap1\n      dup2\n      mstore\n      0x20\n      add\n      mload(0x40)\n      dup1\n      swap2\n      sub\n      swap1\n      keccak256\n        /* \"backend/contracts/Certification.sol\":2490:2754  certificates[_certificate_id] = Certificate({... */\n      0x00\n      dup3\n      add\n      mload\n      dup2\n      0x00\n      add\n      swap1\n      dup2\n      tag_139\n      swap2\n      swap1\n      tag_67\n      jump\t// in\n    tag_139:\n      pop\n      0x20\n      dup3\n      add\n      mload\n      dup2\n      0x01\n      add\n      swap1\n      dup2\n      tag_140\n      swap2\n      swap1\n      tag_67\n      jump\t// in\n    tag_140:\n      pop\n      0x40\n      dup3\n      add\n      mload\n      dup2\n      0x02\n      add\n      swap1\n      dup2\n      tag_141\n      swap2\n      swap1\n      tag_67\n      jump\t// in\n    tag_141:\n      pop\n      0x60\n      dup3\n      add\n      mload\n      dup2\n      0x03\n      add\n      sstore\n      0x80\n      dup3\n      add\n      mload\n      dup2\n      0x04\n      add\n      swap1\n      dup2\n      tag_142\n      swap2\n      swap1\n      tag_67\n      jump\t// in\n    tag_142:\n      pop\n      swap1\n      pop\n      pop\n        /* \"backend/contracts/Certification.sol\":2770:2807  CertificateGenerated(_certificate_id) */\n      0x45c2c0e31a5df12dde47f46b104ed706b348f37c21123e21f674930d20ed16c5\n        /* \"backend/contracts/Certification.sol\":2791:2806  _certificate_id */\n      dup7\n        /* \"backend/contracts/Certification.sol\":2770:2807  CertificateGenerated(_certificate_id) */\n      mload(0x40)\n      tag_143\n      swap2\n      swap1\n      tag_144\n      jump\t// in\n    tag_143:\n      mload(0x40)\n      dup1\n      swap2\n      sub\n      swap1\n      log1\n        /* \"backend/contracts/Certification.sol\":1363:2814  function addCertificate(... */\n      pop\n      pop\n      pop\n      pop\n      pop\n      pop\n      jump\t// out\n    tag_75:\n      pop\n      dup1\n      sload\n      tag_145\n      swap1\n      tag_40\n      jump\t// in\n    tag_145:\n      0x00\n      dup3\n      sstore\n      dup1\n      0x1f\n      lt\n      tag_147\n      jumpi\n      pop\n      jump(tag_146)\n    tag_147:\n      0x1f\n      add\n      0x20\n      swap1\n      div\n      swap1\n      0x00\n      mstore\n      keccak256(0x00, 0x20)\n      swap1\n      dup2\n      add\n      swap1\n      tag_148\n      swap2\n      swap1\n      tag_149\n      jump\t// in\n    tag_148:\n    tag_146:\n      pop\n      jump\t// out\n    tag_149:\n    tag_150:\n      dup1\n      dup3\n      gt\n      iszero\n      tag_151\n      jumpi\n      0x00\n      dup2\n      0x00\n      swap1\n      sstore\n      pop\n      0x01\n      add\n      jump(tag_150)\n    tag_151:\n      pop\n      swap1\n      jump\t// out\n        /* \"#utility.yul\":7:82   */\n    tag_152:\n        /* \"#utility.yul\":40:46   */\n      0x00\n        /* \"#utility.yul\":73:75   */\n      0x40\n        /* \"#utility.yul\":67:76   */\n      mload\n        /* \"#utility.yul\":57:76   */\n      swap1\n      pop\n        /* \"#utility.yul\":7:82   */\n      swap1\n      jump\t// out\n        /* \"#utility.yul\":88:205   */\n    tag_153:\n        /* \"#utility.yul\":197:198   */\n      0x00\n        /* \"#utility.yul\":194:195   */\n      0x00\n        /* \"#utility.yul\":187:199   */\n      revert\n        /* \"#utility.yul\":211:328   */\n    tag_154:\n        /* \"#utility.yul\":320:321   */\n      0x00\n        /* \"#utility.yul\":317:318   */\n      0x00\n        /* \"#utility.yul\":310:322   */\n      revert\n        /* \"#utility.yul\":334:451   */\n    tag_155:\n        /* \"#utility.yul\":443:444   */\n      0x00\n        /* \"#utility.yul\":440:441   */\n      0x00\n        /* \"#utility.yul\":433:445   */\n      revert\n        /* \"#utility.yul\":457:574   */\n    tag_156:\n        /* \"#utility.yul\":566:567   */\n      0x00\n        /* \"#utility.yul\":563:564   */\n      0x00\n        /* \"#utility.yul\":556:568   */\n      revert\n        /* \"#utility.yul\":580:682   */\n    tag_157:\n        /* \"#utility.yul\":621:627   */\n      0x00\n        /* \"#utility.yul\":672:674   */\n      0x1f\n        /* \"#utility.yul\":668:675   */\n      not\n        /* \"#utility.yul\":663:665   */\n      0x1f\n        /* \"#utility.yul\":656:661   */\n      dup4\n        /* \"#utility.yul\":652:666   */\n      add\n        /* \"#utility.yul\":648:676   */\n      and\n        /* \"#utility.yul\":638:676   */\n      swap1\n      pop\n        /* \"#utility.yul\":580:682   */\n      swap2\n      swap1\n      pop\n      jump\t// out\n        /* \"#utility.yul\":688:868   */\n    tag_158:\n        /* \"#utility.yul\":736:813   */\n      0x4e487b7100000000000000000000000000000000000000000000000000000000\n        /* \"#utility.yul\":733:734   */\n      0x00\n        /* \"#utility.yul\":726:814   */\n      mstore\n        /* \"#utility.yul\":833:837   */\n      0x41\n        /* \"#utility.yul\":830:831   */\n      0x04\n        /* \"#utility.yul\":823:838   */\n      mstore\n        /* \"#utility.yul\":857:861   */\n      0x24\n        /* \"#utility.yul\":854:855   */\n      0x00\n        /* \"#utility.yul\":847:862   */\n      revert\n        /* \"#utility.yul\":874:1155   */\n    tag_159:\n        /* \"#utility.yul\":957:984   */\n      tag_232\n        /* \"#utility.yul\":979:983   */\n      dup3\n        /* \"#utility.yul\":957:984   */\n      tag_157\n      jump\t// in\n    tag_232:\n        /* \"#utility.yul\":949:955   */\n      dup2\n        /* \"#utility.yul\":945:985   */\n      add\n        /* \"#utility.yul\":1087:1093   */\n      dup2\n        /* \"#utility.yul\":1075:1085   */\n      dup2\n        /* \"#utility.yul\":1072:1094   */\n      lt\n        /* \"#utility.yul\":1051:1069   */\n      0xffffffffffffffff\n        /* \"#utility.yul\":1039:1049   */\n      dup3\n        /* \"#utility.yul\":1036:1070   */\n      gt\n        /* \"#utility.yul\":1033:1095   */\n      or\n        /* \"#utility.yul\":1030:1118   */\n      iszero\n      tag_233\n      jumpi\n        /* \"#utility.yul\":1098:1116   */\n      tag_234\n      tag_158\n      jump\t// in\n    tag_234:\n        /* \"#utility.yul\":1030:1118   */\n    tag_233:\n        /* \"#utility.yul\":1138:1148   */\n      dup1\n        /* \"#utility.yul\":1134:1136   */\n      0x40\n        /* \"#utility.yul\":1127:1149   */\n      mstore\n        /* \"#utility.yul\":917:1155   */\n      pop\n        /* \"#utility.yul\":874:1155   */\n      pop\n      pop\n      jump\t// out\n        /* \"#utility.yul\":1161:1290   */\n    tag_160:\n        /* \"#utility.yul\":1195:1201   */\n      0x00\n        /* \"#utility.yul\":1222:1242   */\n      tag_236\n      tag_152\n      jump\t// in\n    tag_236:\n        /* \"#utility.yul\":1212:1242   */\n      swap1\n      pop\n        /* \"#utility.yul\":1251:1284   */\n      tag_237\n        /* \"#utility.yul\":1279:1283   */\n      dup3\n        /* \"#utility.yul\":1271:1277   */\n      dup3\n        /* \"#utility.yul\":1251:1284   */\n      tag_159\n      jump\t// in\n    tag_237:\n        /* \"#utility.yul\":1161:1290   */\n      swap2\n      swap1\n      pop\n      jump\t// out\n        /* \"#utility.yul\":1296:1604   */\n    tag_161:\n        /* \"#utility.yul\":1358:1362   */\n      0x00\n        /* \"#utility.yul\":1448:1466   */\n      0xffffffffffffffff\n        /* \"#utility.yul\":1440:1446   */\n      dup3\n        /* \"#utility.yul\":1437:1467   */\n      gt\n        /* \"#utility.yul\":1434:1490   */\n      iszero\n      tag_239\n      jumpi\n        /* \"#utility.yul\":1470:1488   */\n      tag_240\n      tag_158\n      jump\t// in\n    tag_240:\n        /* \"#utility.yul\":1434:1490   */\n    tag_239:\n        /* \"#utility.yul\":1508:1537   */\n      tag_241\n        /* \"#utility.yul\":1530:1536   */\n      dup3\n        /* \"#utility.yul\":1508:1537   */\n      tag_157\n      jump\t// in\n    tag_241:\n        /* \"#utility.yul\":1500:1537   */\n      swap1\n      pop\n        /* \"#utility.yul\":1592:1596   */\n      0x20\n        /* \"#utility.yul\":1586:1590   */\n      dup2\n        /* \"#utility.yul\":1582:1597   */\n      add\n        /* \"#utility.yul\":1574:1597   */\n      swap1\n      pop\n        /* \"#utility.yul\":1296:1604   */\n      swap2\n      swap1\n      pop\n      jump\t// out\n        /* \"#utility.yul\":1610:1758   */\n    tag_162:\n        /* \"#utility.yul\":1708:1714   */\n      dup3\n        /* \"#utility.yul\":1703:1706   */\n      dup2\n        /* \"#utility.yul\":1698:1701   */\n      dup4\n        /* \"#utility.yul\":1685:1715   */\n      calldatacopy\n        /* \"#utility.yul\":1749:1750   */\n      0x00\n        /* \"#utility.yul\":1740:1746   */\n      dup4\n        /* \"#utility.yul\":1735:1738   */\n      dup4\n        /* \"#utility.yul\":1731:1747   */\n      add\n        /* \"#utility.yul\":1724:1751   */\n      mstore\n        /* \"#utility.yul\":1610:1758   */\n      pop\n      pop\n      pop\n      jump\t// out\n        /* \"#utility.yul\":1764:2189   */\n    tag_163:\n        /* \"#utility.yul\":1842:1847   */\n      0x00\n        /* \"#utility.yul\":1867:1933   */\n      tag_244\n        /* \"#utility.yul\":1883:1932   */\n      tag_245\n        /* \"#utility.yul\":1925:1931   */\n      dup5\n        /* \"#utility.yul\":1883:1932   */\n      tag_161\n      jump\t// in\n    tag_245:\n        /* \"#utility.yul\":1867:1933   */\n      tag_160\n      jump\t// in\n    tag_244:\n        /* \"#utility.yul\":1858:1933   */\n      swap1\n      pop\n        /* \"#utility.yul\":1956:1962   */\n      dup3\n        /* \"#utility.yul\":1949:1954   */\n      dup2\n        /* \"#utility.yul\":1942:1963   */\n      mstore\n        /* \"#utility.yul\":1994:1998   */\n      0x20\n        /* \"#utility.yul\":1987:1992   */\n      dup2\n        /* \"#utility.yul\":1983:1999   */\n      add\n        /* \"#utility.yul\":2032:2035   */\n      dup5\n        /* \"#utility.yul\":2023:2029   */\n      dup5\n        /* \"#utility.yul\":2018:2021   */\n      dup5\n        /* \"#utility.yul\":2014:2030   */\n      add\n        /* \"#utility.yul\":2011:2036   */\n      gt\n        /* \"#utility.yul\":2008:2120   */\n      iszero\n      tag_246\n      jumpi\n        /* \"#utility.yul\":2039:2118   */\n      tag_247\n      tag_156\n      jump\t// in\n    tag_247:\n        /* \"#utility.yul\":2008:2120   */\n    tag_246:\n        /* \"#utility.yul\":2129:2183   */\n      tag_248\n        /* \"#utility.yul\":2176:2182   */\n      dup5\n        /* \"#utility.yul\":2171:2174   */\n      dup3\n        /* \"#utility.yul\":2166:2169   */\n      dup6\n        /* \"#utility.yul\":2129:2183   */\n      tag_162\n      jump\t// in\n    tag_248:\n        /* \"#utility.yul\":1848:2189   */\n      pop\n        /* \"#utility.yul\":1764:2189   */\n      swap4\n      swap3\n      pop\n      pop\n      pop\n      jump\t// out\n        /* \"#utility.yul\":2209:2549   */\n    tag_164:\n        /* \"#utility.yul\":2265:2270   */\n      0x00\n        /* \"#utility.yul\":2314:2317   */\n      dup3\n        /* \"#utility.yul\":2307:2311   */\n      0x1f\n        /* \"#utility.yul\":2299:2305   */\n      dup4\n        /* \"#utility.yul\":2295:2312   */\n      add\n        /* \"#utility.yul\":2291:2318   */\n      slt\n        /* \"#utility.yul\":2281:2403   */\n      tag_250\n      jumpi\n        /* \"#utility.yul\":2322:2401   */\n      tag_251\n      tag_155\n      jump\t// in\n    tag_251:\n        /* \"#utility.yul\":2281:2403   */\n    tag_250:\n        /* \"#utility.yul\":2439:2445   */\n      dup2\n        /* \"#utility.yul\":2426:2446   */\n      calldataload\n        /* \"#utility.yul\":2464:2543   */\n      tag_252\n        /* \"#utility.yul\":2539:2542   */\n      dup5\n        /* \"#utility.yul\":2531:2537   */\n      dup3\n        /* \"#utility.yul\":2524:2528   */\n      0x20\n        /* \"#utility.yul\":2516:2522   */\n      dup7\n        /* \"#utility.yul\":2512:2529   */\n      add\n        /* \"#utility.yul\":2464:2543   */\n      tag_163\n      jump\t// in\n    tag_252:\n        /* \"#utility.yul\":2455:2543   */\n      swap2\n      pop\n        /* \"#utility.yul\":2271:2549   */\n      pop\n        /* \"#utility.yul\":2209:2549   */\n      swap3\n      swap2\n      pop\n      pop\n      jump\t// out\n        /* \"#utility.yul\":2555:3064   */\n    tag_11:\n        /* \"#utility.yul\":2624:2630   */\n      0x00\n        /* \"#utility.yul\":2673:2675   */\n      0x20\n        /* \"#utility.yul\":2661:2670   */\n      dup3\n        /* \"#utility.yul\":2652:2659   */\n      dup5\n        /* \"#utility.yul\":2648:2671   */\n      sub\n        /* \"#utility.yul\":2644:2676   */\n      slt\n        /* \"#utility.yul\":2641:2760   */\n      iszero\n      tag_254\n      jumpi\n        /* \"#utility.yul\":2679:2758   */\n      tag_255\n      tag_153\n      jump\t// in\n    tag_255:\n        /* \"#utility.yul\":2641:2760   */\n    tag_254:\n        /* \"#utility.yul\":2827:2828   */\n      0x00\n        /* \"#utility.yul\":2816:2825   */\n      dup3\n        /* \"#utility.yul\":2812:2829   */\n      add\n        /* \"#utility.yul\":2799:2830   */\n      calldataload\n        /* \"#utility.yul\":2857:2875   */\n      0xffffffffffffffff\n        /* \"#utility.yul\":2849:2855   */\n      dup2\n        /* \"#utility.yul\":2846:2876   */\n      gt\n        /* \"#utility.yul\":2843:2960   */\n      iszero\n      tag_256\n      jumpi\n        /* \"#utility.yul\":2879:2958   */\n      tag_257\n      tag_154\n      jump\t// in\n    tag_257:\n        /* \"#utility.yul\":2843:2960   */\n    tag_256:\n        /* \"#utility.yul\":2984:3047   */\n      tag_258\n        /* \"#utility.yul\":3039:3046   */\n      dup5\n        /* \"#utility.yul\":3030:3036   */\n      dup3\n        /* \"#utility.yul\":3019:3028   */\n      dup6\n        /* \"#utility.yul\":3015:3037   */\n      add\n        /* \"#utility.yul\":2984:3047   */\n      tag_164\n      jump\t// in\n    tag_258:\n        /* \"#utility.yul\":2974:3047   */\n      swap2\n      pop\n        /* \"#utility.yul\":2770:3057   */\n      pop\n        /* \"#utility.yul\":2555:3064   */\n      swap3\n      swap2\n      pop\n      pop\n      jump\t// out\n        /* \"#utility.yul\":3070:3160   */\n    tag_165:\n        /* \"#utility.yul\":3104:3111   */\n      0x00\n        /* \"#utility.yul\":3147:3152   */\n      dup2\n        /* \"#utility.yul\":3140:3153   */\n      iszero\n        /* \"#utility.yul\":3133:3154   */\n      iszero\n        /* \"#utility.yul\":3122:3154   */\n      swap1\n      pop\n        /* \"#utility.yul\":3070:3160   */\n      swap2\n      swap1\n      pop\n      jump\t// out\n        /* \"#utility.yul\":3166:3275   */\n    tag_166:\n        /* \"#utility.yul\":3247:3268   */\n      tag_261\n        /* \"#utility.yul\":3262:3267   */\n      dup2\n        /* \"#utility.yul\":3247:3268   */\n      tag_165\n      jump\t// in\n    tag_261:\n        /* \"#utility.yul\":3242:3245   */\n      dup3\n        /* \"#utility.yul\":3235:3269   */\n      mstore\n        /* \"#utility.yul\":3166:3275   */\n      pop\n      pop\n      jump\t// out\n        /* \"#utility.yul\":3281:3491   */\n    tag_14:\n        /* \"#utility.yul\":3368:3372   */\n      0x00\n        /* \"#utility.yul\":3406:3408   */\n      0x20\n        /* \"#utility.yul\":3395:3404   */\n      dup3\n        /* \"#utility.yul\":3391:3409   */\n      add\n        /* \"#utility.yul\":3383:3409   */\n      swap1\n      pop\n        /* \"#utility.yul\":3419:3484   */\n      tag_263\n        /* \"#utility.yul\":3481:3482   */\n      0x00\n        /* \"#utility.yul\":3470:3479   */\n      dup4\n        /* \"#utility.yul\":3466:3483   */\n      add\n        /* \"#utility.yul\":3457:3463   */\n      dup5\n        /* \"#utility.yul\":3419:3484   */\n      tag_166\n      jump\t// in\n    tag_263:\n        /* \"#utility.yul\":3281:3491   */\n      swap3\n      swap2\n      pop\n      pop\n      jump\t// out\n        /* \"#utility.yul\":3497:3596   */\n    tag_167:\n        /* \"#utility.yul\":3549:3555   */\n      0x00\n        /* \"#utility.yul\":3583:3588   */\n      dup2\n        /* \"#utility.yul\":3577:3589   */\n      mload\n        /* \"#utility.yul\":3567:3589   */\n      swap1\n      pop\n        /* \"#utility.yul\":3497:3596   */\n      swap2\n      swap1\n      pop\n      jump\t// out\n        /* \"#utility.yul\":3602:3771   */\n    tag_168:\n        /* \"#utility.yul\":3686:3697   */\n      0x00\n        /* \"#utility.yul\":3720:3726   */\n      dup3\n        /* \"#utility.yul\":3715:3718   */\n      dup3\n        /* \"#utility.yul\":3708:3727   */\n      mstore\n        /* \"#utility.yul\":3760:3764   */\n      0x20\n        /* \"#utility.yul\":3755:3758   */\n      dup3\n        /* \"#utility.yul\":3751:3765   */\n      add\n        /* \"#utility.yul\":3736:3765   */\n      swap1\n      pop\n        /* \"#utility.yul\":3602:3771   */\n      swap3\n      swap2\n      pop\n      pop\n      jump\t// out\n        /* \"#utility.yul\":3777:3916   */\n    tag_169:\n        /* \"#utility.yul\":3866:3872   */\n      dup3\n        /* \"#utility.yul\":3861:3864   */\n      dup2\n        /* \"#utility.yul\":3856:3859   */\n      dup4\n        /* \"#utility.yul\":3850:3873   */\n      mcopy\n        /* \"#utility.yul\":3907:3908   */\n      0x00\n        /* \"#utility.yul\":3898:3904   */\n      dup4\n        /* \"#utility.yul\":3893:3896   */\n      dup4\n        /* \"#utility.yul\":3889:3905   */\n      add\n        /* \"#utility.yul\":3882:3909   */\n      mstore\n        /* \"#utility.yul\":3777:3916   */\n      pop\n      pop\n      pop\n      jump\t// out\n        /* \"#utility.yul\":3922:4299   */\n    tag_170:\n        /* \"#utility.yul\":4010:4013   */\n      0x00\n        /* \"#utility.yul\":4038:4077   */\n      tag_268\n        /* \"#utility.yul\":4071:4076   */\n      dup3\n        /* \"#utility.yul\":4038:4077   */\n      tag_167\n      jump\t// in\n    tag_268:\n        /* \"#utility.yul\":4093:4164   */\n      tag_269\n        /* \"#utility.yul\":4157:4163   */\n      dup2\n        /* \"#utility.yul\":4152:4155   */\n      dup6\n        /* \"#utility.yul\":4093:4164   */\n      tag_168\n      jump\t// in\n    tag_269:\n        /* \"#utility.yul\":4086:4164   */\n      swap4\n      pop\n        /* \"#utility.yul\":4173:4238   */\n      tag_270\n        /* \"#utility.yul\":4231:4237   */\n      dup2\n        /* \"#utility.yul\":4226:4229   */\n      dup6\n        /* \"#utility.yul\":4219:4223   */\n      0x20\n        /* \"#utility.yul\":4212:4217   */\n      dup7\n        /* \"#utility.yul\":4208:4224   */\n      add\n        /* \"#utility.yul\":4173:4238   */\n      tag_169\n      jump\t// in\n    tag_270:\n        /* \"#utility.yul\":4263:4292   */\n      tag_271\n        /* \"#utility.yul\":4285:4291   */\n      dup2\n        /* \"#utility.yul\":4263:4292   */\n      tag_157\n      jump\t// in\n    tag_271:\n        /* \"#utility.yul\":4258:4261   */\n      dup5\n        /* \"#utility.yul\":4254:4293   */\n      add\n        /* \"#utility.yul\":4247:4293   */\n      swap2\n      pop\n        /* \"#utility.yul\":4014:4299   */\n      pop\n        /* \"#utility.yul\":3922:4299   */\n      swap3\n      swap2\n      pop\n      pop\n      jump\t// out\n        /* \"#utility.yul\":4305:4382   */\n    tag_171:\n        /* \"#utility.yul\":4342:4349   */\n      0x00\n        /* \"#utility.yul\":4371:4376   */\n      dup2\n        /* \"#utility.yul\":4360:4376   */\n      swap1\n      pop\n        /* \"#utility.yul\":4305:4382   */\n      swap2\n      swap1\n      pop\n      jump\t// out\n        /* \"#utility.yul\":4388:4506   */\n    tag_172:\n        /* \"#utility.yul\":4475:4499   */\n      tag_274\n        /* \"#utility.yul\":4493:4498   */\n      dup2\n        /* \"#utility.yul\":4475:4499   */\n      tag_171\n      jump\t// in\n    tag_274:\n        /* \"#utility.yul\":4470:4473   */\n      dup3\n        /* \"#utility.yul\":4463:4500   */\n      mstore\n        /* \"#utility.yul\":4388:4506   */\n      pop\n      pop\n      jump\t// out\n        /* \"#utility.yul\":4512:5540   */\n    tag_19:\n        /* \"#utility.yul\":4797:4801   */\n      0x00\n        /* \"#utility.yul\":4835:4838   */\n      0xa0\n        /* \"#utility.yul\":4824:4833   */\n      dup3\n        /* \"#utility.yul\":4820:4839   */\n      add\n        /* \"#utility.yul\":4812:4839   */\n      swap1\n      pop\n        /* \"#utility.yul\":4885:4894   */\n      dup2\n        /* \"#utility.yul\":4879:4883   */\n      dup2\n        /* \"#utility.yul\":4875:4895   */\n      sub\n        /* \"#utility.yul\":4871:4872   */\n      0x00\n        /* \"#utility.yul\":4860:4869   */\n      dup4\n        /* \"#utility.yul\":4856:4873   */\n      add\n        /* \"#utility.yul\":4849:4896   */\n      mstore\n        /* \"#utility.yul\":4913:4991   */\n      tag_276\n        /* \"#utility.yul\":4986:4990   */\n      dup2\n        /* \"#utility.yul\":4977:4983   */\n      dup9\n        /* \"#utility.yul\":4913:4991   */\n      tag_170\n      jump\t// in\n    tag_276:\n        /* \"#utility.yul\":4905:4991   */\n      swap1\n      pop\n        /* \"#utility.yul\":5038:5047   */\n      dup2\n        /* \"#utility.yul\":5032:5036   */\n      dup2\n        /* \"#utility.yul\":5028:5048   */\n      sub\n        /* \"#utility.yul\":5023:5025   */\n      0x20\n        /* \"#utility.yul\":5012:5021   */\n      dup4\n        /* \"#utility.yul\":5008:5026   */\n      add\n        /* \"#utility.yul\":5001:5049   */\n      mstore\n        /* \"#utility.yul\":5066:5144   */\n      tag_277\n        /* \"#utility.yul\":5139:5143   */\n      dup2\n        /* \"#utility.yul\":5130:5136   */\n      dup8\n        /* \"#utility.yul\":5066:5144   */\n      tag_170\n      jump\t// in\n    tag_277:\n        /* \"#utility.yul\":5058:5144   */\n      swap1\n      pop\n        /* \"#utility.yul\":5191:5200   */\n      dup2\n        /* \"#utility.yul\":5185:5189   */\n      dup2\n        /* \"#utility.yul\":5181:5201   */\n      sub\n        /* \"#utility.yul\":5176:5178   */\n      0x40\n        /* \"#utility.yul\":5165:5174   */\n      dup4\n        /* \"#utility.yul\":5161:5179   */\n      add\n        /* \"#utility.yul\":5154:5202   */\n      mstore\n        /* \"#utility.yul\":5219:5297   */\n      tag_278\n        /* \"#utility.yul\":5292:5296   */\n      dup2\n        /* \"#utility.yul\":5283:5289   */\n      dup7\n        /* \"#utility.yul\":5219:5297   */\n      tag_170\n      jump\t// in\n    tag_278:\n        /* \"#utility.yul\":5211:5297   */\n      swap1\n      pop\n        /* \"#utility.yul\":5307:5379   */\n      tag_279\n        /* \"#utility.yul\":5375:5377   */\n      0x60\n        /* \"#utility.yul\":5364:5373   */\n      dup4\n        /* \"#utility.yul\":5360:5378   */\n      add\n        /* \"#utility.yul\":5351:5357   */\n      dup6\n        /* \"#utility.yul\":5307:5379   */\n      tag_172\n      jump\t// in\n    tag_279:\n        /* \"#utility.yul\":5427:5436   */\n      dup2\n        /* \"#utility.yul\":5421:5425   */\n      dup2\n        /* \"#utility.yul\":5417:5437   */\n      sub\n        /* \"#utility.yul\":5411:5414   */\n      0x80\n        /* \"#utility.yul\":5400:5409   */\n      dup4\n        /* \"#utility.yul\":5396:5415   */\n      add\n        /* \"#utility.yul\":5389:5438   */\n      mstore\n        /* \"#utility.yul\":5455:5533   */\n      tag_280\n        /* \"#utility.yul\":5528:5532   */\n      dup2\n        /* \"#utility.yul\":5519:5525   */\n      dup5\n        /* \"#utility.yul\":5455:5533   */\n      tag_170\n      jump\t// in\n    tag_280:\n        /* \"#utility.yul\":5447:5533   */\n      swap1\n      pop\n        /* \"#utility.yul\":4512:5540   */\n      swap7\n      swap6\n      pop\n      pop\n      pop\n      pop\n      pop\n      pop\n      jump\t// out\n        /* \"#utility.yul\":5546:5672   */\n    tag_173:\n        /* \"#utility.yul\":5583:5590   */\n      0x00\n        /* \"#utility.yul\":5623:5665   */\n      0xffffffffffffffffffffffffffffffffffffffff\n        /* \"#utility.yul\":5616:5621   */\n      dup3\n        /* \"#utility.yul\":5612:5666   */\n      and\n        /* \"#utility.yul\":5601:5666   */\n      swap1\n      pop\n        /* \"#utility.yul\":5546:5672   */\n      swap2\n      swap1\n      pop\n      jump\t// out\n        /* \"#utility.yul\":5678:5774   */\n    tag_174:\n        /* \"#utility.yul\":5715:5722   */\n      0x00\n        /* \"#utility.yul\":5744:5768   */\n      tag_283\n        /* \"#utility.yul\":5762:5767   */\n      dup3\n        /* \"#utility.yul\":5744:5768   */\n      tag_173\n      jump\t// in\n    tag_283:\n        /* \"#utility.yul\":5733:5768   */\n      swap1\n      pop\n        /* \"#utility.yul\":5678:5774   */\n      swap2\n      swap1\n      pop\n      jump\t// out\n        /* \"#utility.yul\":5780:5902   */\n    tag_175:\n        /* \"#utility.yul\":5853:5877   */\n      tag_285\n        /* \"#utility.yul\":5871:5876   */\n      dup2\n        /* \"#utility.yul\":5853:5877   */\n      tag_174\n      jump\t// in\n    tag_285:\n        /* \"#utility.yul\":5846:5851   */\n      dup2\n        /* \"#utility.yul\":5843:5878   */\n      eq\n        /* \"#utility.yul\":5833:5896   */\n      tag_286\n      jumpi\n        /* \"#utility.yul\":5892:5893   */\n      0x00\n        /* \"#utility.yul\":5889:5890   */\n      0x00\n        /* \"#utility.yul\":5882:5894   */\n      revert\n        /* \"#utility.yul\":5833:5896   */\n    tag_286:\n        /* \"#utility.yul\":5780:5902   */\n      pop\n      jump\t// out\n        /* \"#utility.yul\":5908:6047   */\n    tag_176:\n        /* \"#utility.yul\":5954:5959   */\n      0x00\n        /* \"#utility.yul\":5992:5998   */\n      dup2\n        /* \"#utility.yul\":5979:5999   */\n      calldataload\n        /* \"#utility.yul\":5970:5999   */\n      swap1\n      pop\n        /* \"#utility.yul\":6008:6041   */\n      tag_288\n        /* \"#utility.yul\":6035:6040   */\n      dup2\n        /* \"#utility.yul\":6008:6041   */\n      tag_175\n      jump\t// in\n    tag_288:\n        /* \"#utility.yul\":5908:6047   */\n      swap3\n      swap2\n      pop\n      pop\n      jump\t// out\n        /* \"#utility.yul\":6053:6707   */\n    tag_22:\n        /* \"#utility.yul\":6131:6137   */\n      0x00\n        /* \"#utility.yul\":6139:6145   */\n      0x00\n        /* \"#utility.yul\":6188:6190   */\n      0x40\n        /* \"#utility.yul\":6176:6185   */\n      dup4\n        /* \"#utility.yul\":6167:6174   */\n      dup6\n        /* \"#utility.yul\":6163:6186   */\n      sub\n        /* \"#utility.yul\":6159:6191   */\n      slt\n        /* \"#utility.yul\":6156:6275   */\n      iszero\n      tag_290\n      jumpi\n        /* \"#utility.yul\":6194:6273   */\n      tag_291\n      tag_153\n      jump\t// in\n    tag_291:\n        /* \"#utility.yul\":6156:6275   */\n    tag_290:\n        /* \"#utility.yul\":6314:6315   */\n      0x00\n        /* \"#utility.yul\":6339:6392   */\n      tag_292\n        /* \"#utility.yul\":6384:6391   */\n      dup6\n        /* \"#utility.yul\":6375:6381   */\n      dup3\n        /* \"#utility.yul\":6364:6373   */\n      dup7\n        /* \"#utility.yul\":6360:6382   */\n      add\n        /* \"#utility.yul\":6339:6392   */\n      tag_176\n      jump\t// in\n    tag_292:\n        /* \"#utility.yul\":6329:6392   */\n      swap3\n      pop\n        /* \"#utility.yul\":6285:6402   */\n      pop\n        /* \"#utility.yul\":6469:6471   */\n      0x20\n        /* \"#utility.yul\":6458:6467   */\n      dup4\n        /* \"#utility.yul\":6454:6472   */\n      add\n        /* \"#utility.yul\":6441:6473   */\n      calldataload\n        /* \"#utility.yul\":6500:6518   */\n      0xffffffffffffffff\n        /* \"#utility.yul\":6492:6498   */\n      dup2\n        /* \"#utility.yul\":6489:6519   */\n      gt\n        /* \"#utility.yul\":6486:6603   */\n      iszero\n      tag_293\n      jumpi\n        /* \"#utility.yul\":6522:6601   */\n      tag_294\n      tag_154\n      jump\t// in\n    tag_294:\n        /* \"#utility.yul\":6486:6603   */\n    tag_293:\n        /* \"#utility.yul\":6627:6690   */\n      tag_295\n        /* \"#utility.yul\":6682:6689   */\n      dup6\n        /* \"#utility.yul\":6673:6679   */\n      dup3\n        /* \"#utility.yul\":6662:6671   */\n      dup7\n        /* \"#utility.yul\":6658:6680   */\n      add\n        /* \"#utility.yul\":6627:6690   */\n      tag_164\n      jump\t// in\n    tag_295:\n        /* \"#utility.yul\":6617:6690   */\n      swap2\n      pop\n        /* \"#utility.yul\":6412:6700   */\n      pop\n        /* \"#utility.yul\":6053:6707   */\n      swap3\n      pop\n      swap3\n      swap1\n      pop\n      jump\t// out\n        /* \"#utility.yul\":6713:7042   */\n    tag_26:\n        /* \"#utility.yul\":6772:6778   */\n      0x00\n        /* \"#utility.yul\":6821:6823   */\n      0x20\n        /* \"#utility.yul\":6809:6818   */\n      dup3\n        /* \"#utility.yul\":6800:6807   */\n      dup5\n        /* \"#utility.yul\":6796:6819   */\n      sub\n        /* \"#utility.yul\":6792:6824   */\n      slt\n        /* \"#utility.yul\":6789:6908   */\n      iszero\n      tag_297\n      jumpi\n        /* \"#utility.yul\":6827:6906   */\n      tag_298\n      tag_153\n      jump\t// in\n    tag_298:\n        /* \"#utility.yul\":6789:6908   */\n    tag_297:\n        /* \"#utility.yul\":6947:6948   */\n      0x00\n        /* \"#utility.yul\":6972:7025   */\n      tag_299\n        /* \"#utility.yul\":7017:7024   */\n      dup5\n        /* \"#utility.yul\":7008:7014   */\n      dup3\n        /* \"#utility.yul\":6997:7006   */\n      dup6\n        /* \"#utility.yul\":6993:7015   */\n      add\n        /* \"#utility.yul\":6972:7025   */\n      tag_176\n      jump\t// in\n    tag_299:\n        /* \"#utility.yul\":6962:7025   */\n      swap2\n      pop\n        /* \"#utility.yul\":6918:7035   */\n      pop\n        /* \"#utility.yul\":6713:7042   */\n      swap3\n      swap2\n      pop\n      pop\n      jump\t// out\n        /* \"#utility.yul\":7048:7170   */\n    tag_177:\n        /* \"#utility.yul\":7121:7145   */\n      tag_301\n        /* \"#utility.yul\":7139:7144   */\n      dup2\n        /* \"#utility.yul\":7121:7145   */\n      tag_171\n      jump\t// in\n    tag_301:\n        /* \"#utility.yul\":7114:7119   */\n      dup2\n        /* \"#utility.yul\":7111:7146   */\n      eq\n        /* \"#utility.yul\":7101:7164   */\n      tag_302\n      jumpi\n        /* \"#utility.yul\":7160:7161   */\n      0x00\n        /* \"#utility.yul\":7157:7158   */\n      0x00\n        /* \"#utility.yul\":7150:7162   */\n      revert\n        /* \"#utility.yul\":7101:7164   */\n    tag_302:\n        /* \"#utility.yul\":7048:7170   */\n      pop\n      jump\t// out\n        /* \"#utility.yul\":7176:7315   */\n    tag_178:\n        /* \"#utility.yul\":7222:7227   */\n      0x00\n        /* \"#utility.yul\":7260:7266   */\n      dup2\n        /* \"#utility.yul\":7247:7267   */\n      calldataload\n        /* \"#utility.yul\":7238:7267   */\n      swap1\n      pop\n        /* \"#utility.yul\":7276:7309   */\n      tag_304\n        /* \"#utility.yul\":7303:7308   */\n      dup2\n        /* \"#utility.yul\":7276:7309   */\n      tag_177\n      jump\t// in\n    tag_304:\n        /* \"#utility.yul\":7176:7315   */\n      swap3\n      swap2\n      pop\n      pop\n      jump\t// out\n        /* \"#utility.yul\":7321:9278   */\n    tag_34:\n        /* \"#utility.yul\":7475:7481   */\n      0x00\n        /* \"#utility.yul\":7483:7489   */\n      0x00\n        /* \"#utility.yul\":7491:7497   */\n      0x00\n        /* \"#utility.yul\":7499:7505   */\n      0x00\n        /* \"#utility.yul\":7507:7513   */\n      0x00\n        /* \"#utility.yul\":7515:7521   */\n      0x00\n        /* \"#utility.yul\":7564:7567   */\n      0xc0\n        /* \"#utility.yul\":7552:7561   */\n      dup8\n        /* \"#utility.yul\":7543:7550   */\n      dup10\n        /* \"#utility.yul\":7539:7562   */\n      sub\n        /* \"#utility.yul\":7535:7568   */\n      slt\n        /* \"#utility.yul\":7532:7652   */\n      iszero\n      tag_306\n      jumpi\n        /* \"#utility.yul\":7571:7650   */\n      tag_307\n      tag_153\n      jump\t// in\n    tag_307:\n        /* \"#utility.yul\":7532:7652   */\n    tag_306:\n        /* \"#utility.yul\":7719:7720   */\n      0x00\n        /* \"#utility.yul\":7708:7717   */\n      dup8\n        /* \"#utility.yul\":7704:7721   */\n      add\n        /* \"#utility.yul\":7691:7722   */\n      calldataload\n        /* \"#utility.yul\":7749:7767   */\n      0xffffffffffffffff\n        /* \"#utility.yul\":7741:7747   */\n      dup2\n        /* \"#utility.yul\":7738:7768   */\n      gt\n        /* \"#utility.yul\":7735:7852   */\n      iszero\n      tag_308\n      jumpi\n        /* \"#utility.yul\":7771:7850   */\n      tag_309\n      tag_154\n      jump\t// in\n    tag_309:\n        /* \"#utility.yul\":7735:7852   */\n    tag_308:\n        /* \"#utility.yul\":7876:7939   */\n      tag_310\n        /* \"#utility.yul\":7931:7938   */\n      dup10\n        /* \"#utility.yul\":7922:7928   */\n      dup3\n        /* \"#utility.yul\":7911:7920   */\n      dup11\n        /* \"#utility.yul\":7907:7929   */\n      add\n        /* \"#utility.yul\":7876:7939   */\n      tag_164\n      jump\t// in\n    tag_310:\n        /* \"#utility.yul\":7866:7939   */\n      swap7\n      pop\n        /* \"#utility.yul\":7662:7949   */\n      pop\n        /* \"#utility.yul\":8016:8018   */\n      0x20\n        /* \"#utility.yul\":8005:8014   */\n      dup8\n        /* \"#utility.yul\":8001:8019   */\n      add\n        /* \"#utility.yul\":7988:8020   */\n      calldataload\n        /* \"#utility.yul\":8047:8065   */\n      0xffffffffffffffff\n        /* \"#utility.yul\":8039:8045   */\n      dup2\n        /* \"#utility.yul\":8036:8066   */\n      gt\n        /* \"#utility.yul\":8033:8150   */\n      iszero\n      tag_311\n      jumpi\n        /* \"#utility.yul\":8069:8148   */\n      tag_312\n      tag_154\n      jump\t// in\n    tag_312:\n        /* \"#utility.yul\":8033:8150   */\n    tag_311:\n        /* \"#utility.yul\":8174:8237   */\n      tag_313\n        /* \"#utility.yul\":8229:8236   */\n      dup10\n        /* \"#utility.yul\":8220:8226   */\n      dup3\n        /* \"#utility.yul\":8209:8218   */\n      dup11\n        /* \"#utility.yul\":8205:8227   */\n      add\n        /* \"#utility.yul\":8174:8237   */\n      tag_164\n      jump\t// in\n    tag_313:\n        /* \"#utility.yul\":8164:8237   */\n      swap6\n      pop\n        /* \"#utility.yul\":7959:8247   */\n      pop\n        /* \"#utility.yul\":8314:8316   */\n      0x40\n        /* \"#utility.yul\":8303:8312   */\n      dup8\n        /* \"#utility.yul\":8299:8317   */\n      add\n        /* \"#utility.yul\":8286:8318   */\n      calldataload\n        /* \"#utility.yul\":8345:8363   */\n      0xffffffffffffffff\n        /* \"#utility.yul\":8337:8343   */\n      dup2\n        /* \"#utility.yul\":8334:8364   */\n      gt\n        /* \"#utility.yul\":8331:8448   */\n      iszero\n      tag_314\n      jumpi\n        /* \"#utility.yul\":8367:8446   */\n      tag_315\n      tag_154\n      jump\t// in\n    tag_315:\n        /* \"#utility.yul\":8331:8448   */\n    tag_314:\n        /* \"#utility.yul\":8472:8535   */\n      tag_316\n        /* \"#utility.yul\":8527:8534   */\n      dup10\n        /* \"#utility.yul\":8518:8524   */\n      dup3\n        /* \"#utility.yul\":8507:8516   */\n      dup11\n        /* \"#utility.yul\":8503:8525   */\n      add\n        /* \"#utility.yul\":8472:8535   */\n      tag_164\n      jump\t// in\n    tag_316:\n        /* \"#utility.yul\":8462:8535   */\n      swap5\n      pop\n        /* \"#utility.yul\":8257:8545   */\n      pop\n        /* \"#utility.yul\":8612:8614   */\n      0x60\n        /* \"#utility.yul\":8601:8610   */\n      dup8\n        /* \"#utility.yul\":8597:8615   */\n      add\n        /* \"#utility.yul\":8584:8616   */\n      calldataload\n        /* \"#utility.yul\":8643:8661   */\n      0xffffffffffffffff\n        /* \"#utility.yul\":8635:8641   */\n      dup2\n        /* \"#utility.yul\":8632:8662   */\n      gt\n        /* \"#utility.yul\":8629:8746   */\n      iszero\n      tag_317\n      jumpi\n        /* \"#utility.yul\":8665:8744   */\n      tag_318\n      tag_154\n      jump\t// in\n    tag_318:\n        /* \"#utility.yul\":8629:8746   */\n    tag_317:\n        /* \"#utility.yul\":8770:8833   */\n      tag_319\n        /* \"#utility.yul\":8825:8832   */\n      dup10\n        /* \"#utility.yul\":8816:8822   */\n      dup3\n        /* \"#utility.yul\":8805:8814   */\n      dup11\n        /* \"#utility.yul\":8801:8823   */\n      add\n        /* \"#utility.yul\":8770:8833   */\n      tag_164\n      jump\t// in\n    tag_319:\n        /* \"#utility.yul\":8760:8833   */\n      swap4\n      pop\n        /* \"#utility.yul\":8555:8843   */\n      pop\n        /* \"#utility.yul\":8882:8885   */\n      0x80\n        /* \"#utility.yul\":8909:8962   */\n      tag_320\n        /* \"#utility.yul\":8954:8961   */\n      dup10\n        /* \"#utility.yul\":8945:8951   */\n      dup3\n        /* \"#utility.yul\":8934:8943   */\n      dup11\n        /* \"#utility.yul\":8930:8952   */\n      add\n        /* \"#utility.yul\":8909:8962   */\n      tag_178\n      jump\t// in\n    tag_320:\n        /* \"#utility.yul\":8899:8962   */\n      swap3\n      pop\n        /* \"#utility.yul\":8853:8972   */\n      pop\n        /* \"#utility.yul\":9039:9042   */\n      0xa0\n        /* \"#utility.yul\":9028:9037   */\n      dup8\n        /* \"#utility.yul\":9024:9043   */\n      add\n        /* \"#utility.yul\":9011:9044   */\n      calldataload\n        /* \"#utility.yul\":9071:9089   */\n      0xffffffffffffffff\n        /* \"#utility.yul\":9063:9069   */\n      dup2\n        /* \"#utility.yul\":9060:9090   */\n      gt\n        /* \"#utility.yul\":9057:9174   */\n      iszero\n      tag_321\n      jumpi\n        /* \"#utility.yul\":9093:9172   */\n      tag_322\n      tag_154\n      jump\t// in\n    tag_322:\n        /* \"#utility.yul\":9057:9174   */\n    tag_321:\n        /* \"#utility.yul\":9198:9261   */\n      tag_323\n        /* \"#utility.yul\":9253:9260   */\n      dup10\n        /* \"#utility.yul\":9244:9250   */\n      dup3\n        /* \"#utility.yul\":9233:9242   */\n      dup11\n        /* \"#utility.yul\":9229:9251   */\n      add\n        /* \"#utility.yul\":9198:9261   */\n      tag_164\n      jump\t// in\n    tag_323:\n        /* \"#utility.yul\":9188:9261   */\n      swap2\n      pop\n        /* \"#utility.yul\":8982:9271   */\n      pop\n        /* \"#utility.yul\":7321:9278   */\n      swap3\n      swap6\n      pop\n      swap3\n      swap6\n      pop\n      swap3\n      swap6\n      jump\t// out\n        /* \"#utility.yul\":9284:9432   */\n    tag_179:\n        /* \"#utility.yul\":9386:9397   */\n      0x00\n        /* \"#utility.yul\":9423:9426   */\n      dup2\n        /* \"#utility.yul\":9408:9426   */\n      swap1\n      pop\n        /* \"#utility.yul\":9284:9432   */\n      swap3\n      swap2\n      pop\n      pop\n      jump\t// out\n        /* \"#utility.yul\":9438:9828   */\n    tag_180:\n        /* \"#utility.yul\":9544:9547   */\n      0x00\n        /* \"#utility.yul\":9572:9611   */\n      tag_326\n        /* \"#utility.yul\":9605:9610   */\n      dup3\n        /* \"#utility.yul\":9572:9611   */\n      tag_167\n      jump\t// in\n    tag_326:\n        /* \"#utility.yul\":9627:9716   */\n      tag_327\n        /* \"#utility.yul\":9709:9715   */\n      dup2\n        /* \"#utility.yul\":9704:9707   */\n      dup6\n        /* \"#utility.yul\":9627:9716   */\n      tag_179\n      jump\t// in\n    tag_327:\n        /* \"#utility.yul\":9620:9716   */\n      swap4\n      pop\n        /* \"#utility.yul\":9725:9790   */\n      tag_328\n        /* \"#utility.yul\":9783:9789   */\n      dup2\n        /* \"#utility.yul\":9778:9781   */\n      dup6\n        /* \"#utility.yul\":9771:9775   */\n      0x20\n        /* \"#utility.yul\":9764:9769   */\n      dup7\n        /* \"#utility.yul\":9760:9776   */\n      add\n        /* \"#utility.yul\":9725:9790   */\n      tag_169\n      jump\t// in\n    tag_328:\n        /* \"#utility.yul\":9815:9821   */\n      dup1\n        /* \"#utility.yul\":9810:9813   */\n      dup5\n        /* \"#utility.yul\":9806:9822   */\n      add\n        /* \"#utility.yul\":9799:9822   */\n      swap2\n      pop\n        /* \"#utility.yul\":9548:9828   */\n      pop\n        /* \"#utility.yul\":9438:9828   */\n      swap3\n      swap2\n      pop\n      pop\n      jump\t// out\n        /* \"#utility.yul\":9834:10109   */\n    tag_38:\n        /* \"#utility.yul\":9966:9969   */\n      0x00\n        /* \"#utility.yul\":9988:10083   */\n      tag_330\n        /* \"#utility.yul\":10079:10082   */\n      dup3\n        /* \"#utility.yul\":10070:10076   */\n      dup5\n        /* \"#utility.yul\":9988:10083   */\n      tag_180\n      jump\t// in\n    tag_330:\n        /* \"#utility.yul\":9981:10083   */\n      swap2\n      pop\n        /* \"#utility.yul\":10100:10103   */\n      dup2\n        /* \"#utility.yul\":10093:10103   */\n      swap1\n      pop\n        /* \"#utility.yul\":9834:10109   */\n      swap3\n      swap2\n      pop\n      pop\n      jump\t// out\n        /* \"#utility.yul\":10115:10295   */\n    tag_181:\n        /* \"#utility.yul\":10163:10240   */\n      0x4e487b7100000000000000000000000000000000000000000000000000000000\n        /* \"#utility.yul\":10160:10161   */\n      0x00\n        /* \"#utility.yul\":10153:10241   */\n      mstore\n        /* \"#utility.yul\":10260:10264   */\n      0x22\n        /* \"#utility.yul\":10257:10258   */\n      0x04\n        /* \"#utility.yul\":10250:10265   */\n      mstore\n        /* \"#utility.yul\":10284:10288   */\n      0x24\n        /* \"#utility.yul\":10281:10282   */\n      0x00\n        /* \"#utility.yul\":10274:10289   */\n      revert\n        /* \"#utility.yul\":10301:10621   */\n    tag_40:\n        /* \"#utility.yul\":10345:10351   */\n      0x00\n        /* \"#utility.yul\":10382:10383   */\n      0x02\n        /* \"#utility.yul\":10376:10380   */\n      dup3\n        /* \"#utility.yul\":10372:10384   */\n      div\n        /* \"#utility.yul\":10362:10384   */\n      swap1\n      pop\n        /* \"#utility.yul\":10429:10430   */\n      0x01\n        /* \"#utility.yul\":10423:10427   */\n      dup3\n        /* \"#utility.yul\":10419:10431   */\n      and\n        /* \"#utility.yul\":10450:10468   */\n      dup1\n        /* \"#utility.yul\":10440:10521   */\n      tag_333\n      jumpi\n        /* \"#utility.yul\":10506:10510   */\n      0x7f\n        /* \"#utility.yul\":10498:10504   */\n      dup3\n        /* \"#utility.yul\":10494:10511   */\n      and\n        /* \"#utility.yul\":10484:10511   */\n      swap2\n      pop\n        /* \"#utility.yul\":10440:10521   */\n    tag_333:\n        /* \"#utility.yul\":10568:10570   */\n      0x20\n        /* \"#utility.yul\":10560:10566   */\n      dup3\n        /* \"#utility.yul\":10557:10571   */\n      lt\n        /* \"#utility.yul\":10537:10555   */\n      dup2\n        /* \"#utility.yul\":10534:10572   */\n      sub\n        /* \"#utility.yul\":10531:10615   */\n      tag_334\n      jumpi\n        /* \"#utility.yul\":10587:10605   */\n      tag_335\n      tag_181\n      jump\t// in\n    tag_335:\n        /* \"#utility.yul\":10531:10615   */\n    tag_334:\n        /* \"#utility.yul\":10352:10621   */\n      pop\n        /* \"#utility.yul\":10301:10621   */\n      swap2\n      swap1\n      pop\n      jump\t// out\n        /* \"#utility.yul\":10627:10800   */\n    tag_182:\n        /* \"#utility.yul\":10767:10792   */\n      0x43616c6c6572206973206e6f7420746865206f776e6572000000000000000000\n        /* \"#utility.yul\":10763:10764   */\n      0x00\n        /* \"#utility.yul\":10755:10761   */\n      dup3\n        /* \"#utility.yul\":10751:10765   */\n      add\n        /* \"#utility.yul\":10744:10793   */\n      mstore\n        /* \"#utility.yul\":10627:10800   */\n      pop\n      jump\t// out\n        /* \"#utility.yul\":10806:11172   */\n    tag_183:\n        /* \"#utility.yul\":10948:10951   */\n      0x00\n        /* \"#utility.yul\":10969:11036   */\n      tag_338\n        /* \"#utility.yul\":11033:11035   */\n      0x17\n        /* \"#utility.yul\":11028:11031   */\n      dup4\n        /* \"#utility.yul\":10969:11036   */\n      tag_168\n      jump\t// in\n    tag_338:\n        /* \"#utility.yul\":10962:11036   */\n      swap2\n      pop\n        /* \"#utility.yul\":11045:11138   */\n      tag_339\n        /* \"#utility.yul\":11134:11137   */\n      dup3\n        /* \"#utility.yul\":11045:11138   */\n      tag_182\n      jump\t// in\n    tag_339:\n        /* \"#utility.yul\":11163:11165   */\n      0x20\n        /* \"#utility.yul\":11158:11161   */\n      dup3\n        /* \"#utility.yul\":11154:11166   */\n      add\n        /* \"#utility.yul\":11147:11166   */\n      swap1\n      pop\n        /* \"#utility.yul\":10806:11172   */\n      swap2\n      swap1\n      pop\n      jump\t// out\n        /* \"#utility.yul\":11178:11597   */\n    tag_64:\n        /* \"#utility.yul\":11344:11348   */\n      0x00\n        /* \"#utility.yul\":11382:11384   */\n      0x20\n        /* \"#utility.yul\":11371:11380   */\n      dup3\n        /* \"#utility.yul\":11367:11385   */\n      add\n        /* \"#utility.yul\":11359:11385   */\n      swap1\n      pop\n        /* \"#utility.yul\":11431:11440   */\n      dup2\n        /* \"#utility.yul\":11425:11429   */\n      dup2\n        /* \"#utility.yul\":11421:11441   */\n      sub\n        /* \"#utility.yul\":11417:11418   */\n      0x00\n        /* \"#utility.yul\":11406:11415   */\n      dup4\n        /* \"#utility.yul\":11402:11419   */\n      add\n        /* \"#utility.yul\":11395:11442   */\n      mstore\n        /* \"#utility.yul\":11459:11590   */\n      tag_341\n        /* \"#utility.yul\":11585:11589   */\n      dup2\n        /* \"#utility.yul\":11459:11590   */\n      tag_183\n      jump\t// in\n    tag_341:\n        /* \"#utility.yul\":11451:11590   */\n      swap1\n      pop\n        /* \"#utility.yul\":11178:11597   */\n      swap2\n      swap1\n      pop\n      jump\t// out\n        /* \"#utility.yul\":11603:11744   */\n    tag_184:\n        /* \"#utility.yul\":11652:11656   */\n      0x00\n        /* \"#utility.yul\":11675:11678   */\n      dup2\n        /* \"#utility.yul\":11667:11678   */\n      swap1\n      pop\n        /* \"#utility.yul\":11698:11701   */\n      dup2\n        /* \"#utility.yul\":11695:11696   */\n      0x00\n        /* \"#utility.yul\":11688:11702   */\n      mstore\n        /* \"#utility.yul\":11732:11736   */\n      0x20\n        /* \"#utility.yul\":11729:11730   */\n      0x00\n        /* \"#utility.yul\":11719:11737   */\n      keccak256\n        /* \"#utility.yul\":11711:11737   */\n      swap1\n      pop\n        /* \"#utility.yul\":11603:11744   */\n      swap2\n      swap1\n      pop\n      jump\t// out\n        /* \"#utility.yul\":11750:11843   */\n    tag_185:\n        /* \"#utility.yul\":11787:11793   */\n      0x00\n        /* \"#utility.yul\":11834:11836   */\n      0x20\n        /* \"#utility.yul\":11829:11831   */\n      0x1f\n        /* \"#utility.yul\":11822:11827   */\n      dup4\n        /* \"#utility.yul\":11818:11832   */\n      add\n        /* \"#utility.yul\":11814:11837   */\n      div\n        /* \"#utility.yul\":11804:11837   */\n      swap1\n      pop\n        /* \"#utility.yul\":11750:11843   */\n      swap2\n      swap1\n      pop\n      jump\t// out\n        /* \"#utility.yul\":11849:11956   */\n    tag_186:\n        /* \"#utility.yul\":11893:11901   */\n      0x00\n        /* \"#utility.yul\":11943:11948   */\n      dup3\n        /* \"#utility.yul\":11937:11941   */\n      dup3\n        /* \"#utility.yul\":11933:11949   */\n      shl\n        /* \"#utility.yul\":11912:11949   */\n      swap1\n      pop\n        /* \"#utility.yul\":11849:11956   */\n      swap3\n      swap2\n      pop\n      pop\n      jump\t// out\n        /* \"#utility.yul\":11962:12355   */\n    tag_187:\n        /* \"#utility.yul\":12031:12037   */\n      0x00\n        /* \"#utility.yul\":12081:12082   */\n      0x08\n        /* \"#utility.yul\":12069:12079   */\n      dup4\n        /* \"#utility.yul\":12065:12083   */\n      mul\n        /* \"#utility.yul\":12104:12201   */\n      tag_346\n        /* \"#utility.yul\":12134:12200   */\n      0xffffffffffffffffffffffffffffffffffffffffffffffffffffffffffffffff\n        /* \"#utility.yul\":12123:12132   */\n      dup3\n        /* \"#utility.yul\":12104:12201   */\n      tag_186\n      jump\t// in\n    tag_346:\n        /* \"#utility.yul\":12222:12261   */\n      tag_347\n        /* \"#utility.yul\":12252:12260   */\n      dup7\n        /* \"#utility.yul\":12241:12250   */\n      dup4\n        /* \"#utility.yul\":12222:12261   */\n      tag_186\n      jump\t// in\n    tag_347:\n        /* \"#utility.yul\":12210:12261   */\n      swap6\n      pop\n        /* \"#utility.yul\":12294:12298   */\n      dup1\n        /* \"#utility.yul\":12290:12299   */\n      not\n        /* \"#utility.yul\":12283:12288   */\n      dup5\n        /* \"#utility.yul\":12279:12300   */\n      and\n        /* \"#utility.yul\":12270:12300   */\n      swap4\n      pop\n        /* \"#utility.yul\":12343:12347   */\n      dup1\n        /* \"#utility.yul\":12333:12341   */\n      dup7\n        /* \"#utility.yul\":12329:12348   */\n      and\n        /* \"#utility.yul\":12322:12327   */\n      dup5\n        /* \"#utility.yul\":12319:12349   */\n      or\n        /* \"#utility.yul\":12309:12349   */\n      swap3\n      pop\n        /* \"#utility.yul\":12038:12355   */\n      pop\n      pop\n        /* \"#utility.yul\":11962:12355   */\n      swap4\n      swap3\n      pop\n      pop\n      pop\n      jump\t// out\n        /* \"#utility.yul\":12361:12421   */\n    tag_188:\n        /* \"#utility.yul\":12389:12392   */\n      0x00\n        /* \"#utility.yul\":12410:12415   */\n      dup2\n        /* \"#utility.yul\":12403:12415   */\n      swap1\n      pop\n        /* \"#utility.yul\":12361:12421   */\n      swap2\n      swap1\n      pop\n      jump\t// out\n        /* \"#utility.yul\":12427:12569   */\n    tag_189:\n        /* \"#utility.yul\":12477:12486   */\n      0x00\n        /* \"#utility.yul\":12510:12563   */\n      tag_350\n        /* \"#utility.yul\":12528:12562   */\n      tag_351\n        /* \"#utility.yul\":12537:12561   */\n      tag_352\n        /* \"#utility.yul\":12555:12560   */\n      dup5\n        /* \"#utility.yul\":12537:12561   */\n      tag_171\n      jump\t// in\n    tag_352:\n        /* \"#utility.yul\":12528:12562   */\n      tag_188\n      jump\t// in\n    tag_351:\n        /* \"#utility.yul\":12510:12563   */\n      tag_171\n      jump\t// in\n    tag_350:\n        /* \"#utility.yul\":12497:12563   */\n      swap1\n      pop\n        /* \"#utility.yul\":12427:12569   */\n      swap2\n      swap1\n      pop\n      jump\t// out\n        /* \"#utility.yul\":12575:12650   */\n    tag_190:\n        /* \"#utility.yul\":12618:12621   */\n      0x00\n        /* \"#utility.yul\":12639:12644   */\n      dup2\n        /* \"#utility.yul\":12632:12644   */\n      swap1\n      pop\n        /* \"#utility.yul\":12575:12650   */\n      swap2\n      swap1\n      pop\n      jump\t// out\n        /* \"#utility.yul\":12656:12925   */\n    tag_191:\n        /* \"#utility.yul\":12766:12805   */\n      tag_355\n        /* \"#utility.yul\":12797:12804   */\n      dup4\n        /* \"#utility.yul\":12766:12805   */\n      tag_189\n      jump\t// in\n    tag_355:\n        /* \"#utility.yul\":12827:12918   */\n      tag_356\n        /* \"#utility.yul\":12876:12917   */\n      tag_357\n        /* \"#utility.yul\":12900:12916   */\n      dup3\n        /* \"#utility.yul\":12876:12917   */\n      tag_190\n      jump\t// in\n    tag_357:\n        /* \"#utility.yul\":12868:12874   */\n      dup5\n        /* \"#utility.yul\":12861:12865   */\n      dup5\n        /* \"#utility.yul\":12855:12866   */\n      sload\n        /* \"#utility.yul\":12827:12918   */\n      tag_187\n      jump\t// in\n    tag_356:\n        /* \"#utility.yul\":12821:12825   */\n      dup3\n        /* \"#utility.yul\":12814:12919   */\n      sstore\n        /* \"#utility.yul\":12732:12925   */\n      pop\n        /* \"#utility.yul\":12656:12925   */\n      pop\n      pop\n      pop\n      jump\t// out\n        /* \"#utility.yul\":12931:13004   */\n    tag_192:\n        /* \"#utility.yul\":12976:12979   */\n      0x00\n        /* \"#utility.yul\":12997:12998   */\n      0x00\n        /* \"#utility.yul\":12990:12998   */\n      swap1\n      pop\n        /* \"#utility.yul\":12931:13004   */\n      swap1\n      jump\t// out\n        /* \"#utility.yul\":13010:13199   */\n    tag_193:\n        /* \"#utility.yul\":13087:13119   */\n      tag_360\n      tag_192\n      jump\t// in\n    tag_360:\n        /* \"#utility.yul\":13128:13193   */\n      tag_361\n        /* \"#utility.yul\":13186:13192   */\n      dup2\n        /* \"#utility.yul\":13178:13184   */\n      dup5\n        /* \"#utility.yul\":13172:13176   */\n      dup5\n        /* \"#utility.yul\":13128:13193   */\n      tag_191\n      jump\t// in\n    tag_361:\n        /* \"#utility.yul\":13063:13199   */\n      pop\n        /* \"#utility.yul\":13010:13199   */\n      pop\n      pop\n      jump\t// out\n        /* \"#utility.yul\":13205:13391   */\n    tag_194:\n        /* \"#utility.yul\":13265:13385   */\n    tag_363:\n        /* \"#utility.yul\":13282:13285   */\n      dup2\n        /* \"#utility.yul\":13275:13280   */\n      dup2\n        /* \"#utility.yul\":13272:13286   */\n      lt\n        /* \"#utility.yul\":13265:13385   */\n      iszero\n      tag_365\n      jumpi\n        /* \"#utility.yul\":13336:13375   */\n      tag_366\n        /* \"#utility.yul\":13373:13374   */\n      0x00\n        /* \"#utility.yul\":13366:13371   */\n      dup3\n        /* \"#utility.yul\":13336:13375   */\n      tag_193\n      jump\t// in\n    tag_366:\n        /* \"#utility.yul\":13309:13310   */\n      0x01\n        /* \"#utility.yul\":13302:13307   */\n      dup2\n        /* \"#utility.yul\":13298:13311   */\n      add\n        /* \"#utility.yul\":13289:13311   */\n      swap1\n      pop\n        /* \"#utility.yul\":13265:13385   */\n      jump(tag_363)\n    tag_365:\n        /* \"#utility.yul\":13205:13391   */\n      pop\n      pop\n      jump\t// out\n        /* \"#utility.yul\":13397:13940   */\n    tag_195:\n        /* \"#utility.yul\":13498:13500   */\n      0x1f\n        /* \"#utility.yul\":13493:13496   */\n      dup3\n        /* \"#utility.yul\":13490:13501   */\n      gt\n        /* \"#utility.yul\":13487:13933   */\n      iszero\n      tag_368\n      jumpi\n        /* \"#utility.yul\":13532:13570   */\n      tag_369\n        /* \"#utility.yul\":13564:13569   */\n      dup2\n        /* \"#utility.yul\":13532:13570   */\n      tag_184\n      jump\t// in\n    tag_369:\n        /* \"#utility.yul\":13616:13645   */\n      tag_370\n        /* \"#utility.yul\":13634:13644   */\n      dup5\n        /* \"#utility.yul\":13616:13645   */\n      tag_185\n      jump\t// in\n    tag_370:\n        /* \"#utility.yul\":13606:13614   */\n      dup2\n        /* \"#utility.yul\":13602:13646   */\n      add\n        /* \"#utility.yul\":13799:13801   */\n      0x20\n        /* \"#utility.yul\":13787:13797   */\n      dup6\n        /* \"#utility.yul\":13784:13802   */\n      lt\n        /* \"#utility.yul\":13781:13830   */\n      iszero\n      tag_371\n      jumpi\n        /* \"#utility.yul\":13820:13828   */\n      dup2\n        /* \"#utility.yul\":13805:13828   */\n      swap1\n      pop\n        /* \"#utility.yul\":13781:13830   */\n    tag_371:\n        /* \"#utility.yul\":13843:13923   */\n      tag_372\n        /* \"#utility.yul\":13899:13921   */\n      tag_373\n        /* \"#utility.yul\":13917:13920   */\n      dup6\n        /* \"#utility.yul\":13899:13921   */\n      tag_185\n      jump\t// in\n    tag_373:\n        /* \"#utility.yul\":13889:13897   */\n      dup4\n        /* \"#utility.yul\":13885:13922   */\n      add\n        /* \"#utility.yul\":13872:13883   */\n      dup3\n        /* \"#utility.yul\":13843:13923   */\n      tag_194\n      jump\t// in\n    tag_372:\n        /* \"#utility.yul\":13502:13933   */\n      pop\n      pop\n        /* \"#utility.yul\":13487:13933   */\n    tag_368:\n        /* \"#utility.yul\":13397:13940   */\n      pop\n      pop\n      pop\n      jump\t// out\n        /* \"#utility.yul\":13946:14063   */\n    tag_196:\n        /* \"#utility.yul\":14000:14008   */\n      0x00\n        /* \"#utility.yul\":14050:14055   */\n      dup3\n        /* \"#utility.yul\":14044:14048   */\n      dup3\n        /* \"#utility.yul\":14040:14056   */\n      shr\n        /* \"#utility.yul\":14019:14056   */\n      swap1\n      pop\n        /* \"#utility.yul\":13946:14063   */\n      swap3\n      swap2\n      pop\n      pop\n      jump\t// out\n        /* \"#utility.yul\":14069:14238   */\n    tag_197:\n        /* \"#utility.yul\":14113:14119   */\n      0x00\n        /* \"#utility.yul\":14146:14197   */\n      tag_376\n        /* \"#utility.yul\":14194:14195   */\n      0x00\n        /* \"#utility.yul\":14190:14196   */\n      not\n        /* \"#utility.yul\":14182:14187   */\n      dup5\n        /* \"#utility.yul\":14179:14180   */\n      0x08\n        /* \"#utility.yul\":14175:14188   */\n      mul\n        /* \"#utility.yul\":14146:14197   */\n      tag_196\n      jump\t// in\n    tag_376:\n        /* \"#utility.yul\":14142:14198   */\n      not\n        /* \"#utility.yul\":14227:14231   */\n      dup1\n        /* \"#utility.yul\":14221:14225   */\n      dup4\n        /* \"#utility.yul\":14217:14232   */\n      and\n        /* \"#utility.yul\":14207:14232   */\n      swap2\n      pop\n        /* \"#utility.yul\":14120:14238   */\n      pop\n        /* \"#utility.yul\":14069:14238   */\n      swap3\n      swap2\n      pop\n      pop\n      jump\t// out\n        /* \"#utility.yul\":14243:14538   */\n    tag_198:\n        /* \"#utility.yul\":14319:14323   */\n      0x00\n        /* \"#utility.yul\":14465:14494   */\n      tag_378\n        /* \"#utility.yul\":14490:14493   */\n      dup4\n        /* \"#utility.yul\":14484:14488   */\n      dup4\n        /* \"#utility.yul\":14465:14494   */\n      tag_197\n      jump\t// in\n    tag_378:\n        /* \"#utility.yul\":14457:14494   */\n      swap2\n      pop\n        /* \"#utility.yul\":14527:14530   */\n      dup3\n        /* \"#utility.yul\":14524:14525   */\n      0x02\n        /* \"#utility.yul\":14520:14531   */\n      mul\n        /* \"#utility.yul\":14514:14518   */\n      dup3\n        /* \"#utility.yul\":14511:14532   */\n      or\n        /* \"#utility.yul\":14503:14532   */\n      swap1\n      pop\n        /* \"#utility.yul\":14243:14538   */\n      swap3\n      swap2\n      pop\n      pop\n      jump\t// out\n        /* \"#utility.yul\":14543:15938   */\n    tag_67:\n        /* \"#utility.yul\":14660:14697   */\n      tag_380\n        /* \"#utility.yul\":14693:14696   */\n      dup3\n        /* \"#utility.yul\":14660:14697   */\n      tag_167\n      jump\t// in\n    tag_380:\n        /* \"#utility.yul\":14762:14780   */\n      0xffffffffffffffff\n        /* \"#utility.yul\":14754:14760   */\n      dup2\n        /* \"#utility.yul\":14751:14781   */\n      gt\n        /* \"#utility.yul\":14748:14804   */\n      iszero\n      tag_381\n      jumpi\n        /* \"#utility.yul\":14784:14802   */\n      tag_382\n      tag_158\n      jump\t// in\n    tag_382:\n        /* \"#utility.yul\":14748:14804   */\n    tag_381:\n        /* \"#utility.yul\":14828:14866   */\n      tag_383\n        /* \"#utility.yul\":14860:14864   */\n      dup3\n        /* \"#utility.yul\":14854:14865   */\n      sload\n        /* \"#utility.yul\":14828:14866   */\n      tag_40\n      jump\t// in\n    tag_383:\n        /* \"#utility.yul\":14913:14980   */\n      tag_384\n        /* \"#utility.yul\":14973:14979   */\n      dup3\n        /* \"#utility.yul\":14965:14971   */\n      dup3\n        /* \"#utility.yul\":14959:14963   */\n      dup6\n        /* \"#utility.yul\":14913:14980   */\n      tag_195\n      jump\t// in\n    tag_384:\n        /* \"#utility.yul\":15007:15008   */\n      0x00\n        /* \"#utility.yul\":15031:15035   */\n      0x20\n        /* \"#utility.yul\":15018:15035   */\n      swap1\n      pop\n        /* \"#utility.yul\":15063:15065   */\n      0x1f\n        /* \"#utility.yul\":15055:15061   */\n      dup4\n        /* \"#utility.yul\":15052:15066   */\n      gt\n        /* \"#utility.yul\":15080:15081   */\n      0x01\n        /* \"#utility.yul\":15075:15693   */\n      dup2\n      eq\n      tag_386\n      jumpi\n        /* \"#utility.yul\":15737:15738   */\n      0x00\n        /* \"#utility.yul\":15754:15760   */\n      dup5\n        /* \"#utility.yul\":15751:15828   */\n      iszero\n      tag_387\n      jumpi\n        /* \"#utility.yul\":15803:15812   */\n      dup3\n        /* \"#utility.yul\":15798:15801   */\n      dup8\n        /* \"#utility.yul\":15794:15813   */\n      add\n        /* \"#utility.yul\":15788:15814   */\n      mload\n        /* \"#utility.yul\":15779:15814   */\n      swap1\n      pop\n        /* \"#utility.yul\":15751:15828   */\n    tag_387:\n        /* \"#utility.yul\":15854:15921   */\n      tag_388\n        /* \"#utility.yul\":15914:15920   */\n      dup6\n        /* \"#utility.yul\":15907:15912   */\n      dup3\n        /* \"#utility.yul\":15854:15921   */\n      tag_198\n      jump\t// in\n    tag_388:\n        /* \"#utility.yul\":15848:15852   */\n      dup7\n        /* \"#utility.yul\":15841:15922   */\n      sstore\n        /* \"#utility.yul\":15710:15932   */\n      pop\n        /* \"#utility.yul\":15045:15932   */\n      jump(tag_385)\n        /* \"#utility.yul\":15075:15693   */\n    tag_386:\n        /* \"#utility.yul\":15127:15131   */\n      0x1f\n        /* \"#utility.yul\":15123:15132   */\n      not\n        /* \"#utility.yul\":15115:15121   */\n      dup5\n        /* \"#utility.yul\":15111:15133   */\n      and\n        /* \"#utility.yul\":15161:15198   */\n      tag_389\n        /* \"#utility.yul\":15193:15197   */\n      dup7\n        /* \"#utility.yul\":15161:15198   */\n      tag_184\n      jump\t// in\n    tag_389:\n        /* \"#utility.yul\":15220:15221   */\n      0x00\n        /* \"#utility.yul\":15234:15442   */\n    tag_390:\n        /* \"#utility.yul\":15248:15255   */\n      dup3\n        /* \"#utility.yul\":15245:15246   */\n      dup2\n        /* \"#utility.yul\":15242:15256   */\n      lt\n        /* \"#utility.yul\":15234:15442   */\n      iszero\n      tag_392\n      jumpi\n        /* \"#utility.yul\":15327:15336   */\n      dup5\n        /* \"#utility.yul\":15322:15325   */\n      dup10\n        /* \"#utility.yul\":15318:15337   */\n      add\n        /* \"#utility.yul\":15312:15338   */\n      mload\n        /* \"#utility.yul\":15304:15310   */\n      dup3\n        /* \"#utility.yul\":15297:15339   */\n      sstore\n        /* \"#utility.yul\":15378:15379   */\n      0x01\n        /* \"#utility.yul\":15370:15376   */\n      dup3\n        /* \"#utility.yul\":15366:15380   */\n      add\n        /* \"#utility.yul\":15356:15380   */\n      swap2\n      pop\n        /* \"#utility.yul\":15425:15427   */\n      0x20\n        /* \"#utility.yul\":15414:15423   */\n      dup6\n        /* \"#utility.yul\":15410:15428   */\n      add\n        /* \"#utility.yul\":15397:15428   */\n      swap5\n      pop\n        /* \"#utility.yul\":15271:15275   */\n      0x20\n        /* \"#utility.yul\":15268:15269   */\n      dup2\n        /* \"#utility.yul\":15264:15276   */\n      add\n        /* \"#utility.yul\":15259:15276   */\n      swap1\n      pop\n        /* \"#utility.yul\":15234:15442   */\n      jump(tag_390)\n    tag_392:\n        /* \"#utility.yul\":15470:15476   */\n      dup7\n        /* \"#utility.yul\":15461:15468   */\n      dup4\n        /* \"#utility.yul\":15458:15477   */\n      lt\n        /* \"#utility.yul\":15455:15634   */\n      iszero\n      tag_393\n      jumpi\n        /* \"#utility.yul\":15528:15537   */\n      dup5\n        /* \"#utility.yul\":15523:15526   */\n      dup10\n        /* \"#utility.yul\":15519:15538   */\n      add\n        /* \"#utility.yul\":15513:15539   */\n      mload\n        /* \"#utility.yul\":15571:15619   */\n      tag_394\n        /* \"#utility.yul\":15613:15617   */\n      0x1f\n        /* \"#utility.yul\":15605:15611   */\n      dup10\n        /* \"#utility.yul\":15601:15618   */\n      and\n        /* \"#utility.yul\":15590:15599   */\n      dup3\n        /* \"#utility.yul\":15571:15619   */\n      tag_197\n      jump\t// in\n    tag_394:\n        /* \"#utility.yul\":15563:15569   */\n      dup4\n        /* \"#utility.yul\":15556:15620   */\n      sstore\n        /* \"#utility.yul\":15478:15634   */\n      pop\n        /* \"#utility.yul\":15455:15634   */\n    tag_393:\n        /* \"#utility.yul\":15680:15681   */\n      0x01\n        /* \"#utility.yul\":15676:15677   */\n      0x02\n        /* \"#utility.yul\":15668:15674   */\n      dup9\n        /* \"#utility.yul\":15664:15678   */\n      mul\n        /* \"#utility.yul\":15660:15682   */\n      add\n        /* \"#utility.yul\":15654:15658   */\n      dup9\n        /* \"#utility.yul\":15647:15683   */\n      sstore\n        /* \"#utility.yul\":15082:15693   */\n      pop\n      pop\n      pop\n        /* \"#utility.yul\":15045:15932   */\n    tag_385:\n      pop\n        /* \"#utility.yul\":14635:15938   */\n      pop\n      pop\n      pop\n        /* \"#utility.yul\":14543:15938   */\n      pop\n      pop\n      jump\t// out\n        /* \"#utility.yul\":15944:16062   */\n    tag_199:\n        /* \"#utility.yul\":16031:16055   */\n      tag_396\n        /* \"#utility.yul\":16049:16054   */\n      dup2\n        /* \"#utility.yul\":16031:16055   */\n      tag_174\n      jump\t// in\n    tag_396:\n        /* \"#utility.yul\":16026:16029   */\n      dup3\n        /* \"#utility.yul\":16019:16056   */\n      mstore\n        /* \"#utility.yul\":15944:16062   */\n      pop\n      pop\n      jump\t// out\n        /* \"#utility.yul\":16068:16491   */\n    tag_69:\n        /* \"#utility.yul\":16209:16213   */\n      0x00\n        /* \"#utility.yul\":16247:16249   */\n      0x40\n        /* \"#utility.yul\":16236:16245   */\n      dup3\n        /* \"#utility.yul\":16232:16250   */\n      add\n        /* \"#utility.yul\":16224:16250   */\n      swap1\n      pop\n        /* \"#utility.yul\":16260:16331   */\n      tag_398\n        /* \"#utility.yul\":16328:16329   */\n      0x00\n        /* \"#utility.yul\":16317:16326   */\n      dup4\n        /* \"#utility.yul\":16313:16330   */\n      add\n        /* \"#utility.yul\":16304:16310   */\n      dup6\n        /* \"#utility.yul\":16260:16331   */\n      tag_199\n      jump\t// in\n    tag_398:\n        /* \"#utility.yul\":16378:16387   */\n      dup2\n        /* \"#utility.yul\":16372:16376   */\n      dup2\n        /* \"#utility.yul\":16368:16388   */\n      sub\n        /* \"#utility.yul\":16363:16365   */\n      0x20\n        /* \"#utility.yul\":16352:16361   */\n      dup4\n        /* \"#utility.yul\":16348:16366   */\n      add\n        /* \"#utility.yul\":16341:16389   */\n      mstore\n        /* \"#utility.yul\":16406:16484   */\n      tag_399\n        /* \"#utility.yul\":16479:16483   */\n      dup2\n        /* \"#utility.yul\":16470:16476   */\n      dup5\n        /* \"#utility.yul\":16406:16484   */\n      tag_170\n      jump\t// in\n    tag_399:\n        /* \"#utility.yul\":16398:16484   */\n      swap1\n      pop\n        /* \"#utility.yul\":16068:16491   */\n      swap4\n      swap3\n      pop\n      pop\n      pop\n      jump\t// out\n        /* \"#utility.yul\":16497:16719   */\n    tag_77:\n        /* \"#utility.yul\":16590:16594   */\n      0x00\n        /* \"#utility.yul\":16628:16630   */\n      0x20\n        /* \"#utility.yul\":16617:16626   */\n      dup3\n        /* \"#utility.yul\":16613:16631   */\n      add\n        /* \"#utility.yul\":16605:16631   */\n      swap1\n      pop\n        /* \"#utility.yul\":16641:16712   */\n      tag_401\n        /* \"#utility.yul\":16709:16710   */\n      0x00\n        /* \"#utility.yul\":16698:16707   */\n      dup4\n        /* \"#utility.yul\":16694:16711   */\n      add\n        /* \"#utility.yul\":16685:16691   */\n      dup5\n        /* \"#utility.yul\":16641:16712   */\n      tag_199\n      jump\t// in\n    tag_401:\n        /* \"#utility.yul\":16497:16719   */\n      swap3\n      swap2\n      pop\n      pop\n      jump\t// out\n        /* \"#utility.yul\":16725:16951   */\n    tag_200:\n        /* \"#utility.yul\":16865:16899   */\n      0x43657274696669636174652077697468207468697320494420646f6573206e6f\n        /* \"#utility.yul\":16861:16862   */\n      0x00\n        /* \"#utility.yul\":16853:16859   */\n      dup3\n        /* \"#utility.yul\":16849:16863   */\n      add\n        /* \"#utility.yul\":16842:16900   */\n      mstore\n        /* \"#utility.yul\":16934:16943   */\n      0x7420657869737400000000000000000000000000000000000000000000000000\n        /* \"#utility.yul\":16929:16931   */\n      0x20\n        /* \"#utility.yul\":16921:16927   */\n      dup3\n        /* \"#utility.yul\":16917:16932   */\n      add\n        /* \"#utility.yul\":16910:16944   */\n      mstore\n        /* \"#utility.yul\":16725:16951   */\n      pop\n      jump\t// out\n        /* \"#utility.yul\":16957:17323   */\n    tag_201:\n        /* \"#utility.yul\":17099:17102   */\n      0x00\n        /* \"#utility.yul\":17120:17187   */\n      tag_404\n        /* \"#utility.yul\":17184:17186   */\n      0x27\n        /* \"#utility.yul\":17179:17182   */\n      dup4\n        /* \"#utility.yul\":17120:17187   */\n      tag_168\n      jump\t// in\n    tag_404:\n        /* \"#utility.yul\":17113:17187   */\n      swap2\n      pop\n        /* \"#utility.yul\":17196:17289   */\n      tag_405\n        /* \"#utility.yul\":17285:17288   */\n      dup3\n        /* \"#utility.yul\":17196:17289   */\n      tag_200\n      jump\t// in\n    tag_405:\n        /* \"#utility.yul\":17314:17316   */\n      0x40\n        /* \"#utility.yul\":17309:17312   */\n      dup3\n        /* \"#utility.yul\":17305:17317   */\n      add\n        /* \"#utility.yul\":17298:17317   */\n      swap1\n      pop\n        /* \"#utility.yul\":16957:17323   */\n      swap2\n      swap1\n      pop\n      jump\t// out\n        /* \"#utility.yul\":17329:17748   */\n    tag_83:\n        /* \"#utility.yul\":17495:17499   */\n      0x00\n        /* \"#utility.yul\":17533:17535   */\n      0x20\n        /* \"#utility.yul\":17522:17531   */\n      dup3\n        /* \"#utility.yul\":17518:17536   */\n      add\n        /* \"#utility.yul\":17510:17536   */\n      swap1\n      pop\n        /* \"#utility.yul\":17582:17591   */\n      dup2\n        /* \"#utility.yul\":17576:17580   */\n      dup2\n        /* \"#utility.yul\":17572:17592   */\n      sub\n        /* \"#utility.yul\":17568:17569   */\n      0x00\n        /* \"#utility.yul\":17557:17566   */\n      dup4\n        /* \"#utility.yul\":17553:17570   */\n      add\n        /* \"#utility.yul\":17546:17593   */\n      mstore\n        /* \"#utility.yul\":17610:17741   */\n      tag_407\n        /* \"#utility.yul\":17736:17740   */\n      dup2\n        /* \"#utility.yul\":17610:17741   */\n      tag_201\n      jump\t// in\n    tag_407:\n        /* \"#utility.yul\":17602:17741   */\n      swap1\n      pop\n        /* \"#utility.yul\":17329:17748   */\n      swap2\n      swap1\n      pop\n      jump\t// out\n        /* \"#utility.yul\":17754:17981   */\n    tag_202:\n        /* \"#utility.yul\":17894:17928   */\n      0x43616c6c6572206973206e6f7420616e20617574686f72697a6564206f726761\n        /* \"#utility.yul\":17890:17891   */\n      0x00\n        /* \"#utility.yul\":17882:17888   */\n      dup3\n        /* \"#utility.yul\":17878:17892   */\n      add\n        /* \"#utility.yul\":17871:17929   */\n      mstore\n        /* \"#utility.yul\":17963:17973   */\n      0x6e697a6174696f6e000000000000000000000000000000000000000000000000\n        /* \"#utility.yul\":17958:17960   */\n      0x20\n        /* \"#utility.yul\":17950:17956   */\n      dup3\n        /* \"#utility.yul\":17946:17961   */\n      add\n        /* \"#utility.yul\":17939:17974   */\n      mstore\n        /* \"#utility.yul\":17754:17981   */\n      pop\n      jump\t// out\n        /* \"#utility.yul\":17987:18353   */\n    tag_203:\n        /* \"#utility.yul\":18129:18132   */\n      0x00\n        /* \"#utility.yul\":18150:18217   */\n      tag_410\n        /* \"#utility.yul\":18214:18216   */\n      0x28\n        /* \"#utility.yul\":18209:18212   */\n      dup4\n        /* \"#utility.yul\":18150:18217   */\n      tag_168\n      jump\t// in\n    tag_410:\n        /* \"#utility.yul\":18143:18217   */\n      swap2\n      pop\n        /* \"#utility.yul\":18226:18319   */\n      tag_411\n        /* \"#utility.yul\":18315:18318   */\n      dup3\n        /* \"#utility.yul\":18226:18319   */\n      tag_202\n      jump\t// in\n    tag_411:\n        /* \"#utility.yul\":18344:18346   */\n      0x40\n        /* \"#utility.yul\":18339:18342   */\n      dup3\n        /* \"#utility.yul\":18335:18347   */\n      add\n        /* \"#utility.yul\":18328:18347   */\n      swap1\n      pop\n        /* \"#utility.yul\":17987:18353   */\n      swap2\n      swap1\n      pop\n      jump\t// out\n        /* \"#utility.yul\":18359:18778   */\n    tag_108:\n        /* \"#utility.yul\":18525:18529   */\n      0x00\n        /* \"#utility.yul\":18563:18565   */\n      0x20\n        /* \"#utility.yul\":18552:18561   */\n      dup3\n        /* \"#utility.yul\":18548:18566   */\n      add\n        /* \"#utility.yul\":18540:18566   */\n      swap1\n      pop\n        /* \"#utility.yul\":18612:18621   */\n      dup2\n        /* \"#utility.yul\":18606:18610   */\n      dup2\n        /* \"#utility.yul\":18602:18622   */\n      sub\n        /* \"#utility.yul\":18598:18599   */\n      0x00\n        /* \"#utility.yul\":18587:18596   */\n      dup4\n        /* \"#utility.yul\":18583:18600   */\n      add\n        /* \"#utility.yul\":18576:18623   */\n      mstore\n        /* \"#utility.yul\":18640:18771   */\n      tag_413\n        /* \"#utility.yul\":18766:18770   */\n      dup2\n        /* \"#utility.yul\":18640:18771   */\n      tag_203\n      jump\t// in\n    tag_413:\n        /* \"#utility.yul\":18632:18771   */\n      swap1\n      pop\n        /* \"#utility.yul\":18359:18778   */\n      swap2\n      swap1\n      pop\n      jump\t// out\n        /* \"#utility.yul\":18784:18964   */\n    tag_204:\n        /* \"#utility.yul\":18924:18956   */\n      0x43657274696669636174652049442063616e6e6f7420626520656d7074790000\n        /* \"#utility.yul\":18920:18921   */\n      0x00\n        /* \"#utility.yul\":18912:18918   */\n      dup3\n        /* \"#utility.yul\":18908:18922   */\n      add\n        /* \"#utility.yul\":18901:18957   */\n      mstore\n        /* \"#utility.yul\":18784:18964   */\n      pop\n      jump\t// out\n        /* \"#utility.yul\":18970:19336   */\n    tag_205:\n        /* \"#utility.yul\":19112:19115   */\n      0x00\n        /* \"#utility.yul\":19133:19200   */\n      tag_416\n        /* \"#utility.yul\":19197:19199   */\n      0x1e\n        /* \"#utility.yul\":19192:19195   */\n      dup4\n        /* \"#utility.yul\":19133:19200   */\n      tag_168\n      jump\t// in\n    tag_416:\n        /* \"#utility.yul\":19126:19200   */\n      swap2\n      pop\n        /* \"#utility.yul\":19209:19302   */\n      tag_417\n        /* \"#utility.yul\":19298:19301   */\n      dup3\n        /* \"#utility.yul\":19209:19302   */\n      tag_204\n      jump\t// in\n    tag_417:\n        /* \"#utility.yul\":19327:19329   */\n      0x20\n        /* \"#utility.yul\":19322:19325   */\n      dup3\n        /* \"#utility.yul\":19318:19330   */\n      add\n        /* \"#utility.yul\":19311:19330   */\n      swap1\n      pop\n        /* \"#utility.yul\":18970:19336   */\n      swap2\n      swap1\n      pop\n      jump\t// out\n        /* \"#utility.yul\":19342:19761   */\n    tag_112:\n        /* \"#utility.yul\":19508:19512   */\n      0x00\n        /* \"#utility.yul\":19546:19548   */\n      0x20\n        /* \"#utility.yul\":19535:19544   */\n      dup3\n        /* \"#utility.yul\":19531:19549   */\n      add\n        /* \"#utility.yul\":19523:19549   */\n      swap1\n      pop\n        /* \"#utility.yul\":19595:19604   */\n      dup2\n        /* \"#utility.yul\":19589:19593   */\n      dup2\n        /* \"#utility.yul\":19585:19605   */\n      sub\n        /* \"#utility.yul\":19581:19582   */\n      0x00\n        /* \"#utility.yul\":19570:19579   */\n      dup4\n        /* \"#utility.yul\":19566:19583   */\n      add\n        /* \"#utility.yul\":19559:19606   */\n      mstore\n        /* \"#utility.yul\":19623:19754   */\n      tag_419\n        /* \"#utility.yul\":19749:19753   */\n      dup2\n        /* \"#utility.yul\":19623:19754   */\n      tag_205\n      jump\t// in\n    tag_419:\n        /* \"#utility.yul\":19615:19754   */\n      swap1\n      pop\n        /* \"#utility.yul\":19342:19761   */\n      swap2\n      swap1\n      pop\n      jump\t// out\n        /* \"#utility.yul\":19767:19947   */\n    tag_206:\n        /* \"#utility.yul\":19907:19939   */\n      0x43616e646964617465206e616d652063616e6e6f7420626520656d7074790000\n        /* \"#utility.yul\":19903:19904   */\n      0x00\n        /* \"#utility.yul\":19895:19901   */\n      dup3\n        /* \"#utility.yul\":19891:19905   */\n      add\n        /* \"#utility.yul\":19884:19940   */\n      mstore\n        /* \"#utility.yul\":19767:19947   */\n      pop\n      jump\t// out\n        /* \"#utility.yul\":19953:20319   */\n    tag_207:\n        /* \"#utility.yul\":20095:20098   */\n      0x00\n        /* \"#utility.yul\":20116:20183   */\n      tag_422\n        /* \"#utility.yul\":20180:20182   */\n      0x1e\n        /* \"#utility.yul\":20175:20178   */\n      dup4\n        /* \"#utility.yul\":20116:20183   */\n      tag_168\n      jump\t// in\n    tag_422:\n        /* \"#utility.yul\":20109:20183   */\n      swap2\n      pop\n        /* \"#utility.yul\":20192:20285   */\n      tag_423\n        /* \"#utility.yul\":20281:20284   */\n      dup3\n        /* \"#utility.yul\":20192:20285   */\n      tag_206\n      jump\t// in\n    tag_423:\n        /* \"#utility.yul\":20310:20312   */\n      0x20\n        /* \"#utility.yul\":20305:20308   */\n      dup3\n        /* \"#utility.yul\":20301:20313   */\n      add\n        /* \"#utility.yul\":20294:20313   */\n      swap1\n      pop\n        /* \"#utility.yul\":19953:20319   */\n      swap2\n      swap1\n      pop\n      jump\t// out\n        /* \"#utility.yul\":20325:20744   */\n    tag_115:\n        /* \"#utility.yul\":20491:20495   */\n      0x00\n        /* \"#utility.yul\":20529:20531   */\n      0x20\n        /* \"#utility.yul\":20518:20527   */\n      dup3\n        /* \"#utility.yul\":20514:20532   */\n      add\n        /* \"#utility.yul\":20506:20532   */\n      swap1\n      pop\n        /* \"#utility.yul\":20578:20587   */\n      dup2\n        /* \"#utility.yul\":20572:20576   */\n      dup2\n        /* \"#utility.yul\":20568:20588   */\n      sub\n        /* \"#utility.yul\":20564:20565   */\n      0x00\n        /* \"#utility.yul\":20553:20562   */\n      dup4\n        /* \"#utility.yul\":20549:20566   */\n      add\n        /* \"#utility.yul\":20542:20589   */\n      mstore\n        /* \"#utility.yul\":20606:20737   */\n      tag_425\n        /* \"#utility.yul\":20732:20736   */\n      dup2\n        /* \"#utility.yul\":20606:20737   */\n      tag_207\n      jump\t// in\n    tag_425:\n        /* \"#utility.yul\":20598:20737   */\n      swap1\n      pop\n        /* \"#utility.yul\":20325:20744   */\n      swap2\n      swap1\n      pop\n      jump\t// out\n        /* \"#utility.yul\":20750:20971   */\n    tag_208:\n        /* \"#utility.yul\":20890:20924   */\n      0x43657274696669636174696f6e206e616d652063616e6e6f7420626520656d70\n        /* \"#utility.yul\":20886:20887   */\n      0x00\n        /* \"#utility.yul\":20878:20884   */\n      dup3\n        /* \"#utility.yul\":20874:20888   */\n      add\n        /* \"#utility.yul\":20867:20925   */\n      mstore\n        /* \"#utility.yul\":20959:20963   */\n      0x7479000000000000000000000000000000000000000000000000000000000000\n        /* \"#utility.yul\":20954:20956   */\n      0x20\n        /* \"#utility.yul\":20946:20952   */\n      dup3\n        /* \"#utility.yul\":20942:20957   */\n      add\n        /* \"#utility.yul\":20935:20964   */\n      mstore\n        /* \"#utility.yul\":20750:20971   */\n      pop\n      jump\t// out\n        /* \"#utility.yul\":20977:21343   */\n    tag_209:\n        /* \"#utility.yul\":21119:21122   */\n      0x00\n        /* \"#utility.yul\":21140:21207   */\n      tag_428\n        /* \"#utility.yul\":21204:21206   */\n      0x22\n        /* \"#utility.yul\":21199:21202   */\n      dup4\n        /* \"#utility.yul\":21140:21207   */\n      tag_168\n      jump\t// in\n    tag_428:\n        /* \"#utility.yul\":21133:21207   */\n      swap2\n      pop\n        /* \"#utility.yul\":21216:21309   */\n      tag_429\n        /* \"#utility.yul\":21305:21308   */\n      dup3\n        /* \"#utility.yul\":21216:21309   */\n      tag_208\n      jump\t// in\n    tag_429:\n        /* \"#utility.yul\":21334:21336   */\n      0x40\n        /* \"#utility.yul\":21329:21332   */\n      dup3\n        /* \"#utility.yul\":21325:21337   */\n      add\n        /* \"#utility.yul\":21318:21337   */\n      swap1\n      pop\n        /* \"#utility.yul\":20977:21343   */\n      swap2\n      swap1\n      pop\n      jump\t// out\n        /* \"#utility.yul\":21349:21768   */\n    tag_118:\n        /* \"#utility.yul\":21515:21519   */\n      0x00\n        /* \"#utility.yul\":21553:21555   */\n      0x20\n        /* \"#utility.yul\":21542:21551   */\n      dup3\n        /* \"#utility.yul\":21538:21556   */\n      add\n        /* \"#utility.yul\":21530:21556   */\n      swap1\n      pop\n        /* \"#utility.yul\":21602:21611   */\n      dup2\n        /* \"#utility.yul\":21596:21600   */\n      dup2\n        /* \"#utility.yul\":21592:21612   */\n      sub\n        /* \"#utility.yul\":21588:21589   */\n      0x00\n        /* \"#utility.yul\":21577:21586   */\n      dup4\n        /* \"#utility.yul\":21573:21590   */\n      add\n        /* \"#utility.yul\":21566:21613   */\n      mstore\n        /* \"#utility.yul\":21630:21761   */\n      tag_431\n        /* \"#utility.yul\":21756:21760   */\n      dup2\n        /* \"#utility.yul\":21630:21761   */\n      tag_209\n      jump\t// in\n    tag_431:\n        /* \"#utility.yul\":21622:21761   */\n      swap1\n      pop\n        /* \"#utility.yul\":21349:21768   */\n      swap2\n      swap1\n      pop\n      jump\t// out\n        /* \"#utility.yul\":21774:21994   */\n    tag_210:\n        /* \"#utility.yul\":21914:21948   */\n      0x4f7267616e697a6174696f6e206e616d652063616e6e6f7420626520656d7074\n        /* \"#utility.yul\":21910:21911   */\n      0x00\n        /* \"#utility.yul\":21902:21908   */\n      dup3\n        /* \"#utility.yul\":21898:21912   */\n      add\n        /* \"#utility.yul\":21891:21949   */\n      mstore\n        /* \"#utility.yul\":21983:21986   */\n      0x7900000000000000000000000000000000000000000000000000000000000000\n        /* \"#utility.yul\":21978:21980   */\n      0x20\n        /* \"#utility.yul\":21970:21976   */\n      dup3\n        /* \"#utility.yul\":21966:21981   */\n      add\n        /* \"#utility.yul\":21959:21987   */\n      mstore\n        /* \"#utility.yul\":21774:21994   */\n      pop\n      jump\t// out\n        /* \"#utility.yul\":22000:22366   */\n    tag_211:\n        /* \"#utility.yul\":22142:22145   */\n      0x00\n        /* \"#utility.yul\":22163:22230   */\n      tag_434\n        /* \"#utility.yul\":22227:22229   */\n      0x21\n        /* \"#utility.yul\":22222:22225   */\n      dup4\n        /* \"#utility.yul\":22163:22230   */\n      tag_168\n      jump\t// in\n    tag_434:\n        /* \"#utility.yul\":22156:22230   */\n      swap2\n      pop\n        /* \"#utility.yul\":22239:22332   */\n      tag_435\n        /* \"#utility.yul\":22328:22331   */\n      dup3\n        /* \"#utility.yul\":22239:22332   */\n      tag_210\n      jump\t// in\n    tag_435:\n        /* \"#utility.yul\":22357:22359   */\n      0x40\n        /* \"#utility.yul\":22352:22355   */\n      dup3\n        /* \"#utility.yul\":22348:22360   */\n      add\n        /* \"#utility.yul\":22341:22360   */\n      swap1\n      pop\n        /* \"#utility.yul\":22000:22366   */\n      swap2\n      swap1\n      pop\n      jump\t// out\n        /* \"#utility.yul\":22372:22791   */\n    tag_121:\n        /* \"#utility.yul\":22538:22542   */\n      0x00\n        /* \"#utility.yul\":22576:22578   */\n      0x20\n        /* \"#utility.yul\":22565:22574   */\n      dup3\n        /* \"#utility.yul\":22561:22579   */\n      add\n        /* \"#utility.yul\":22553:22579   */\n      swap1\n      pop\n        /* \"#utility.yul\":22625:22634   */\n      dup2\n        /* \"#utility.yul\":22619:22623   */\n      dup2\n        /* \"#utility.yul\":22615:22635   */\n      sub\n        /* \"#utility.yul\":22611:22612   */\n      0x00\n        /* \"#utility.yul\":22600:22609   */\n      dup4\n        /* \"#utility.yul\":22596:22613   */\n      add\n        /* \"#utility.yul\":22589:22636   */\n      mstore\n        /* \"#utility.yul\":22653:22784   */\n      tag_437\n        /* \"#utility.yul\":22779:22783   */\n      dup2\n        /* \"#utility.yul\":22653:22784   */\n      tag_211\n      jump\t// in\n    tag_437:\n        /* \"#utility.yul\":22645:22784   */\n      swap1\n      pop\n        /* \"#utility.yul\":22372:22791   */\n      swap2\n      swap1\n      pop\n      jump\t// out\n        /* \"#utility.yul\":22797:22974   */\n    tag_212:\n        /* \"#utility.yul\":22937:22966   */\n      0x456d697373696f6e2064617465206d7573742062652076616c69640000000000\n        /* \"#utility.yul\":22933:22934   */\n      0x00\n        /* \"#utility.yul\":22925:22931   */\n      dup3\n        /* \"#utility.yul\":22921:22935   */\n      add\n        /* \"#utility.yul\":22914:22967   */\n      mstore\n        /* \"#utility.yul\":22797:22974   */\n      pop\n      jump\t// out\n        /* \"#utility.yul\":22980:23346   */\n    tag_213:\n        /* \"#utility.yul\":23122:23125   */\n      0x00\n        /* \"#utility.yul\":23143:23210   */\n      tag_440\n        /* \"#utility.yul\":23207:23209   */\n      0x1b\n        /* \"#utility.yul\":23202:23205   */\n      dup4\n        /* \"#utility.yul\":23143:23210   */\n      tag_168\n      jump\t// in\n    tag_440:\n        /* \"#utility.yul\":23136:23210   */\n      swap2\n      pop\n        /* \"#utility.yul\":23219:23312   */\n      tag_441\n        /* \"#utility.yul\":23308:23311   */\n      dup3\n        /* \"#utility.yul\":23219:23312   */\n      tag_212\n      jump\t// in\n    tag_441:\n        /* \"#utility.yul\":23337:23339   */\n      0x20\n        /* \"#utility.yul\":23332:23335   */\n      dup3\n        /* \"#utility.yul\":23328:23340   */\n      add\n        /* \"#utility.yul\":23321:23340   */\n      swap1\n      pop\n        /* \"#utility.yul\":22980:23346   */\n      swap2\n      swap1\n      pop\n      jump\t// out\n        /* \"#utility.yul\":23352:23771   */\n    tag_124:\n        /* \"#utility.yul\":23518:23522   */\n      0x00\n        /* \"#utility.yul\":23556:23558   */\n      0x20\n        /* \"#utility.yul\":23545:23554   */\n      dup3\n        /* \"#utility.yul\":23541:23559   */\n      add\n        /* \"#utility.yul\":23533:23559   */\n      swap1\n      pop\n        /* \"#utility.yul\":23605:23614   */\n      dup2\n        /* \"#utility.yul\":23599:23603   */\n      dup2\n        /* \"#utility.yul\":23595:23615   */\n      sub\n        /* \"#utility.yul\":23591:23592   */\n      0x00\n        /* \"#utility.yul\":23580:23589   */\n      dup4\n        /* \"#utility.yul\":23576:23593   */\n      add\n        /* \"#utility.yul\":23569:23616   */\n      mstore\n        /* \"#utility.yul\":23633:23764   */\n      tag_443\n        /* \"#utility.yul\":23759:23763   */\n      dup2\n        /* \"#utility.yul\":23633:23764   */\n      tag_213\n      jump\t// in\n    tag_443:\n        /* \"#utility.yul\":23625:23764   */\n      swap1\n      pop\n        /* \"#utility.yul\":23352:23771   */\n      swap2\n      swap1\n      pop\n      jump\t// out\n        /* \"#utility.yul\":23777:23952   */\n    tag_214:\n        /* \"#utility.yul\":23917:23944   */\n      0x4950465320686173682063616e6e6f7420626520656d70747900000000000000\n        /* \"#utility.yul\":23913:23914   */\n      0x00\n        /* \"#utility.yul\":23905:23911   */\n      dup3\n        /* \"#utility.yul\":23901:23915   */\n      add\n        /* \"#utility.yul\":23894:23945   */\n      mstore\n        /* \"#utility.yul\":23777:23952   */\n      pop\n      jump\t// out\n        /* \"#utility.yul\":23958:24324   */\n    tag_215:\n        /* \"#utility.yul\":24100:24103   */\n      0x00\n        /* \"#utility.yul\":24121:24188   */\n      tag_446\n        /* \"#utility.yul\":24185:24187   */\n      0x19\n        /* \"#utility.yul\":24180:24183   */\n      dup4\n        /* \"#utility.yul\":24121:24188   */\n      tag_168\n      jump\t// in\n    tag_446:\n        /* \"#utility.yul\":24114:24188   */\n      swap2\n      pop\n        /* \"#utility.yul\":24197:24290   */\n      tag_447\n        /* \"#utility.yul\":24286:24289   */\n      dup3\n        /* \"#utility.yul\":24197:24290   */\n      tag_214\n      jump\t// in\n    tag_447:\n        /* \"#utility.yul\":24315:24317   */\n      0x20\n        /* \"#utility.yul\":24310:24313   */\n      dup3\n        /* \"#utility.yul\":24306:24318   */\n      add\n        /* \"#utility.yul\":24299:24318   */\n      swap1\n      pop\n        /* \"#utility.yul\":23958:24324   */\n      swap2\n      swap1\n      pop\n      jump\t// out\n        /* \"#utility.yul\":24330:24749   */\n    tag_127:\n        /* \"#utility.yul\":24496:24500   */\n      0x00\n        /* \"#utility.yul\":24534:24536   */\n      0x20\n        /* \"#utility.yul\":24523:24532   */\n      dup3\n        /* \"#utility.yul\":24519:24537   */\n      add\n        /* \"#utility.yul\":24511:24537   */\n      swap1\n      pop\n        /* \"#utility.yul\":24583:24592   */\n      dup2\n        /* \"#utility.yul\":24577:24581   */\n      dup2\n        /* \"#utility.yul\":24573:24593   */\n      sub\n        /* \"#utility.yul\":24569:24570   */\n      0x00\n        /* \"#utility.yul\":24558:24567   */\n      dup4\n        /* \"#utility.yul\":24554:24571   */\n      add\n        /* \"#utility.yul\":24547:24594   */\n      mstore\n        /* \"#utility.yul\":24611:24742   */\n      tag_449\n        /* \"#utility.yul\":24737:24741   */\n      dup2\n        /* \"#utility.yul\":24611:24742   */\n      tag_215\n      jump\t// in\n    tag_449:\n        /* \"#utility.yul\":24603:24742   */\n      swap1\n      pop\n        /* \"#utility.yul\":24330:24749   */\n      swap2\n      swap1\n      pop\n      jump\t// out\n        /* \"#utility.yul\":24755:24981   */\n    tag_216:\n        /* \"#utility.yul\":24895:24929   */\n      0x43657274696669636174652077697468207468697320494420616c7265616479\n        /* \"#utility.yul\":24891:24892   */\n      0x00\n        /* \"#utility.yul\":24883:24889   */\n      dup3\n        /* \"#utility.yul\":24879:24893   */\n      add\n        /* \"#utility.yul\":24872:24930   */\n      mstore\n        /* \"#utility.yul\":24964:24973   */\n      0x2065786973747300000000000000000000000000000000000000000000000000\n        /* \"#utility.yul\":24959:24961   */\n      0x20\n        /* \"#utility.yul\":24951:24957   */\n      dup3\n        /* \"#utility.yul\":24947:24962   */\n      add\n        /* \"#utility.yul\":24940:24974   */\n      mstore\n        /* \"#utility.yul\":24755:24981   */\n      pop\n      jump\t// out\n        /* \"#utility.yul\":24987:25353   */\n    tag_217:\n        /* \"#utility.yul\":25129:25132   */\n      0x00\n        /* \"#utility.yul\":25150:25217   */\n      tag_452\n        /* \"#utility.yul\":25214:25216   */\n      0x27\n        /* \"#utility.yul\":25209:25212   */\n      dup4\n        /* \"#utility.yul\":25150:25217   */\n      tag_168\n      jump\t// in\n    tag_452:\n        /* \"#utility.yul\":25143:25217   */\n      swap2\n      pop\n        /* \"#utility.yul\":25226:25319   */\n      tag_453\n        /* \"#utility.yul\":25315:25318   */\n      dup3\n        /* \"#utility.yul\":25226:25319   */\n      tag_216\n      jump\t// in\n    tag_453:\n        /* \"#utility.yul\":25344:25346   */\n      0x40\n        /* \"#utility.yul\":25339:25342   */\n      dup3\n        /* \"#utility.yul\":25335:25347   */\n      add\n        /* \"#utility.yul\":25328:25347   */\n      swap1\n      pop\n        /* \"#utility.yul\":24987:25353   */\n      swap2\n      swap1\n      pop\n      jump\t// out\n        /* \"#utility.yul\":25359:25778   */\n    tag_132:\n        /* \"#utility.yul\":25525:25529   */\n      0x00\n        /* \"#utility.yul\":25563:25565   */\n      0x20\n        /* \"#utility.yul\":25552:25561   */\n      dup3\n        /* \"#utility.yul\":25548:25566   */\n      add\n        /* \"#utility.yul\":25540:25566   */\n      swap1\n      pop\n        /* \"#utility.yul\":25612:25621   */\n      dup2\n        /* \"#utility.yul\":25606:25610   */\n      dup2\n        /* \"#utility.yul\":25602:25622   */\n      sub\n        /* \"#utility.yul\":25598:25599   */\n      0x00\n        /* \"#utility.yul\":25587:25596   */\n      dup4\n        /* \"#utility.yul\":25583:25600   */\n      add\n        /* \"#utility.yul\":25576:25623   */\n      mstore\n        /* \"#utility.yul\":25640:25771   */\n      tag_455\n        /* \"#utility.yul\":25766:25770   */\n      dup2\n        /* \"#utility.yul\":25640:25771   */\n      tag_217\n      jump\t// in\n    tag_455:\n        /* \"#utility.yul\":25632:25771   */\n      swap1\n      pop\n        /* \"#utility.yul\":25359:25778   */\n      swap2\n      swap1\n      pop\n      jump\t// out\n        /* \"#utility.yul\":25784:25931   */\n    tag_218:\n        /* \"#utility.yul\":25885:25896   */\n      0x00\n        /* \"#utility.yul\":25922:25925   */\n      dup2\n        /* \"#utility.yul\":25907:25925   */\n      swap1\n      pop\n        /* \"#utility.yul\":25784:25931   */\n      swap3\n      swap2\n      pop\n      pop\n      jump\t// out\n        /* \"#utility.yul\":25937:26081   */\n    tag_219:\n        /* \"#utility.yul\":25989:25993   */\n      0x00\n        /* \"#utility.yul\":26012:26015   */\n      dup2\n        /* \"#utility.yul\":26004:26015   */\n      swap1\n      pop\n        /* \"#utility.yul\":26035:26038   */\n      dup2\n        /* \"#utility.yul\":26032:26033   */\n      0x00\n        /* \"#utility.yul\":26025:26039   */\n      mstore\n        /* \"#utility.yul\":26069:26073   */\n      0x20\n        /* \"#utility.yul\":26066:26067   */\n      0x00\n        /* \"#utility.yul\":26056:26074   */\n      keccak256\n        /* \"#utility.yul\":26048:26074   */\n      swap1\n      pop\n        /* \"#utility.yul\":25937:26081   */\n      swap2\n      swap1\n      pop\n      jump\t// out\n        /* \"#utility.yul\":26109:26987   */\n    tag_220:\n        /* \"#utility.yul\":26214:26217   */\n      0x00\n        /* \"#utility.yul\":26251:26256   */\n      dup2\n        /* \"#utility.yul\":26245:26257   */\n      sload\n        /* \"#utility.yul\":26280:26316   */\n      tag_459\n        /* \"#utility.yul\":26306:26315   */\n      dup2\n        /* \"#utility.yul\":26280:26316   */\n      tag_40\n      jump\t// in\n    tag_459:\n        /* \"#utility.yul\":26332:26420   */\n      tag_460\n        /* \"#utility.yul\":26413:26419   */\n      dup2\n        /* \"#utility.yul\":26408:26411   */\n      dup7\n        /* \"#utility.yul\":26332:26420   */\n      tag_218\n      jump\t// in\n    tag_460:\n        /* \"#utility.yul\":26325:26420   */\n      swap5\n      pop\n        /* \"#utility.yul\":26451:26452   */\n      0x01\n        /* \"#utility.yul\":26440:26449   */\n      dup3\n        /* \"#utility.yul\":26436:26453   */\n      and\n        /* \"#utility.yul\":26467:26468   */\n      0x00\n        /* \"#utility.yul\":26462:26628   */\n      dup2\n      eq\n      tag_462\n      jumpi\n        /* \"#utility.yul\":26642:26643   */\n      0x01\n        /* \"#utility.yul\":26637:26981   */\n      dup2\n      eq\n      tag_463\n      jumpi\n        /* \"#utility.yul\":26429:26981   */\n      jump(tag_461)\n        /* \"#utility.yul\":26462:26628   */\n    tag_462:\n        /* \"#utility.yul\":26546:26550   */\n      0xff\n        /* \"#utility.yul\":26542:26551   */\n      not\n        /* \"#utility.yul\":26531:26540   */\n      dup4\n        /* \"#utility.yul\":26527:26552   */\n      and\n        /* \"#utility.yul\":26522:26525   */\n      dup7\n        /* \"#utility.yul\":26515:26553   */\n      mstore\n        /* \"#utility.yul\":26608:26614   */\n      dup2\n        /* \"#utility.yul\":26601:26615   */\n      iszero\n        /* \"#utility.yul\":26594:26616   */\n      iszero\n        /* \"#utility.yul\":26586:26592   */\n      dup3\n        /* \"#utility.yul\":26582:26617   */\n      mul\n        /* \"#utility.yul\":26577:26580   */\n      dup7\n        /* \"#utility.yul\":26573:26618   */\n      add\n        /* \"#utility.yul\":26566:26618   */\n      swap4\n      pop\n        /* \"#utility.yul\":26462:26628   */\n      jump(tag_461)\n        /* \"#utility.yul\":26637:26981   */\n    tag_463:\n        /* \"#utility.yul\":26704:26745   */\n      tag_464\n        /* \"#utility.yul\":26739:26744   */\n      dup6\n        /* \"#utility.yul\":26704:26745   */\n      tag_219\n      jump\t// in\n    tag_464:\n        /* \"#utility.yul\":26767:26768   */\n      0x00\n        /* \"#utility.yul\":26781:26935   */\n    tag_465:\n        /* \"#utility.yul\":26795:26801   */\n      dup4\n        /* \"#utility.yul\":26792:26793   */\n      dup2\n        /* \"#utility.yul\":26789:26802   */\n      lt\n        /* \"#utility.yul\":26781:26935   */\n      iszero\n      tag_467\n      jumpi\n        /* \"#utility.yul\":26869:26876   */\n      dup2\n        /* \"#utility.yul\":26863:26877   */\n      sload\n        /* \"#utility.yul\":26859:26860   */\n      dup2\n        /* \"#utility.yul\":26854:26857   */\n      dup10\n        /* \"#utility.yul\":26850:26861   */\n      add\n        /* \"#utility.yul\":26843:26878   */\n      mstore\n        /* \"#utility.yul\":26919:26920   */\n      0x01\n        /* \"#utility.yul\":26910:26917   */\n      dup3\n        /* \"#utility.yul\":26906:26921   */\n      add\n        /* \"#utility.yul\":26895:26921   */\n      swap2\n      pop\n        /* \"#utility.yul\":26817:26821   */\n      0x20\n        /* \"#utility.yul\":26814:26815   */\n      dup2\n        /* \"#utility.yul\":26810:26822   */\n      add\n        /* \"#utility.yul\":26805:26822   */\n      swap1\n      pop\n        /* \"#utility.yul\":26781:26935   */\n      jump(tag_465)\n    tag_467:\n        /* \"#utility.yul\":26964:26970   */\n      dup4\n        /* \"#utility.yul\":26959:26962   */\n      dup9\n        /* \"#utility.yul\":26955:26971   */\n      add\n        /* \"#utility.yul\":26948:26971   */\n      swap6\n      pop\n        /* \"#utility.yul\":26644:26981   */\n      pop\n      pop\n        /* \"#utility.yul\":26429:26981   */\n    tag_461:\n      pop\n        /* \"#utility.yul\":26218:26987   */\n      pop\n      pop\n        /* \"#utility.yul\":26109:26987   */\n      swap3\n      swap2\n      pop\n      pop\n      jump\t// out\n        /* \"#utility.yul\":26993:27266   */\n    tag_134:\n        /* \"#utility.yul\":27124:27127   */\n      0x00\n        /* \"#utility.yul\":27146:27240   */\n      tag_469\n        /* \"#utility.yul\":27236:27239   */\n      dup3\n        /* \"#utility.yul\":27227:27233   */\n      dup5\n        /* \"#utility.yul\":27146:27240   */\n      tag_220\n      jump\t// in\n    tag_469:\n        /* \"#utility.yul\":27139:27240   */\n      swap2\n      pop\n        /* \"#utility.yul\":27257:27260   */\n      dup2\n        /* \"#utility.yul\":27250:27260   */\n      swap1\n      pop\n        /* \"#utility.yul\":26993:27266   */\n      swap3\n      swap2\n      pop\n      pop\n      jump\t// out\n        /* \"#utility.yul\":27272:27514   */\n    tag_221:\n        /* \"#utility.yul\":27412:27446   */\n      0x4f7267616e697a6174696f6e206e616d6520646f6573206e6f74206d61746368\n        /* \"#utility.yul\":27408:27409   */\n      0x00\n        /* \"#utility.yul\":27400:27406   */\n      dup3\n        /* \"#utility.yul\":27396:27410   */\n      add\n        /* \"#utility.yul\":27389:27447   */\n      mstore\n        /* \"#utility.yul\":27481:27506   */\n      0x2074686520617574686f72697a65642061646472657373000000000000000000\n        /* \"#utility.yul\":27476:27478   */\n      0x20\n        /* \"#utility.yul\":27468:27474   */\n      dup3\n        /* \"#utility.yul\":27464:27479   */\n      add\n        /* \"#utility.yul\":27457:27507   */\n      mstore\n        /* \"#utility.yul\":27272:27514   */\n      pop\n      jump\t// out\n        /* \"#utility.yul\":27520:27886   */\n    tag_222:\n        /* \"#utility.yul\":27662:27665   */\n      0x00\n        /* \"#utility.yul\":27683:27750   */\n      tag_472\n        /* \"#utility.yul\":27747:27749   */\n      0x37\n        /* \"#utility.yul\":27742:27745   */\n      dup4\n        /* \"#utility.yul\":27683:27750   */\n      tag_168\n      jump\t// in\n    tag_472:\n        /* \"#utility.yul\":27676:27750   */\n      swap2\n      pop\n        /* \"#utility.yul\":27759:27852   */\n      tag_473\n        /* \"#utility.yul\":27848:27851   */\n      dup3\n        /* \"#utility.yul\":27759:27852   */\n      tag_221\n      jump\t// in\n    tag_473:\n        /* \"#utility.yul\":27877:27879   */\n      0x40\n        /* \"#utility.yul\":27872:27875   */\n      dup3\n        /* \"#utility.yul\":27868:27880   */\n      add\n        /* \"#utility.yul\":27861:27880   */\n      swap1\n      pop\n        /* \"#utility.yul\":27520:27886   */\n      swap2\n      swap1\n      pop\n      jump\t// out\n        /* \"#utility.yul\":27892:28311   */\n    tag_137:\n        /* \"#utility.yul\":28058:28062   */\n      0x00\n        /* \"#utility.yul\":28096:28098   */\n      0x20\n        /* \"#utility.yul\":28085:28094   */\n      dup3\n        /* \"#utility.yul\":28081:28099   */\n      add\n        /* \"#utility.yul\":28073:28099   */\n      swap1\n      pop\n        /* \"#utility.yul\":28145:28154   */\n      dup2\n        /* \"#utility.yul\":28139:28143   */\n      dup2\n        /* \"#utility.yul\":28135:28155   */\n      sub\n        /* \"#utility.yul\":28131:28132   */\n      0x00\n        /* \"#utility.yul\":28120:28129   */\n      dup4\n        /* \"#utility.yul\":28116:28133   */\n      add\n        /* \"#utility.yul\":28109:28156   */\n      mstore\n        /* \"#utility.yul\":28173:28304   */\n      tag_475\n        /* \"#utility.yul\":28299:28303   */\n      dup2\n        /* \"#utility.yul\":28173:28304   */\n      tag_222\n      jump\t// in\n    tag_475:\n        /* \"#utility.yul\":28165:28304   */\n      swap1\n      pop\n        /* \"#utility.yul\":27892:28311   */\n      swap2\n      swap1\n      pop\n      jump\t// out\n        /* \"#utility.yul\":28317:28630   */\n    tag_144:\n        /* \"#utility.yul\":28430:28434   */\n      0x00\n        /* \"#utility.yul\":28468:28470   */\n      0x20\n        /* \"#utility.yul\":28457:28466   */\n      dup3\n        /* \"#utility.yul\":28453:28471   */\n      add\n        /* \"#utility.yul\":28445:28471   */\n      swap1\n      pop\n        /* \"#utility.yul\":28517:28526   */\n      dup2\n        /* \"#utility.yul\":28511:28515   */\n      dup2\n        /* \"#utility.yul\":28507:28527   */\n      sub\n        /* \"#utility.yul\":28503:28504   */\n      0x00\n        /* \"#utility.yul\":28492:28501   */\n      dup4\n        /* \"#utility.yul\":28488:28505   */\n      add\n        /* \"#utility.yul\":28481:28528   */\n      mstore\n        /* \"#utility.yul\":28545:28623   */\n      tag_477\n        /* \"#utility.yul\":28618:28622   */\n      dup2\n        /* \"#utility.yul\":28609:28615   */\n      dup5\n        /* \"#utility.yul\":28545:28623   */\n      tag_170\n      jump\t// in\n    tag_477:\n        /* \"#utility.yul\":28537:28623   */\n      swap1\n      pop\n        /* \"#utility.yul\":28317:28630   */\n      swap3\n      swap2\n      pop\n      pop\n      jump\t// out\n\n    auxdata: 0xa26469706673582212202c2c07fc1ea7c6170ff9184b23aa83278832c8b1425725871e99f79c22a9674b64736f6c634300081c0033\n}\n",
				"bytecode": {
					"linkReferences": {},
					"object": "6080604052348015600e575f5ffd5b503360025f6101000a81548173ffffffffffffffffffffffffffffffffffffffff021916908373ffffffffffffffffffffffffffffffffffffffff160217905550611bdd8061005c5f395ff3fe608060405234801561000f575f5ffd5b5060043610610060575f3560e01c8063234c76d5146100645780638f2b91ea146100945780639d739043146100c8578063d5ced930146100e4578063ed0f2e7514610100578063ffd022bd14610134575b5f5ffd5b61007e60048036038101906100799190610e8a565b610150565b60405161008b9190610eeb565b60405180910390f35b6100ae60048036038101906100a99190610e8a565b610188565b6040516100bf959493929190610f7c565b60405180910390f35b6100e260048036038101906100dd9190611043565b6103e9565b005b6100fe60048036038101906100f9919061109d565b610500565b005b61011a60048036038101906101159190610e8a565b610611565b60405161012b959493929190610f7c565b60405180910390f35b61014e600480360381019061014991906110f2565b6108db565b005b5f5f5f836040516101619190611241565b9081526020016040518091039020600401805461017d90611284565b905014159050919050565b5f818051602081018201805184825260208301602085012081835280955050505050505f91509050805f0180546101be90611284565b80601f01602080910402602001604051908101604052809291908181526020018280546101ea90611284565b80156102355780601f1061020c57610100808354040283529160200191610235565b820191905f5260205f20905b81548152906001019060200180831161021857829003601f168201915b50505050509080600101805461024a90611284565b80601f016020809104026020016040519081016040528092919081815260200182805461027690611284565b80156102c15780601f10610298576101008083540402835291602001916102c1565b820191905f5260205f20905b8154815290600101906020018083116102a457829003601f168201915b5050505050908060020180546102d690611284565b80601f016020809104026020016040519081016040528092919081815260200182805461030290611284565b801561034d5780601f106103245761010080835404028352916020019161034d565b820191905f5260205f20905b81548152906001019060200180831161033057829003601f168201915b50505050509080600301549080600401805461036890611284565b80601f016020809104026020016040519081016040528092919081815260200182805461039490611284565b80156103df5780601f106103b6576101008083540402835291602001916103df565b820191905f5260205f20905b8154815290600101906020018083116103c257829003601f168201915b5050505050905085565b60025f9054906101000a900473ffffffffffffffffffffffffffffffffffffffff1673ffffffffffffffffffffffffffffffffffffffff163373ffffffffffffffffffffffffffffffffffffffff1614610478576040517f08c379a000000000000000000000000000000000000000000000000000000000815260040161046f906112fe565b60405180910390fd5b8060015f8473ffffffffffffffffffffffffffffffffffffffff1673ffffffffffffffffffffffffffffffffffffffff1681526020019081526020015f2090816104c291906114bc565b507f54eb74644004a78d5f65a4d9e805eb6e2524b80c47ae9324c5566083467c30cf82826040516104f492919061159a565b60405180910390a15050565b60025f9054906101000a900473ffffffffffffffffffffffffffffffffffffffff1673ffffffffffffffffffffffffffffffffffffffff163373ffffffffffffffffffffffffffffffffffffffff161461058f576040517f08c379a0000000000000000000000000000000000000000000000000000000008152600401610586906112fe565b60405180910390fd5b60015f8273ffffffffffffffffffffffffffffffffffffffff1673ffffffffffffffffffffffffffffffffffffffff1681526020019081526020015f205f6105d79190610ce5565b7f66496c008f81f560d8f9c68c2edbb02b6c2f87b21f33ac94d6ba3497fdbfa7208160405161060691906115c8565b60405180910390a150565b60608060605f60605f5f876040516106299190611241565b908152602001604051809103902090505f81600401805461064990611284565b90500361068b576040517f08c379a000000000000000000000000000000000000000000000000000000000815260040161068290611651565b60405180910390fd5b805f0181600101826002018360030154846004018480546106ab90611284565b80601f01602080910402602001604051908101604052809291908181526020018280546106d790611284565b80156107225780601f106106f957610100808354040283529160200191610722565b820191905f5260205f20905b81548152906001019060200180831161070557829003601f168201915b5050505050945083805461073590611284565b80601f016020809104026020016040519081016040528092919081815260200182805461076190611284565b80156107ac5780601f10610783576101008083540402835291602001916107ac565b820191905f5260205f20905b81548152906001019060200180831161078f57829003601f168201915b505050505093508280546107bf90611284565b80601f01602080910402602001604051908101604052809291908181526020018280546107eb90611284565b80156108365780601f1061080d57610100808354040283529160200191610836565b820191905f5260205f20905b81548152906001019060200180831161081957829003601f168201915b5050505050925080805461084990611284565b80601f016020809104026020016040519081016040528092919081815260200182805461087590611284565b80156108c05780601f10610897576101008083540402835291602001916108c0565b820191905f5260205f20905b8154815290600101906020018083116108a357829003601f168201915b50505050509050955095509550955095505091939590929450565b5f60015f3373ffffffffffffffffffffffffffffffffffffffff1673ffffffffffffffffffffffffffffffffffffffff1681526020019081526020015f20805461092490611284565b905003610966576040517f08c379a000000000000000000000000000000000000000000000000000000000815260040161095d906116df565b60405180910390fd5b5f8651116109a9576040517f08c379a00000000000000000000000000000000000000000000000000000000081526004016109a090611747565b60405180910390fd5b5f8551116109ec576040517f08c379a00000000000000000000000000000000000000000000000000000000081526004016109e3906117af565b60405180910390fd5b5f845111610a2f576040517f08c379a0000000000000000000000000000000000000000000000000000000008152600401610a269061183d565b60405180910390fd5b5f835111610a72576040517f08c379a0000000000000000000000000000000000000000000000000000000008152600401610a69906118cb565b60405180910390fd5b5f8211610ab4576040517f08c379a0000000000000000000000000000000000000000000000000000000008152600401610aab90611933565b60405180910390fd5b5f815111610af7576040517f08c379a0000000000000000000000000000000000000000000000000000000008152600401610aee9061199b565b60405180910390fd5b5f5f87604051610b079190611241565b90815260200160405180910390206004018054610b2390611284565b905014610b65576040517f08c379a0000000000000000000000000000000000000000000000000000000008152600401610b5c90611a29565b60405180910390fd5b828051906020012060015f3373ffffffffffffffffffffffffffffffffffffffff1673ffffffffffffffffffffffffffffffffffffffff1681526020019081526020015f20604051610bb79190611ae3565b604051809103902014610bff576040517f08c379a0000000000000000000000000000000000000000000000000000000008152600401610bf690611b69565b60405180910390fd5b6040518060a00160405280868152602001858152602001848152602001838152602001828152505f87604051610c359190611241565b90815260200160405180910390205f820151815f019081610c5691906114bc565b506020820151816001019081610c6c91906114bc565b506040820151816002019081610c8291906114bc565b50606082015181600301556080820151816004019081610ca291906114bc565b509050507f45c2c0e31a5df12dde47f46b104ed706b348f37c21123e21f674930d20ed16c586604051610cd59190611b87565b60405180910390a1505050505050565b508054610cf190611284565b5f825580601f10610d025750610d1f565b601f0160209004905f5260205f2090810190610d1e9190610d22565b5b50565b5b80821115610d39575f815f905550600101610d23565b5090565b5f604051905090565b5f5ffd5b5f5ffd5b5f5ffd5b5f5ffd5b5f601f19601f8301169050919050565b7f4e487b71000000000000000000000000000000000000000000000000000000005f52604160045260245ffd5b610d9c82610d56565b810181811067ffffffffffffffff82111715610dbb57610dba610d66565b5b80604052505050565b5f610dcd610d3d565b9050610dd98282610d93565b919050565b5f67ffffffffffffffff821115610df857610df7610d66565b5b610e0182610d56565b9050602081019050919050565b828183375f83830152505050565b5f610e2e610e2984610dde565b610dc4565b905082815260208101848484011115610e4a57610e49610d52565b5b610e55848285610e0e565b509392505050565b5f82601f830112610e7157610e70610d4e565b5b8135610e81848260208601610e1c565b91505092915050565b5f60208284031215610e9f57610e9e610d46565b5b5f82013567ffffffffffffffff811115610ebc57610ebb610d4a565b5b610ec884828501610e5d565b91505092915050565b5f8115159050919050565b610ee581610ed1565b82525050565b5f602082019050610efe5f830184610edc565b92915050565b5f81519050919050565b5f82825260208201905092915050565b8281835e5f83830152505050565b5f610f3682610f04565b610f408185610f0e565b9350610f50818560208601610f1e565b610f5981610d56565b840191505092915050565b5f819050919050565b610f7681610f64565b82525050565b5f60a0820190508181035f830152610f948188610f2c565b90508181036020830152610fa88187610f2c565b90508181036040830152610fbc8186610f2c565b9050610fcb6060830185610f6d565b8181036080830152610fdd8184610f2c565b90509695505050505050565b5f73ffffffffffffffffffffffffffffffffffffffff82169050919050565b5f61101282610fe9565b9050919050565b61102281611008565b811461102c575f5ffd5b50565b5f8135905061103d81611019565b92915050565b5f5f6040838503121561105957611058610d46565b5b5f6110668582860161102f565b925050602083013567ffffffffffffffff81111561108757611086610d4a565b5b61109385828601610e5d565b9150509250929050565b5f602082840312156110b2576110b1610d46565b5b5f6110bf8482850161102f565b91505092915050565b6110d181610f64565b81146110db575f5ffd5b50565b5f813590506110ec816110c8565b92915050565b5f5f5f5f5f5f60c0878903121561110c5761110b610d46565b5b5f87013567ffffffffffffffff81111561112957611128610d4a565b5b61113589828a01610e5d565b965050602087013567ffffffffffffffff81111561115657611155610d4a565b5b61116289828a01610e5d565b955050604087013567ffffffffffffffff81111561118357611182610d4a565b5b61118f89828a01610e5d565b945050606087013567ffffffffffffffff8111156111b0576111af610d4a565b5b6111bc89828a01610e5d565b93505060806111cd89828a016110de565b92505060a087013567ffffffffffffffff8111156111ee576111ed610d4a565b5b6111fa89828a01610e5d565b9150509295509295509295565b5f81905092915050565b5f61121b82610f04565b6112258185611207565b9350611235818560208601610f1e565b80840191505092915050565b5f61124c8284611211565b915081905092915050565b7f4e487b71000000000000000000000000000000000000000000000000000000005f52602260045260245ffd5b5f600282049050600182168061129b57607f821691505b6020821081036112ae576112ad611257565b5b50919050565b7f43616c6c6572206973206e6f7420746865206f776e65720000000000000000005f82015250565b5f6112e8601783610f0e565b91506112f3826112b4565b602082019050919050565b5f6020820190508181035f830152611315816112dc565b9050919050565b5f819050815f5260205f209050919050565b5f6020601f8301049050919050565b5f82821b905092915050565b5f600883026113787fffffffffffffffffffffffffffffffffffffffffffffffffffffffffffffffff8261133d565b611382868361133d565b95508019841693508086168417925050509392505050565b5f819050919050565b5f6113bd6113b86113b384610f64565b61139a565b610f64565b9050919050565b5f819050919050565b6113d6836113a3565b6113ea6113e2826113c4565b848454611349565b825550505050565b5f5f905090565b6114016113f2565b61140c8184846113cd565b505050565b5b8181101561142f576114245f826113f9565b600181019050611412565b5050565b601f821115611474576114458161131c565b61144e8461132e565b8101602085101561145d578190505b6114716114698561132e565b830182611411565b50505b505050565b5f82821c905092915050565b5f6114945f1984600802611479565b1980831691505092915050565b5f6114ac8383611485565b9150826002028217905092915050565b6114c582610f04565b67ffffffffffffffff8111156114de576114dd610d66565b5b6114e88254611284565b6114f3828285611433565b5f60209050601f831160018114611524575f8415611512578287015190505b61151c85826114a1565b865550611583565b601f1984166115328661131c565b5f5b8281101561155957848901518255600182019150602085019450602081019050611534565b868310156115765784890151611572601f891682611485565b8355505b6001600288020188555050505b505050505050565b61159481611008565b82525050565b5f6040820190506115ad5f83018561158b565b81810360208301526115bf8184610f2c565b90509392505050565b5f6020820190506115db5f83018461158b565b92915050565b7f43657274696669636174652077697468207468697320494420646f6573206e6f5f8201527f7420657869737400000000000000000000000000000000000000000000000000602082015250565b5f61163b602783610f0e565b9150611646826115e1565b604082019050919050565b5f6020820190508181035f8301526116688161162f565b9050919050565b7f43616c6c6572206973206e6f7420616e20617574686f72697a6564206f7267615f8201527f6e697a6174696f6e000000000000000000000000000000000000000000000000602082015250565b5f6116c9602883610f0e565b91506116d48261166f565b604082019050919050565b5f6020820190508181035f8301526116f6816116bd565b9050919050565b7f43657274696669636174652049442063616e6e6f7420626520656d70747900005f82015250565b5f611731601e83610f0e565b915061173c826116fd565b602082019050919050565b5f6020820190508181035f83015261175e81611725565b9050919050565b7f43616e646964617465206e616d652063616e6e6f7420626520656d70747900005f82015250565b5f611799601e83610f0e565b91506117a482611765565b602082019050919050565b5f6020820190508181035f8301526117c68161178d565b9050919050565b7f43657274696669636174696f6e206e616d652063616e6e6f7420626520656d705f8201527f7479000000000000000000000000000000000000000000000000000000000000602082015250565b5f611827602283610f0e565b9150611832826117cd565b604082019050919050565b5f6020820190508181035f8301526118548161181b565b9050919050565b7f4f7267616e697a6174696f6e206e616d652063616e6e6f7420626520656d70745f8201527f7900000000000000000000000000000000000000000000000000000000000000602082015250565b5f6118b5602183610f0e565b91506118c08261185b565b604082019050919050565b5f6020820190508181035f8301526118e2816118a9565b9050919050565b7f456d697373696f6e2064617465206d7573742062652076616c696400000000005f82015250565b5f61191d601b83610f0e565b9150611928826118e9565b602082019050919050565b5f6020820190508181035f83015261194a81611911565b9050919050565b7f4950465320686173682063616e6e6f7420626520656d707479000000000000005f82015250565b5f611985601983610f0e565b915061199082611951565b602082019050919050565b5f6020820190508181035f8301526119b281611979565b9050919050565b7f43657274696669636174652077697468207468697320494420616c72656164795f8201527f2065786973747300000000000000000000000000000000000000000000000000602082015250565b5f611a13602783610f0e565b9150611a1e826119b9565b604082019050919050565b5f6020820190508181035f830152611a4081611a07565b9050919050565b5f81905092915050565b5f819050815f5260205f209050919050565b5f8154611a6f81611284565b611a798186611a47565b9450600182165f8114611a935760018114611aa857611ada565b60ff1983168652811515820286019350611ada565b611ab185611a51565b5f5b83811015611ad257815481890152600182019150602081019050611ab3565b838801955050505b50505092915050565b5f611aee8284611a63565b915081905092915050565b7f4f7267616e697a6174696f6e206e616d6520646f6573206e6f74206d617463685f8201527f2074686520617574686f72697a65642061646472657373000000000000000000602082015250565b5f611b53603783610f0e565b9150611b5e82611af9565b604082019050919050565b5f6020820190508181035f830152611b8081611b47565b9050919050565b5f6020820190508181035f830152611b9f8184610f2c565b90509291505056fea26469706673582212202c2c07fc1ea7c6170ff9184b23aa83278832c8b1425725871e99f79c22a9674b64736f6c634300081c0033",
					"opcodes": "PUSH1 0x80 PUSH1 0x40 MSTORE CALLVALUE DUP1 ISZERO PUSH1 0xE JUMPI PUSH0 PUSH0 REVERT JUMPDEST POP CALLER PUSH1 0x2 PUSH0 PUSH2 0x100 EXP DUP2 SLOAD DUP2 PUSH20 0xFFFFFFFFFFFFFFFFFFFFFFFFFFFFFFFFFFFFFFFF MUL NOT AND SWAP1 DUP4 PUSH20 0xFFFFFFFFFFFFFFFFFFFFFFFFFFFFFFFFFFFFFFFF AND MUL OR SWAP1 SSTORE POP PUSH2 0x1BDD DUP1 PUSH2 0x5C PUSH0 CODECOPY PUSH0 RETURN INVALID PUSH1 0x80 PUSH1 0x40 MSTORE CALLVALUE DUP1 ISZERO PUSH2 0xF JUMPI PUSH0 PUSH0 REVERT JUMPDEST POP PUSH1 0x4 CALLDATASIZE LT PUSH2 0x60 JUMPI PUSH0 CALLDATALOAD PUSH1 0xE0 SHR DUP1 PUSH4 0x234C76D5 EQ PUSH2 0x64 JUMPI DUP1 PUSH4 0x8F2B91EA EQ PUSH2 0x94 JUMPI DUP1 PUSH4 0x9D739043 EQ PUSH2 0xC8 JUMPI DUP1 PUSH4 0xD5CED930 EQ PUSH2 0xE4 JUMPI DUP1 PUSH4 0xED0F2E75 EQ PUSH2 0x100 JUMPI DUP1 PUSH4 0xFFD022BD EQ PUSH2 0x134 JUMPI JUMPDEST PUSH0 PUSH0 REVERT JUMPDEST PUSH2 0x7E PUSH1 0x4 DUP1 CALLDATASIZE SUB DUP2 ADD SWAP1 PUSH2 0x79 SWAP2 SWAP1 PUSH2 0xE8A JUMP JUMPDEST PUSH2 0x150 JUMP JUMPDEST PUSH1 0x40 MLOAD PUSH2 0x8B SWAP2 SWAP1 PUSH2 0xEEB JUMP JUMPDEST PUSH1 0x40 MLOAD DUP1 SWAP2 SUB SWAP1 RETURN JUMPDEST PUSH2 0xAE PUSH1 0x4 DUP1 CALLDATASIZE SUB DUP2 ADD SWAP1 PUSH2 0xA9 SWAP2 SWAP1 PUSH2 0xE8A JUMP JUMPDEST PUSH2 0x188 JUMP JUMPDEST PUSH1 0x40 MLOAD PUSH2 0xBF SWAP6 SWAP5 SWAP4 SWAP3 SWAP2 SWAP1 PUSH2 0xF7C JUMP JUMPDEST PUSH1 0x40 MLOAD DUP1 SWAP2 SUB SWAP1 RETURN JUMPDEST PUSH2 0xE2 PUSH1 0x4 DUP1 CALLDATASIZE SUB DUP2 ADD SWAP1 PUSH2 0xDD SWAP2 SWAP1 PUSH2 0x1043 JUMP JUMPDEST PUSH2 0x3E9 JUMP JUMPDEST STOP JUMPDEST PUSH2 0xFE PUSH1 0x4 DUP1 CALLDATASIZE SUB DUP2 ADD SWAP1 PUSH2 0xF9 SWAP2 SWAP1 PUSH2 0x109D JUMP JUMPDEST PUSH2 0x500 JUMP JUMPDEST STOP JUMPDEST PUSH2 0x11A PUSH1 0x4 DUP1 CALLDATASIZE SUB DUP2 ADD SWAP1 PUSH2 0x115 SWAP2 SWAP1 PUSH2 0xE8A JUMP JUMPDEST PUSH2 0x611 JUMP JUMPDEST PUSH1 0x40 MLOAD PUSH2 0x12B SWAP6 SWAP5 SWAP4 SWAP3 SWAP2 SWAP1 PUSH2 0xF7C JUMP JUMPDEST PUSH1 0x40 MLOAD DUP1 SWAP2 SUB SWAP1 RETURN JUMPDEST PUSH2 0x14E PUSH1 0x4 DUP1 CALLDATASIZE SUB DUP2 ADD SWAP1 PUSH2 0x149 SWAP2 SWAP1 PUSH2 0x10F2 JUMP JUMPDEST PUSH2 0x8DB JUMP JUMPDEST STOP JUMPDEST PUSH0 PUSH0 PUSH0 DUP4 PUSH1 0x40 MLOAD PUSH2 0x161 SWAP2 SWAP1 PUSH2 0x1241 JUMP JUMPDEST SWAP1 DUP2 MSTORE PUSH1 0x20 ADD PUSH1 0x40 MLOAD DUP1 SWAP2 SUB SWAP1 KECCAK256 PUSH1 0x4 ADD DUP1 SLOAD PUSH2 0x17D SWAP1 PUSH2 0x1284 JUMP JUMPDEST SWAP1 POP EQ ISZERO SWAP1 POP SWAP2 SWAP1 POP JUMP JUMPDEST PUSH0 DUP2 DUP1 MLOAD PUSH1 0x20 DUP2 ADD DUP3 ADD DUP1 MLOAD DUP5 DUP3 MSTORE PUSH1 0x20 DUP4 ADD PUSH1 0x20 DUP6 ADD KECCAK256 DUP2 DUP4 MSTORE DUP1 SWAP6 POP POP POP POP POP POP PUSH0 SWAP2 POP SWAP1 POP DUP1 PUSH0 ADD DUP1 SLOAD PUSH2 0x1BE SWAP1 PUSH2 0x1284 JUMP JUMPDEST DUP1 PUSH1 0x1F ADD PUSH1 0x20 DUP1 SWAP2 DIV MUL PUSH1 0x20 ADD PUSH1 0x40 MLOAD SWAP1 DUP2 ADD PUSH1 0x40 MSTORE DUP1 SWAP3 SWAP2 SWAP1 DUP2 DUP2 MSTORE PUSH1 0x20 ADD DUP3 DUP1 SLOAD PUSH2 0x1EA SWAP1 PUSH2 0x1284 JUMP JUMPDEST DUP1 ISZERO PUSH2 0x235 JUMPI DUP1 PUSH1 0x1F LT PUSH2 0x20C JUMPI PUSH2 0x100 DUP1 DUP4 SLOAD DIV MUL DUP4 MSTORE SWAP2 PUSH1 0x20 ADD SWAP2 PUSH2 0x235 JUMP JUMPDEST DUP3 ADD SWAP2 SWAP1 PUSH0 MSTORE PUSH1 0x20 PUSH0 KECCAK256 SWAP1 JUMPDEST DUP2 SLOAD DUP2 MSTORE SWAP1 PUSH1 0x1 ADD SWAP1 PUSH1 0x20 ADD DUP1 DUP4 GT PUSH2 0x218 JUMPI DUP3 SWAP1 SUB PUSH1 0x1F AND DUP3 ADD SWAP2 JUMPDEST POP POP POP POP POP SWAP1 DUP1 PUSH1 0x1 ADD DUP1 SLOAD PUSH2 0x24A SWAP1 PUSH2 0x1284 JUMP JUMPDEST DUP1 PUSH1 0x1F ADD PUSH1 0x20 DUP1 SWAP2 DIV MUL PUSH1 0x20 ADD PUSH1 0x40 MLOAD SWAP1 DUP2 ADD PUSH1 0x40 MSTORE DUP1 SWAP3 SWAP2 SWAP1 DUP2 DUP2 MSTORE PUSH1 0x20 ADD DUP3 DUP1 SLOAD PUSH2 0x276 SWAP1 PUSH2 0x1284 JUMP JUMPDEST DUP1 ISZERO PUSH2 0x2C1 JUMPI DUP1 PUSH1 0x1F LT PUSH2 0x298 JUMPI PUSH2 0x100 DUP1 DUP4 SLOAD DIV MUL DUP4 MSTORE SWAP2 PUSH1 0x20 ADD SWAP2 PUSH2 0x2C1 JUMP JUMPDEST DUP3 ADD SWAP2 SWAP1 PUSH0 MSTORE PUSH1 0x20 PUSH0 KECCAK256 SWAP1 JUMPDEST DUP2 SLOAD DUP2 MSTORE SWAP1 PUSH1 0x1 ADD SWAP1 PUSH1 0x20 ADD DUP1 DUP4 GT PUSH2 0x2A4 JUMPI DUP3 SWAP1 SUB PUSH1 0x1F AND DUP3 ADD SWAP2 JUMPDEST POP POP POP POP POP SWAP1 DUP1 PUSH1 0x2 ADD DUP1 SLOAD PUSH2 0x2D6 SWAP1 PUSH2 0x1284 JUMP JUMPDEST DUP1 PUSH1 0x1F ADD PUSH1 0x20 DUP1 SWAP2 DIV MUL PUSH1 0x20 ADD PUSH1 0x40 MLOAD SWAP1 DUP2 ADD PUSH1 0x40 MSTORE DUP1 SWAP3 SWAP2 SWAP1 DUP2 DUP2 MSTORE PUSH1 0x20 ADD DUP3 DUP1 SLOAD PUSH2 0x302 SWAP1 PUSH2 0x1284 JUMP JUMPDEST DUP1 ISZERO PUSH2 0x34D JUMPI DUP1 PUSH1 0x1F LT PUSH2 0x324 JUMPI PUSH2 0x100 DUP1 DUP4 SLOAD DIV MUL DUP4 MSTORE SWAP2 PUSH1 0x20 ADD SWAP2 PUSH2 0x34D JUMP JUMPDEST DUP3 ADD SWAP2 SWAP1 PUSH0 MSTORE PUSH1 0x20 PUSH0 KECCAK256 SWAP1 JUMPDEST DUP2 SLOAD DUP2 MSTORE SWAP1 PUSH1 0x1 ADD SWAP1 PUSH1 0x20 ADD DUP1 DUP4 GT PUSH2 0x330 JUMPI DUP3 SWAP1 SUB PUSH1 0x1F AND DUP3 ADD SWAP2 JUMPDEST POP POP POP POP POP SWAP1 DUP1 PUSH1 0x3 ADD SLOAD SWAP1 DUP1 PUSH1 0x4 ADD DUP1 SLOAD PUSH2 0x368 SWAP1 PUSH2 0x1284 JUMP JUMPDEST DUP1 PUSH1 0x1F ADD PUSH1 0x20 DUP1 SWAP2 DIV MUL PUSH1 0x20 ADD PUSH1 0x40 MLOAD SWAP1 DUP2 ADD PUSH1 0x40 MSTORE DUP1 SWAP3 SWAP2 SWAP1 DUP2 DUP2 MSTORE PUSH1 0x20 ADD DUP3 DUP1 SLOAD PUSH2 0x394 SWAP1 PUSH2 0x1284 JUMP JUMPDEST DUP1 ISZERO PUSH2 0x3DF JUMPI DUP1 PUSH1 0x1F LT PUSH2 0x3B6 JUMPI PUSH2 0x100 DUP1 DUP4 SLOAD DIV MUL DUP4 MSTORE SWAP2 PUSH1 0x20 ADD SWAP2 PUSH2 0x3DF JUMP JUMPDEST DUP3 ADD SWAP2 SWAP1 PUSH0 MSTORE PUSH1 0x20 PUSH0 KECCAK256 SWAP1 JUMPDEST DUP2 SLOAD DUP2 MSTORE SWAP1 PUSH1 0x1 ADD SWAP1 PUSH1 0x20 ADD DUP1 DUP4 GT PUSH2 0x3C2 JUMPI DUP3 SWAP1 SUB PUSH1 0x1F AND DUP3 ADD SWAP2 JUMPDEST POP POP POP POP POP SWAP1 POP DUP6 JUMP JUMPDEST PUSH1 0x2 PUSH0 SWAP1 SLOAD SWAP1 PUSH2 0x100 EXP SWAP1 DIV PUSH20 0xFFFFFFFFFFFFFFFFFFFFFFFFFFFFFFFFFFFFFFFF AND PUSH20 0xFFFFFFFFFFFFFFFFFFFFFFFFFFFFFFFFFFFFFFFF AND CALLER PUSH20 0xFFFFFFFFFFFFFFFFFFFFFFFFFFFFFFFFFFFFFFFF AND EQ PUSH2 0x478 JUMPI PUSH1 0x40 MLOAD PUSH32 0x8C379A000000000000000000000000000000000000000000000000000000000 DUP2 MSTORE PUSH1 0x4 ADD PUSH2 0x46F SWAP1 PUSH2 0x12FE JUMP JUMPDEST PUSH1 0x40 MLOAD DUP1 SWAP2 SUB SWAP1 REVERT JUMPDEST DUP1 PUSH1 0x1 PUSH0 DUP5 PUSH20 0xFFFFFFFFFFFFFFFFFFFFFFFFFFFFFFFFFFFFFFFF AND PUSH20 0xFFFFFFFFFFFFFFFFFFFFFFFFFFFFFFFFFFFFFFFF AND DUP2 MSTORE PUSH1 0x20 ADD SWAP1 DUP2 MSTORE PUSH1 0x20 ADD PUSH0 KECCAK256 SWAP1 DUP2 PUSH2 0x4C2 SWAP2 SWAP1 PUSH2 0x14BC JUMP JUMPDEST POP PUSH32 0x54EB74644004A78D5F65A4D9E805EB6E2524B80C47AE9324C5566083467C30CF DUP3 DUP3 PUSH1 0x40 MLOAD PUSH2 0x4F4 SWAP3 SWAP2 SWAP1 PUSH2 0x159A JUMP JUMPDEST PUSH1 0x40 MLOAD DUP1 SWAP2 SUB SWAP1 LOG1 POP POP JUMP JUMPDEST PUSH1 0x2 PUSH0 SWAP1 SLOAD SWAP1 PUSH2 0x100 EXP SWAP1 DIV PUSH20 0xFFFFFFFFFFFFFFFFFFFFFFFFFFFFFFFFFFFFFFFF AND PUSH20 0xFFFFFFFFFFFFFFFFFFFFFFFFFFFFFFFFFFFFFFFF AND CALLER PUSH20 0xFFFFFFFFFFFFFFFFFFFFFFFFFFFFFFFFFFFFFFFF AND EQ PUSH2 0x58F JUMPI PUSH1 0x40 MLOAD PUSH32 0x8C379A000000000000000000000000000000000000000000000000000000000 DUP2 MSTORE PUSH1 0x4 ADD PUSH2 0x586 SWAP1 PUSH2 0x12FE JUMP JUMPDEST PUSH1 0x40 MLOAD DUP1 SWAP2 SUB SWAP1 REVERT JUMPDEST PUSH1 0x1 PUSH0 DUP3 PUSH20 0xFFFFFFFFFFFFFFFFFFFFFFFFFFFFFFFFFFFFFFFF AND PUSH20 0xFFFFFFFFFFFFFFFFFFFFFFFFFFFFFFFFFFFFFFFF AND DUP2 MSTORE PUSH1 0x20 ADD SWAP1 DUP2 MSTORE PUSH1 0x20 ADD PUSH0 KECCAK256 PUSH0 PUSH2 0x5D7 SWAP2 SWAP1 PUSH2 0xCE5 JUMP JUMPDEST PUSH32 0x66496C008F81F560D8F9C68C2EDBB02B6C2F87B21F33AC94D6BA3497FDBFA720 DUP2 PUSH1 0x40 MLOAD PUSH2 0x606 SWAP2 SWAP1 PUSH2 0x15C8 JUMP JUMPDEST PUSH1 0x40 MLOAD DUP1 SWAP2 SUB SWAP1 LOG1 POP JUMP JUMPDEST PUSH1 0x60 DUP1 PUSH1 0x60 PUSH0 PUSH1 0x60 PUSH0 PUSH0 DUP8 PUSH1 0x40 MLOAD PUSH2 0x629 SWAP2 SWAP1 PUSH2 0x1241 JUMP JUMPDEST SWAP1 DUP2 MSTORE PUSH1 0x20 ADD PUSH1 0x40 MLOAD DUP1 SWAP2 SUB SWAP1 KECCAK256 SWAP1 POP PUSH0 DUP2 PUSH1 0x4 ADD DUP1 SLOAD PUSH2 0x649 SWAP1 PUSH2 0x1284 JUMP JUMPDEST SWAP1 POP SUB PUSH2 0x68B JUMPI PUSH1 0x40 MLOAD PUSH32 0x8C379A000000000000000000000000000000000000000000000000000000000 DUP2 MSTORE PUSH1 0x4 ADD PUSH2 0x682 SWAP1 PUSH2 0x1651 JUMP JUMPDEST PUSH1 0x40 MLOAD DUP1 SWAP2 SUB SWAP1 REVERT JUMPDEST DUP1 PUSH0 ADD DUP2 PUSH1 0x1 ADD DUP3 PUSH1 0x2 ADD DUP4 PUSH1 0x3 ADD SLOAD DUP5 PUSH1 0x4 ADD DUP5 DUP1 SLOAD PUSH2 0x6AB SWAP1 PUSH2 0x1284 JUMP JUMPDEST DUP1 PUSH1 0x1F ADD PUSH1 0x20 DUP1 SWAP2 DIV MUL PUSH1 0x20 ADD PUSH1 0x40 MLOAD SWAP1 DUP2 ADD PUSH1 0x40 MSTORE DUP1 SWAP3 SWAP2 SWAP1 DUP2 DUP2 MSTORE PUSH1 0x20 ADD DUP3 DUP1 SLOAD PUSH2 0x6D7 SWAP1 PUSH2 0x1284 JUMP JUMPDEST DUP1 ISZERO PUSH2 0x722 JUMPI DUP1 PUSH1 0x1F LT PUSH2 0x6F9 JUMPI PUSH2 0x100 DUP1 DUP4 SLOAD DIV MUL DUP4 MSTORE SWAP2 PUSH1 0x20 ADD SWAP2 PUSH2 0x722 JUMP JUMPDEST DUP3 ADD SWAP2 SWAP1 PUSH0 MSTORE PUSH1 0x20 PUSH0 KECCAK256 SWAP1 JUMPDEST DUP2 SLOAD DUP2 MSTORE SWAP1 PUSH1 0x1 ADD SWAP1 PUSH1 0x20 ADD DUP1 DUP4 GT PUSH2 0x705 JUMPI DUP3 SWAP1 SUB PUSH1 0x1F AND DUP3 ADD SWAP2 JUMPDEST POP POP POP POP POP SWAP5 POP DUP4 DUP1 SLOAD PUSH2 0x735 SWAP1 PUSH2 0x1284 JUMP JUMPDEST DUP1 PUSH1 0x1F ADD PUSH1 0x20 DUP1 SWAP2 DIV MUL PUSH1 0x20 ADD PUSH1 0x40 MLOAD SWAP1 DUP2 ADD PUSH1 0x40 MSTORE DUP1 SWAP3 SWAP2 SWAP1 DUP2 DUP2 MSTORE PUSH1 0x20 ADD DUP3 DUP1 SLOAD PUSH2 0x761 SWAP1 PUSH2 0x1284 JUMP JUMPDEST DUP1 ISZERO PUSH2 0x7AC JUMPI DUP1 PUSH1 0x1F LT PUSH2 0x783 JUMPI PUSH2 0x100 DUP1 DUP4 SLOAD DIV MUL DUP4 MSTORE SWAP2 PUSH1 0x20 ADD SWAP2 PUSH2 0x7AC JUMP JUMPDEST DUP3 ADD SWAP2 SWAP1 PUSH0 MSTORE PUSH1 0x20 PUSH0 KECCAK256 SWAP1 JUMPDEST DUP2 SLOAD DUP2 MSTORE SWAP1 PUSH1 0x1 ADD SWAP1 PUSH1 0x20 ADD DUP1 DUP4 GT PUSH2 0x78F JUMPI DUP3 SWAP1 SUB PUSH1 0x1F AND DUP3 ADD SWAP2 JUMPDEST POP POP POP POP POP SWAP4 POP DUP3 DUP1 SLOAD PUSH2 0x7BF SWAP1 PUSH2 0x1284 JUMP JUMPDEST DUP1 PUSH1 0x1F ADD PUSH1 0x20 DUP1 SWAP2 DIV MUL PUSH1 0x20 ADD PUSH1 0x40 MLOAD SWAP1 DUP2 ADD PUSH1 0x40 MSTORE DUP1 SWAP3 SWAP2 SWAP1 DUP2 DUP2 MSTORE PUSH1 0x20 ADD DUP3 DUP1 SLOAD PUSH2 0x7EB SWAP1 PUSH2 0x1284 JUMP JUMPDEST DUP1 ISZERO PUSH2 0x836 JUMPI DUP1 PUSH1 0x1F LT PUSH2 0x80D JUMPI PUSH2 0x100 DUP1 DUP4 SLOAD DIV MUL DUP4 MSTORE SWAP2 PUSH1 0x20 ADD SWAP2 PUSH2 0x836 JUMP JUMPDEST DUP3 ADD SWAP2 SWAP1 PUSH0 MSTORE PUSH1 0x20 PUSH0 KECCAK256 SWAP1 JUMPDEST DUP2 SLOAD DUP2 MSTORE SWAP1 PUSH1 0x1 ADD SWAP1 PUSH1 0x20 ADD DUP1 DUP4 GT PUSH2 0x819 JUMPI DUP3 SWAP1 SUB PUSH1 0x1F AND DUP3 ADD SWAP2 JUMPDEST POP POP POP POP POP SWAP3 POP DUP1 DUP1 SLOAD PUSH2 0x849 SWAP1 PUSH2 0x1284 JUMP JUMPDEST DUP1 PUSH1 0x1F ADD PUSH1 0x20 DUP1 SWAP2 DIV MUL PUSH1 0x20 ADD PUSH1 0x40 MLOAD SWAP1 DUP2 ADD PUSH1 0x40 MSTORE DUP1 SWAP3 SWAP2 SWAP1 DUP2 DUP2 MSTORE PUSH1 0x20 ADD DUP3 DUP1 SLOAD PUSH2 0x875 SWAP1 PUSH2 0x1284 JUMP JUMPDEST DUP1 ISZERO PUSH2 0x8C0 JUMPI DUP1 PUSH1 0x1F LT PUSH2 0x897 JUMPI PUSH2 0x100 DUP1 DUP4 SLOAD DIV MUL DUP4 MSTORE SWAP2 PUSH1 0x20 ADD SWAP2 PUSH2 0x8C0 JUMP JUMPDEST DUP3 ADD SWAP2 SWAP1 PUSH0 MSTORE PUSH1 0x20 PUSH0 KECCAK256 SWAP1 JUMPDEST DUP2 SLOAD DUP2 MSTORE SWAP1 PUSH1 0x1 ADD SWAP1 PUSH1 0x20 ADD DUP1 DUP4 GT PUSH2 0x8A3 JUMPI DUP3 SWAP1 SUB PUSH1 0x1F AND DUP3 ADD SWAP2 JUMPDEST POP POP POP POP POP SWAP1 POP SWAP6 POP SWAP6 POP SWAP6 POP SWAP6 POP SWAP6 POP POP SWAP2 SWAP4 SWAP6 SWAP1 SWAP3 SWAP5 POP JUMP JUMPDEST PUSH0 PUSH1 0x1 PUSH0 CALLER PUSH20 0xFFFFFFFFFFFFFFFFFFFFFFFFFFFFFFFFFFFFFFFF AND PUSH20 0xFFFFFFFFFFFFFFFFFFFFFFFFFFFFFFFFFFFFFFFF AND DUP2 MSTORE PUSH1 0x20 ADD SWAP1 DUP2 MSTORE PUSH1 0x20 ADD PUSH0 KECCAK256 DUP1 SLOAD PUSH2 0x924 SWAP1 PUSH2 0x1284 JUMP JUMPDEST SWAP1 POP SUB PUSH2 0x966 JUMPI PUSH1 0x40 MLOAD PUSH32 0x8C379A000000000000000000000000000000000000000000000000000000000 DUP2 MSTORE PUSH1 0x4 ADD PUSH2 0x95D SWAP1 PUSH2 0x16DF JUMP JUMPDEST PUSH1 0x40 MLOAD DUP1 SWAP2 SUB SWAP1 REVERT JUMPDEST PUSH0 DUP7 MLOAD GT PUSH2 0x9A9 JUMPI PUSH1 0x40 MLOAD PUSH32 0x8C379A000000000000000000000000000000000000000000000000000000000 DUP2 MSTORE PUSH1 0x4 ADD PUSH2 0x9A0 SWAP1 PUSH2 0x1747 JUMP JUMPDEST PUSH1 0x40 MLOAD DUP1 SWAP2 SUB SWAP1 REVERT JUMPDEST PUSH0 DUP6 MLOAD GT PUSH2 0x9EC JUMPI PUSH1 0x40 MLOAD PUSH32 0x8C379A000000000000000000000000000000000000000000000000000000000 DUP2 MSTORE PUSH1 0x4 ADD PUSH2 0x9E3 SWAP1 PUSH2 0x17AF JUMP JUMPDEST PUSH1 0x40 MLOAD DUP1 SWAP2 SUB SWAP1 REVERT JUMPDEST PUSH0 DUP5 MLOAD GT PUSH2 0xA2F JUMPI PUSH1 0x40 MLOAD PUSH32 0x8C379A000000000000000000000000000000000000000000000000000000000 DUP2 MSTORE PUSH1 0x4 ADD PUSH2 0xA26 SWAP1 PUSH2 0x183D JUMP JUMPDEST PUSH1 0x40 MLOAD DUP1 SWAP2 SUB SWAP1 REVERT JUMPDEST PUSH0 DUP4 MLOAD GT PUSH2 0xA72 JUMPI PUSH1 0x40 MLOAD PUSH32 0x8C379A000000000000000000000000000000000000000000000000000000000 DUP2 MSTORE PUSH1 0x4 ADD PUSH2 0xA69 SWAP1 PUSH2 0x18CB JUMP JUMPDEST PUSH1 0x40 MLOAD DUP1 SWAP2 SUB SWAP1 REVERT JUMPDEST PUSH0 DUP3 GT PUSH2 0xAB4 JUMPI PUSH1 0x40 MLOAD PUSH32 0x8C379A000000000000000000000000000000000000000000000000000000000 DUP2 MSTORE PUSH1 0x4 ADD PUSH2 0xAAB SWAP1 PUSH2 0x1933 JUMP JUMPDEST PUSH1 0x40 MLOAD DUP1 SWAP2 SUB SWAP1 REVERT JUMPDEST PUSH0 DUP2 MLOAD GT PUSH2 0xAF7 JUMPI PUSH1 0x40 MLOAD PUSH32 0x8C379A000000000000000000000000000000000000000000000000000000000 DUP2 MSTORE PUSH1 0x4 ADD PUSH2 0xAEE SWAP1 PUSH2 0x199B JUMP JUMPDEST PUSH1 0x40 MLOAD DUP1 SWAP2 SUB SWAP1 REVERT JUMPDEST PUSH0 PUSH0 DUP8 PUSH1 0x40 MLOAD PUSH2 0xB07 SWAP2 SWAP1 PUSH2 0x1241 JUMP JUMPDEST SWAP1 DUP2 MSTORE PUSH1 0x20 ADD PUSH1 0x40 MLOAD DUP1 SWAP2 SUB SWAP1 KECCAK256 PUSH1 0x4 ADD DUP1 SLOAD PUSH2 0xB23 SWAP1 PUSH2 0x1284 JUMP JUMPDEST SWAP1 POP EQ PUSH2 0xB65 JUMPI PUSH1 0x40 MLOAD PUSH32 0x8C379A000000000000000000000000000000000000000000000000000000000 DUP2 MSTORE PUSH1 0x4 ADD PUSH2 0xB5C SWAP1 PUSH2 0x1A29 JUMP JUMPDEST PUSH1 0x40 MLOAD DUP1 SWAP2 SUB SWAP1 REVERT JUMPDEST DUP3 DUP1 MLOAD SWAP1 PUSH1 0x20 ADD KECCAK256 PUSH1 0x1 PUSH0 CALLER PUSH20 0xFFFFFFFFFFFFFFFFFFFFFFFFFFFFFFFFFFFFFFFF AND PUSH20 0xFFFFFFFFFFFFFFFFFFFFFFFFFFFFFFFFFFFFFFFF AND DUP2 MSTORE PUSH1 0x20 ADD SWAP1 DUP2 MSTORE PUSH1 0x20 ADD PUSH0 KECCAK256 PUSH1 0x40 MLOAD PUSH2 0xBB7 SWAP2 SWAP1 PUSH2 0x1AE3 JUMP JUMPDEST PUSH1 0x40 MLOAD DUP1 SWAP2 SUB SWAP1 KECCAK256 EQ PUSH2 0xBFF JUMPI PUSH1 0x40 MLOAD PUSH32 0x8C379A000000000000000000000000000000000000000000000000000000000 DUP2 MSTORE PUSH1 0x4 ADD PUSH2 0xBF6 SWAP1 PUSH2 0x1B69 JUMP JUMPDEST PUSH1 0x40 MLOAD DUP1 SWAP2 SUB SWAP1 REVERT JUMPDEST PUSH1 0x40 MLOAD DUP1 PUSH1 0xA0 ADD PUSH1 0x40 MSTORE DUP1 DUP7 DUP2 MSTORE PUSH1 0x20 ADD DUP6 DUP2 MSTORE PUSH1 0x20 ADD DUP5 DUP2 MSTORE PUSH1 0x20 ADD DUP4 DUP2 MSTORE PUSH1 0x20 ADD DUP3 DUP2 MSTORE POP PUSH0 DUP8 PUSH1 0x40 MLOAD PUSH2 0xC35 SWAP2 SWAP1 PUSH2 0x1241 JUMP JUMPDEST SWAP1 DUP2 MSTORE PUSH1 0x20 ADD PUSH1 0x40 MLOAD DUP1 SWAP2 SUB SWAP1 KECCAK256 PUSH0 DUP3 ADD MLOAD DUP2 PUSH0 ADD SWAP1 DUP2 PUSH2 0xC56 SWAP2 SWAP1 PUSH2 0x14BC JUMP JUMPDEST POP PUSH1 0x20 DUP3 ADD MLOAD DUP2 PUSH1 0x1 ADD SWAP1 DUP2 PUSH2 0xC6C SWAP2 SWAP1 PUSH2 0x14BC JUMP JUMPDEST POP PUSH1 0x40 DUP3 ADD MLOAD DUP2 PUSH1 0x2 ADD SWAP1 DUP2 PUSH2 0xC82 SWAP2 SWAP1 PUSH2 0x14BC JUMP JUMPDEST POP PUSH1 0x60 DUP3 ADD MLOAD DUP2 PUSH1 0x3 ADD SSTORE PUSH1 0x80 DUP3 ADD MLOAD DUP2 PUSH1 0x4 ADD SWAP1 DUP2 PUSH2 0xCA2 SWAP2 SWAP1 PUSH2 0x14BC JUMP JUMPDEST POP SWAP1 POP POP PUSH32 0x45C2C0E31A5DF12DDE47F46B104ED706B348F37C21123E21F674930D20ED16C5 DUP7 PUSH1 0x40 MLOAD PUSH2 0xCD5 SWAP2 SWAP1 PUSH2 0x1B87 JUMP JUMPDEST PUSH1 0x40 MLOAD DUP1 SWAP2 SUB SWAP1 LOG1 POP POP POP POP POP POP JUMP JUMPDEST POP DUP1 SLOAD PUSH2 0xCF1 SWAP1 PUSH2 0x1284 JUMP JUMPDEST PUSH0 DUP3 SSTORE DUP1 PUSH1 0x1F LT PUSH2 0xD02 JUMPI POP PUSH2 0xD1F JUMP JUMPDEST PUSH1 0x1F ADD PUSH1 0x20 SWAP1 DIV SWAP1 PUSH0 MSTORE PUSH1 0x20 PUSH0 KECCAK256 SWAP1 DUP2 ADD SWAP1 PUSH2 0xD1E SWAP2 SWAP1 PUSH2 0xD22 JUMP JUMPDEST JUMPDEST POP JUMP JUMPDEST JUMPDEST DUP1 DUP3 GT ISZERO PUSH2 0xD39 JUMPI PUSH0 DUP2 PUSH0 SWAP1 SSTORE POP PUSH1 0x1 ADD PUSH2 0xD23 JUMP JUMPDEST POP SWAP1 JUMP JUMPDEST PUSH0 PUSH1 0x40 MLOAD SWAP1 POP SWAP1 JUMP JUMPDEST PUSH0 PUSH0 REVERT JUMPDEST PUSH0 PUSH0 REVERT JUMPDEST PUSH0 PUSH0 REVERT JUMPDEST PUSH0 PUSH0 REVERT JUMPDEST PUSH0 PUSH1 0x1F NOT PUSH1 0x1F DUP4 ADD AND SWAP1 POP SWAP2 SWAP1 POP JUMP JUMPDEST PUSH32 0x4E487B7100000000000000000000000000000000000000000000000000000000 PUSH0 MSTORE PUSH1 0x41 PUSH1 0x4 MSTORE PUSH1 0x24 PUSH0 REVERT JUMPDEST PUSH2 0xD9C DUP3 PUSH2 0xD56 JUMP JUMPDEST DUP2 ADD DUP2 DUP2 LT PUSH8 0xFFFFFFFFFFFFFFFF DUP3 GT OR ISZERO PUSH2 0xDBB JUMPI PUSH2 0xDBA PUSH2 0xD66 JUMP JUMPDEST JUMPDEST DUP1 PUSH1 0x40 MSTORE POP POP POP JUMP JUMPDEST PUSH0 PUSH2 0xDCD PUSH2 0xD3D JUMP JUMPDEST SWAP1 POP PUSH2 0xDD9 DUP3 DUP3 PUSH2 0xD93 JUMP JUMPDEST SWAP2 SWAP1 POP JUMP JUMPDEST PUSH0 PUSH8 0xFFFFFFFFFFFFFFFF DUP3 GT ISZERO PUSH2 0xDF8 JUMPI PUSH2 0xDF7 PUSH2 0xD66 JUMP JUMPDEST JUMPDEST PUSH2 0xE01 DUP3 PUSH2 0xD56 JUMP JUMPDEST SWAP1 POP PUSH1 0x20 DUP2 ADD SWAP1 POP SWAP2 SWAP1 POP JUMP JUMPDEST DUP3 DUP2 DUP4 CALLDATACOPY PUSH0 DUP4 DUP4 ADD MSTORE POP POP POP JUMP JUMPDEST PUSH0 PUSH2 0xE2E PUSH2 0xE29 DUP5 PUSH2 0xDDE JUMP JUMPDEST PUSH2 0xDC4 JUMP JUMPDEST SWAP1 POP DUP3 DUP2 MSTORE PUSH1 0x20 DUP2 ADD DUP5 DUP5 DUP5 ADD GT ISZERO PUSH2 0xE4A JUMPI PUSH2 0xE49 PUSH2 0xD52 JUMP JUMPDEST JUMPDEST PUSH2 0xE55 DUP5 DUP3 DUP6 PUSH2 0xE0E JUMP JUMPDEST POP SWAP4 SWAP3 POP POP POP JUMP JUMPDEST PUSH0 DUP3 PUSH1 0x1F DUP4 ADD SLT PUSH2 0xE71 JUMPI PUSH2 0xE70 PUSH2 0xD4E JUMP JUMPDEST JUMPDEST DUP2 CALLDATALOAD PUSH2 0xE81 DUP5 DUP3 PUSH1 0x20 DUP7 ADD PUSH2 0xE1C JUMP JUMPDEST SWAP2 POP POP SWAP3 SWAP2 POP POP JUMP JUMPDEST PUSH0 PUSH1 0x20 DUP3 DUP5 SUB SLT ISZERO PUSH2 0xE9F JUMPI PUSH2 0xE9E PUSH2 0xD46 JUMP JUMPDEST JUMPDEST PUSH0 DUP3 ADD CALLDATALOAD PUSH8 0xFFFFFFFFFFFFFFFF DUP2 GT ISZERO PUSH2 0xEBC JUMPI PUSH2 0xEBB PUSH2 0xD4A JUMP JUMPDEST JUMPDEST PUSH2 0xEC8 DUP5 DUP3 DUP6 ADD PUSH2 0xE5D JUMP JUMPDEST SWAP2 POP POP SWAP3 SWAP2 POP POP JUMP JUMPDEST PUSH0 DUP2 ISZERO ISZERO SWAP1 POP SWAP2 SWAP1 POP JUMP JUMPDEST PUSH2 0xEE5 DUP2 PUSH2 0xED1 JUMP JUMPDEST DUP3 MSTORE POP POP JUMP JUMPDEST PUSH0 PUSH1 0x20 DUP3 ADD SWAP1 POP PUSH2 0xEFE PUSH0 DUP4 ADD DUP5 PUSH2 0xEDC JUMP JUMPDEST SWAP3 SWAP2 POP POP JUMP JUMPDEST PUSH0 DUP2 MLOAD SWAP1 POP SWAP2 SWAP1 POP JUMP JUMPDEST PUSH0 DUP3 DUP3 MSTORE PUSH1 0x20 DUP3 ADD SWAP1 POP SWAP3 SWAP2 POP POP JUMP JUMPDEST DUP3 DUP2 DUP4 MCOPY PUSH0 DUP4 DUP4 ADD MSTORE POP POP POP JUMP JUMPDEST PUSH0 PUSH2 0xF36 DUP3 PUSH2 0xF04 JUMP JUMPDEST PUSH2 0xF40 DUP2 DUP6 PUSH2 0xF0E JUMP JUMPDEST SWAP4 POP PUSH2 0xF50 DUP2 DUP6 PUSH1 0x20 DUP7 ADD PUSH2 0xF1E JUMP JUMPDEST PUSH2 0xF59 DUP2 PUSH2 0xD56 JUMP JUMPDEST DUP5 ADD SWAP2 POP POP SWAP3 SWAP2 POP POP JUMP JUMPDEST PUSH0 DUP2 SWAP1 POP SWAP2 SWAP1 POP JUMP JUMPDEST PUSH2 0xF76 DUP2 PUSH2 0xF64 JUMP JUMPDEST DUP3 MSTORE POP POP JUMP JUMPDEST PUSH0 PUSH1 0xA0 DUP3 ADD SWAP1 POP DUP2 DUP2 SUB PUSH0 DUP4 ADD MSTORE PUSH2 0xF94 DUP2 DUP9 PUSH2 0xF2C JUMP JUMPDEST SWAP1 POP DUP2 DUP2 SUB PUSH1 0x20 DUP4 ADD MSTORE PUSH2 0xFA8 DUP2 DUP8 PUSH2 0xF2C JUMP JUMPDEST SWAP1 POP DUP2 DUP2 SUB PUSH1 0x40 DUP4 ADD MSTORE PUSH2 0xFBC DUP2 DUP7 PUSH2 0xF2C JUMP JUMPDEST SWAP1 POP PUSH2 0xFCB PUSH1 0x60 DUP4 ADD DUP6 PUSH2 0xF6D JUMP JUMPDEST DUP2 DUP2 SUB PUSH1 0x80 DUP4 ADD MSTORE PUSH2 0xFDD DUP2 DUP5 PUSH2 0xF2C JUMP JUMPDEST SWAP1 POP SWAP7 SWAP6 POP POP POP POP POP POP JUMP JUMPDEST PUSH0 PUSH20 0xFFFFFFFFFFFFFFFFFFFFFFFFFFFFFFFFFFFFFFFF DUP3 AND SWAP1 POP SWAP2 SWAP1 POP JUMP JUMPDEST PUSH0 PUSH2 0x1012 DUP3 PUSH2 0xFE9 JUMP JUMPDEST SWAP1 POP SWAP2 SWAP1 POP JUMP JUMPDEST PUSH2 0x1022 DUP2 PUSH2 0x1008 JUMP JUMPDEST DUP2 EQ PUSH2 0x102C JUMPI PUSH0 PUSH0 REVERT JUMPDEST POP JUMP JUMPDEST PUSH0 DUP2 CALLDATALOAD SWAP1 POP PUSH2 0x103D DUP2 PUSH2 0x1019 JUMP JUMPDEST SWAP3 SWAP2 POP POP JUMP JUMPDEST PUSH0 PUSH0 PUSH1 0x40 DUP4 DUP6 SUB SLT ISZERO PUSH2 0x1059 JUMPI PUSH2 0x1058 PUSH2 0xD46 JUMP JUMPDEST JUMPDEST PUSH0 PUSH2 0x1066 DUP6 DUP3 DUP7 ADD PUSH2 0x102F JUMP JUMPDEST SWAP3 POP POP PUSH1 0x20 DUP4 ADD CALLDATALOAD PUSH8 0xFFFFFFFFFFFFFFFF DUP2 GT ISZERO PUSH2 0x1087 JUMPI PUSH2 0x1086 PUSH2 0xD4A JUMP JUMPDEST JUMPDEST PUSH2 0x1093 DUP6 DUP3 DUP7 ADD PUSH2 0xE5D JUMP JUMPDEST SWAP2 POP POP SWAP3 POP SWAP3 SWAP1 POP JUMP JUMPDEST PUSH0 PUSH1 0x20 DUP3 DUP5 SUB SLT ISZERO PUSH2 0x10B2 JUMPI PUSH2 0x10B1 PUSH2 0xD46 JUMP JUMPDEST JUMPDEST PUSH0 PUSH2 0x10BF DUP5 DUP3 DUP6 ADD PUSH2 0x102F JUMP JUMPDEST SWAP2 POP POP SWAP3 SWAP2 POP POP JUMP JUMPDEST PUSH2 0x10D1 DUP2 PUSH2 0xF64 JUMP JUMPDEST DUP2 EQ PUSH2 0x10DB JUMPI PUSH0 PUSH0 REVERT JUMPDEST POP JUMP JUMPDEST PUSH0 DUP2 CALLDATALOAD SWAP1 POP PUSH2 0x10EC DUP2 PUSH2 0x10C8 JUMP JUMPDEST SWAP3 SWAP2 POP POP JUMP JUMPDEST PUSH0 PUSH0 PUSH0 PUSH0 PUSH0 PUSH0 PUSH1 0xC0 DUP8 DUP10 SUB SLT ISZERO PUSH2 0x110C JUMPI PUSH2 0x110B PUSH2 0xD46 JUMP JUMPDEST JUMPDEST PUSH0 DUP8 ADD CALLDATALOAD PUSH8 0xFFFFFFFFFFFFFFFF DUP2 GT ISZERO PUSH2 0x1129 JUMPI PUSH2 0x1128 PUSH2 0xD4A JUMP JUMPDEST JUMPDEST PUSH2 0x1135 DUP10 DUP3 DUP11 ADD PUSH2 0xE5D JUMP JUMPDEST SWAP7 POP POP PUSH1 0x20 DUP8 ADD CALLDATALOAD PUSH8 0xFFFFFFFFFFFFFFFF DUP2 GT ISZERO PUSH2 0x1156 JUMPI PUSH2 0x1155 PUSH2 0xD4A JUMP JUMPDEST JUMPDEST PUSH2 0x1162 DUP10 DUP3 DUP11 ADD PUSH2 0xE5D JUMP JUMPDEST SWAP6 POP POP PUSH1 0x40 DUP8 ADD CALLDATALOAD PUSH8 0xFFFFFFFFFFFFFFFF DUP2 GT ISZERO PUSH2 0x1183 JUMPI PUSH2 0x1182 PUSH2 0xD4A JUMP JUMPDEST JUMPDEST PUSH2 0x118F DUP10 DUP3 DUP11 ADD PUSH2 0xE5D JUMP JUMPDEST SWAP5 POP POP PUSH1 0x60 DUP8 ADD CALLDATALOAD PUSH8 0xFFFFFFFFFFFFFFFF DUP2 GT ISZERO PUSH2 0x11B0 JUMPI PUSH2 0x11AF PUSH2 0xD4A JUMP JUMPDEST JUMPDEST PUSH2 0x11BC DUP10 DUP3 DUP11 ADD PUSH2 0xE5D JUMP JUMPDEST SWAP4 POP POP PUSH1 0x80 PUSH2 0x11CD DUP10 DUP3 DUP11 ADD PUSH2 0x10DE JUMP JUMPDEST SWAP3 POP POP PUSH1 0xA0 DUP8 ADD CALLDATALOAD PUSH8 0xFFFFFFFFFFFFFFFF DUP2 GT ISZERO PUSH2 0x11EE JUMPI PUSH2 0x11ED PUSH2 0xD4A JUMP JUMPDEST JUMPDEST PUSH2 0x11FA DUP10 DUP3 DUP11 ADD PUSH2 0xE5D JUMP JUMPDEST SWAP2 POP POP SWAP3 SWAP6 POP SWAP3 SWAP6 POP SWAP3 SWAP6 JUMP JUMPDEST PUSH0 DUP2 SWAP1 POP SWAP3 SWAP2 POP POP JUMP JUMPDEST PUSH0 PUSH2 0x121B DUP3 PUSH2 0xF04 JUMP JUMPDEST PUSH2 0x1225 DUP2 DUP6 PUSH2 0x1207 JUMP JUMPDEST SWAP4 POP PUSH2 0x1235 DUP2 DUP6 PUSH1 0x20 DUP7 ADD PUSH2 0xF1E JUMP JUMPDEST DUP1 DUP5 ADD SWAP2 POP POP SWAP3 SWAP2 POP POP JUMP JUMPDEST PUSH0 PUSH2 0x124C DUP3 DUP5 PUSH2 0x1211 JUMP JUMPDEST SWAP2 POP DUP2 SWAP1 POP SWAP3 SWAP2 POP POP JUMP JUMPDEST PUSH32 0x4E487B7100000000000000000000000000000000000000000000000000000000 PUSH0 MSTORE PUSH1 0x22 PUSH1 0x4 MSTORE PUSH1 0x24 PUSH0 REVERT JUMPDEST PUSH0 PUSH1 0x2 DUP3 DIV SWAP1 POP PUSH1 0x1 DUP3 AND DUP1 PUSH2 0x129B JUMPI PUSH1 0x7F DUP3 AND SWAP2 POP JUMPDEST PUSH1 0x20 DUP3 LT DUP2 SUB PUSH2 0x12AE JUMPI PUSH2 0x12AD PUSH2 0x1257 JUMP JUMPDEST JUMPDEST POP SWAP2 SWAP1 POP JUMP JUMPDEST PUSH32 0x43616C6C6572206973206E6F7420746865206F776E6572000000000000000000 PUSH0 DUP3 ADD MSTORE POP JUMP JUMPDEST PUSH0 PUSH2 0x12E8 PUSH1 0x17 DUP4 PUSH2 0xF0E JUMP JUMPDEST SWAP2 POP PUSH2 0x12F3 DUP3 PUSH2 0x12B4 JUMP JUMPDEST PUSH1 0x20 DUP3 ADD SWAP1 POP SWAP2 SWAP1 POP JUMP JUMPDEST PUSH0 PUSH1 0x20 DUP3 ADD SWAP1 POP DUP2 DUP2 SUB PUSH0 DUP4 ADD MSTORE PUSH2 0x1315 DUP2 PUSH2 0x12DC JUMP JUMPDEST SWAP1 POP SWAP2 SWAP1 POP JUMP JUMPDEST PUSH0 DUP2 SWAP1 POP DUP2 PUSH0 MSTORE PUSH1 0x20 PUSH0 KECCAK256 SWAP1 POP SWAP2 SWAP1 POP JUMP JUMPDEST PUSH0 PUSH1 0x20 PUSH1 0x1F DUP4 ADD DIV SWAP1 POP SWAP2 SWAP1 POP JUMP JUMPDEST PUSH0 DUP3 DUP3 SHL SWAP1 POP SWAP3 SWAP2 POP POP JUMP JUMPDEST PUSH0 PUSH1 0x8 DUP4 MUL PUSH2 0x1378 PUSH32 0xFFFFFFFFFFFFFFFFFFFFFFFFFFFFFFFFFFFFFFFFFFFFFFFFFFFFFFFFFFFFFFFF DUP3 PUSH2 0x133D JUMP JUMPDEST PUSH2 0x1382 DUP7 DUP4 PUSH2 0x133D JUMP JUMPDEST SWAP6 POP DUP1 NOT DUP5 AND SWAP4 POP DUP1 DUP7 AND DUP5 OR SWAP3 POP POP POP SWAP4 SWAP3 POP POP POP JUMP JUMPDEST PUSH0 DUP2 SWAP1 POP SWAP2 SWAP1 POP JUMP JUMPDEST PUSH0 PUSH2 0x13BD PUSH2 0x13B8 PUSH2 0x13B3 DUP5 PUSH2 0xF64 JUMP JUMPDEST PUSH2 0x139A JUMP JUMPDEST PUSH2 0xF64 JUMP JUMPDEST SWAP1 POP SWAP2 SWAP1 POP JUMP JUMPDEST PUSH0 DUP2 SWAP1 POP SWAP2 SWAP1 POP JUMP JUMPDEST PUSH2 0x13D6 DUP4 PUSH2 0x13A3 JUMP JUMPDEST PUSH2 0x13EA PUSH2 0x13E2 DUP3 PUSH2 0x13C4 JUMP JUMPDEST DUP5 DUP5 SLOAD PUSH2 0x1349 JUMP JUMPDEST DUP3 SSTORE POP POP POP POP JUMP JUMPDEST PUSH0 PUSH0 SWAP1 POP SWAP1 JUMP JUMPDEST PUSH2 0x1401 PUSH2 0x13F2 JUMP JUMPDEST PUSH2 0x140C DUP2 DUP5 DUP5 PUSH2 0x13CD JUMP JUMPDEST POP POP POP JUMP JUMPDEST JUMPDEST DUP2 DUP2 LT ISZERO PUSH2 0x142F JUMPI PUSH2 0x1424 PUSH0 DUP3 PUSH2 0x13F9 JUMP JUMPDEST PUSH1 0x1 DUP2 ADD SWAP1 POP PUSH2 0x1412 JUMP JUMPDEST POP POP JUMP JUMPDEST PUSH1 0x1F DUP3 GT ISZERO PUSH2 0x1474 JUMPI PUSH2 0x1445 DUP2 PUSH2 0x131C JUMP JUMPDEST PUSH2 0x144E DUP5 PUSH2 0x132E JUMP JUMPDEST DUP2 ADD PUSH1 0x20 DUP6 LT ISZERO PUSH2 0x145D JUMPI DUP2 SWAP1 POP JUMPDEST PUSH2 0x1471 PUSH2 0x1469 DUP6 PUSH2 0x132E JUMP JUMPDEST DUP4 ADD DUP3 PUSH2 0x1411 JUMP JUMPDEST POP POP JUMPDEST POP POP POP JUMP JUMPDEST PUSH0 DUP3 DUP3 SHR SWAP1 POP SWAP3 SWAP2 POP POP JUMP JUMPDEST PUSH0 PUSH2 0x1494 PUSH0 NOT DUP5 PUSH1 0x8 MUL PUSH2 0x1479 JUMP JUMPDEST NOT DUP1 DUP4 AND SWAP2 POP POP SWAP3 SWAP2 POP POP JUMP JUMPDEST PUSH0 PUSH2 0x14AC DUP4 DUP4 PUSH2 0x1485 JUMP JUMPDEST SWAP2 POP DUP3 PUSH1 0x2 MUL DUP3 OR SWAP1 POP SWAP3 SWAP2 POP POP JUMP JUMPDEST PUSH2 0x14C5 DUP3 PUSH2 0xF04 JUMP JUMPDEST PUSH8 0xFFFFFFFFFFFFFFFF DUP2 GT ISZERO PUSH2 0x14DE JUMPI PUSH2 0x14DD PUSH2 0xD66 JUMP JUMPDEST JUMPDEST PUSH2 0x14E8 DUP3 SLOAD PUSH2 0x1284 JUMP JUMPDEST PUSH2 0x14F3 DUP3 DUP3 DUP6 PUSH2 0x1433 JUMP JUMPDEST PUSH0 PUSH1 0x20 SWAP1 POP PUSH1 0x1F DUP4 GT PUSH1 0x1 DUP2 EQ PUSH2 0x1524 JUMPI PUSH0 DUP5 ISZERO PUSH2 0x1512 JUMPI DUP3 DUP8 ADD MLOAD SWAP1 POP JUMPDEST PUSH2 0x151C DUP6 DUP3 PUSH2 0x14A1 JUMP JUMPDEST DUP7 SSTORE POP PUSH2 0x1583 JUMP JUMPDEST PUSH1 0x1F NOT DUP5 AND PUSH2 0x1532 DUP7 PUSH2 0x131C JUMP JUMPDEST PUSH0 JUMPDEST DUP3 DUP2 LT ISZERO PUSH2 0x1559 JUMPI DUP5 DUP10 ADD MLOAD DUP3 SSTORE PUSH1 0x1 DUP3 ADD SWAP2 POP PUSH1 0x20 DUP6 ADD SWAP5 POP PUSH1 0x20 DUP2 ADD SWAP1 POP PUSH2 0x1534 JUMP JUMPDEST DUP7 DUP4 LT ISZERO PUSH2 0x1576 JUMPI DUP5 DUP10 ADD MLOAD PUSH2 0x1572 PUSH1 0x1F DUP10 AND DUP3 PUSH2 0x1485 JUMP JUMPDEST DUP4 SSTORE POP JUMPDEST PUSH1 0x1 PUSH1 0x2 DUP9 MUL ADD DUP9 SSTORE POP POP POP JUMPDEST POP POP POP POP POP POP JUMP JUMPDEST PUSH2 0x1594 DUP2 PUSH2 0x1008 JUMP JUMPDEST DUP3 MSTORE POP POP JUMP JUMPDEST PUSH0 PUSH1 0x40 DUP3 ADD SWAP1 POP PUSH2 0x15AD PUSH0 DUP4 ADD DUP6 PUSH2 0x158B JUMP JUMPDEST DUP2 DUP2 SUB PUSH1 0x20 DUP4 ADD MSTORE PUSH2 0x15BF DUP2 DUP5 PUSH2 0xF2C JUMP JUMPDEST SWAP1 POP SWAP4 SWAP3 POP POP POP JUMP JUMPDEST PUSH0 PUSH1 0x20 DUP3 ADD SWAP1 POP PUSH2 0x15DB PUSH0 DUP4 ADD DUP5 PUSH2 0x158B JUMP JUMPDEST SWAP3 SWAP2 POP POP JUMP JUMPDEST PUSH32 0x43657274696669636174652077697468207468697320494420646F6573206E6F PUSH0 DUP3 ADD MSTORE PUSH32 0x7420657869737400000000000000000000000000000000000000000000000000 PUSH1 0x20 DUP3 ADD MSTORE POP JUMP JUMPDEST PUSH0 PUSH2 0x163B PUSH1 0x27 DUP4 PUSH2 0xF0E JUMP JUMPDEST SWAP2 POP PUSH2 0x1646 DUP3 PUSH2 0x15E1 JUMP JUMPDEST PUSH1 0x40 DUP3 ADD SWAP1 POP SWAP2 SWAP1 POP JUMP JUMPDEST PUSH0 PUSH1 0x20 DUP3 ADD SWAP1 POP DUP2 DUP2 SUB PUSH0 DUP4 ADD MSTORE PUSH2 0x1668 DUP2 PUSH2 0x162F JUMP JUMPDEST SWAP1 POP SWAP2 SWAP1 POP JUMP JUMPDEST PUSH32 0x43616C6C6572206973206E6F7420616E20617574686F72697A6564206F726761 PUSH0 DUP3 ADD MSTORE PUSH32 0x6E697A6174696F6E000000000000000000000000000000000000000000000000 PUSH1 0x20 DUP3 ADD MSTORE POP JUMP JUMPDEST PUSH0 PUSH2 0x16C9 PUSH1 0x28 DUP4 PUSH2 0xF0E JUMP JUMPDEST SWAP2 POP PUSH2 0x16D4 DUP3 PUSH2 0x166F JUMP JUMPDEST PUSH1 0x40 DUP3 ADD SWAP1 POP SWAP2 SWAP1 POP JUMP JUMPDEST PUSH0 PUSH1 0x20 DUP3 ADD SWAP1 POP DUP2 DUP2 SUB PUSH0 DUP4 ADD MSTORE PUSH2 0x16F6 DUP2 PUSH2 0x16BD JUMP JUMPDEST SWAP1 POP SWAP2 SWAP1 POP JUMP JUMPDEST PUSH32 0x43657274696669636174652049442063616E6E6F7420626520656D7074790000 PUSH0 DUP3 ADD MSTORE POP JUMP JUMPDEST PUSH0 PUSH2 0x1731 PUSH1 0x1E DUP4 PUSH2 0xF0E JUMP JUMPDEST SWAP2 POP PUSH2 0x173C DUP3 PUSH2 0x16FD JUMP JUMPDEST PUSH1 0x20 DUP3 ADD SWAP1 POP SWAP2 SWAP1 POP JUMP JUMPDEST PUSH0 PUSH1 0x20 DUP3 ADD SWAP1 POP DUP2 DUP2 SUB PUSH0 DUP4 ADD MSTORE PUSH2 0x175E DUP2 PUSH2 0x1725 JUMP JUMPDEST SWAP1 POP SWAP2 SWAP1 POP JUMP JUMPDEST PUSH32 0x43616E646964617465206E616D652063616E6E6F7420626520656D7074790000 PUSH0 DUP3 ADD MSTORE POP JUMP JUMPDEST PUSH0 PUSH2 0x1799 PUSH1 0x1E DUP4 PUSH2 0xF0E JUMP JUMPDEST SWAP2 POP PUSH2 0x17A4 DUP3 PUSH2 0x1765 JUMP JUMPDEST PUSH1 0x20 DUP3 ADD SWAP1 POP SWAP2 SWAP1 POP JUMP JUMPDEST PUSH0 PUSH1 0x20 DUP3 ADD SWAP1 POP DUP2 DUP2 SUB PUSH0 DUP4 ADD MSTORE PUSH2 0x17C6 DUP2 PUSH2 0x178D JUMP JUMPDEST SWAP1 POP SWAP2 SWAP1 POP JUMP JUMPDEST PUSH32 0x43657274696669636174696F6E206E616D652063616E6E6F7420626520656D70 PUSH0 DUP3 ADD MSTORE PUSH32 0x7479000000000000000000000000000000000000000000000000000000000000 PUSH1 0x20 DUP3 ADD MSTORE POP JUMP JUMPDEST PUSH0 PUSH2 0x1827 PUSH1 0x22 DUP4 PUSH2 0xF0E JUMP JUMPDEST SWAP2 POP PUSH2 0x1832 DUP3 PUSH2 0x17CD JUMP JUMPDEST PUSH1 0x40 DUP3 ADD SWAP1 POP SWAP2 SWAP1 POP JUMP JUMPDEST PUSH0 PUSH1 0x20 DUP3 ADD SWAP1 POP DUP2 DUP2 SUB PUSH0 DUP4 ADD MSTORE PUSH2 0x1854 DUP2 PUSH2 0x181B JUMP JUMPDEST SWAP1 POP SWAP2 SWAP1 POP JUMP JUMPDEST PUSH32 0x4F7267616E697A6174696F6E206E616D652063616E6E6F7420626520656D7074 PUSH0 DUP3 ADD MSTORE PUSH32 0x7900000000000000000000000000000000000000000000000000000000000000 PUSH1 0x20 DUP3 ADD MSTORE POP JUMP JUMPDEST PUSH0 PUSH2 0x18B5 PUSH1 0x21 DUP4 PUSH2 0xF0E JUMP JUMPDEST SWAP2 POP PUSH2 0x18C0 DUP3 PUSH2 0x185B JUMP JUMPDEST PUSH1 0x40 DUP3 ADD SWAP1 POP SWAP2 SWAP1 POP JUMP JUMPDEST PUSH0 PUSH1 0x20 DUP3 ADD SWAP1 POP DUP2 DUP2 SUB PUSH0 DUP4 ADD MSTORE PUSH2 0x18E2 DUP2 PUSH2 0x18A9 JUMP JUMPDEST SWAP1 POP SWAP2 SWAP1 POP JUMP JUMPDEST PUSH32 0x456D697373696F6E2064617465206D7573742062652076616C69640000000000 PUSH0 DUP3 ADD MSTORE POP JUMP JUMPDEST PUSH0 PUSH2 0x191D PUSH1 0x1B DUP4 PUSH2 0xF0E JUMP JUMPDEST SWAP2 POP PUSH2 0x1928 DUP3 PUSH2 0x18E9 JUMP JUMPDEST PUSH1 0x20 DUP3 ADD SWAP1 POP SWAP2 SWAP1 POP JUMP JUMPDEST PUSH0 PUSH1 0x20 DUP3 ADD SWAP1 POP DUP2 DUP2 SUB PUSH0 DUP4 ADD MSTORE PUSH2 0x194A DUP2 PUSH2 0x1911 JUMP JUMPDEST SWAP1 POP SWAP2 SWAP1 POP JUMP JUMPDEST PUSH32 0x4950465320686173682063616E6E6F7420626520656D70747900000000000000 PUSH0 DUP3 ADD MSTORE POP JUMP JUMPDEST PUSH0 PUSH2 0x1985 PUSH1 0x19 DUP4 PUSH2 0xF0E JUMP JUMPDEST SWAP2 POP PUSH2 0x1990 DUP3 PUSH2 0x1951 JUMP JUMPDEST PUSH1 0x20 DUP3 ADD SWAP1 POP SWAP2 SWAP1 POP JUMP JUMPDEST PUSH0 PUSH1 0x20 DUP3 ADD SWAP1 POP DUP2 DUP2 SUB PUSH0 DUP4 ADD MSTORE PUSH2 0x19B2 DUP2 PUSH2 0x1979 JUMP JUMPDEST SWAP1 POP SWAP2 SWAP1 POP JUMP JUMPDEST PUSH32 0x43657274696669636174652077697468207468697320494420616C7265616479 PUSH0 DUP3 ADD MSTORE PUSH32 0x2065786973747300000000000000000000000000000000000000000000000000 PUSH1 0x20 DUP3 ADD MSTORE POP JUMP JUMPDEST PUSH0 PUSH2 0x1A13 PUSH1 0x27 DUP4 PUSH2 0xF0E JUMP JUMPDEST SWAP2 POP PUSH2 0x1A1E DUP3 PUSH2 0x19B9 JUMP JUMPDEST PUSH1 0x40 DUP3 ADD SWAP1 POP SWAP2 SWAP1 POP JUMP JUMPDEST PUSH0 PUSH1 0x20 DUP3 ADD SWAP1 POP DUP2 DUP2 SUB PUSH0 DUP4 ADD MSTORE PUSH2 0x1A40 DUP2 PUSH2 0x1A07 JUMP JUMPDEST SWAP1 POP SWAP2 SWAP1 POP JUMP JUMPDEST PUSH0 DUP2 SWAP1 POP SWAP3 SWAP2 POP POP JUMP JUMPDEST PUSH0 DUP2 SWAP1 POP DUP2 PUSH0 MSTORE PUSH1 0x20 PUSH0 KECCAK256 SWAP1 POP SWAP2 SWAP1 POP JUMP JUMPDEST PUSH0 DUP2 SLOAD PUSH2 0x1A6F DUP2 PUSH2 0x1284 JUMP JUMPDEST PUSH2 0x1A79 DUP2 DUP7 PUSH2 0x1A47 JUMP JUMPDEST SWAP5 POP PUSH1 0x1 DUP3 AND PUSH0 DUP2 EQ PUSH2 0x1A93 JUMPI PUSH1 0x1 DUP2 EQ PUSH2 0x1AA8 JUMPI PUSH2 0x1ADA JUMP JUMPDEST PUSH1 0xFF NOT DUP4 AND DUP7 MSTORE DUP2 ISZERO ISZERO DUP3 MUL DUP7 ADD SWAP4 POP PUSH2 0x1ADA JUMP JUMPDEST PUSH2 0x1AB1 DUP6 PUSH2 0x1A51 JUMP JUMPDEST PUSH0 JUMPDEST DUP4 DUP2 LT ISZERO PUSH2 0x1AD2 JUMPI DUP2 SLOAD DUP2 DUP10 ADD MSTORE PUSH1 0x1 DUP3 ADD SWAP2 POP PUSH1 0x20 DUP2 ADD SWAP1 POP PUSH2 0x1AB3 JUMP JUMPDEST DUP4 DUP9 ADD SWAP6 POP POP POP JUMPDEST POP POP POP SWAP3 SWAP2 POP POP JUMP JUMPDEST PUSH0 PUSH2 0x1AEE DUP3 DUP5 PUSH2 0x1A63 JUMP JUMPDEST SWAP2 POP DUP2 SWAP1 POP SWAP3 SWAP2 POP POP JUMP JUMPDEST PUSH32 0x4F7267616E697A6174696F6E206E616D6520646F6573206E6F74206D61746368 PUSH0 DUP3 ADD MSTORE PUSH32 0x2074686520617574686F72697A65642061646472657373000000000000000000 PUSH1 0x20 DUP3 ADD MSTORE POP JUMP JUMPDEST PUSH0 PUSH2 0x1B53 PUSH1 0x37 DUP4 PUSH2 0xF0E JUMP JUMPDEST SWAP2 POP PUSH2 0x1B5E DUP3 PUSH2 0x1AF9 JUMP JUMPDEST PUSH1 0x40 DUP3 ADD SWAP1 POP SWAP2 SWAP1 POP JUMP JUMPDEST PUSH0 PUSH1 0x20 DUP3 ADD SWAP1 POP DUP2 DUP2 SUB PUSH0 DUP4 ADD MSTORE PUSH2 0x1B80 DUP2 PUSH2 0x1B47 JUMP JUMPDEST SWAP1 POP SWAP2 SWAP1 POP JUMP JUMPDEST PUSH0 PUSH1 0x20 DUP3 ADD SWAP1 POP DUP2 DUP2 SUB PUSH0 DUP4 ADD MSTORE PUSH2 0x1B9F DUP2 DUP5 PUSH2 0xF2C JUMP JUMPDEST SWAP1 POP SWAP3 SWAP2 POP POP JUMP INVALID LOG2 PUSH5 0x6970667358 0x22 SLT KECCAK256 0x2C 0x2C SMOD 0xFC 0x1E 0xA7 0xC6 OR 0xF 0xF9 XOR 0x4B 0x23 0xAA DUP4 0x27 DUP9 ORIGIN 0xC8 0xB1 TIMESTAMP JUMPI 0x25 DUP8 0x1E SWAP10 0xF7 SWAP13 0x22 0xA9 PUSH8 0x4B64736F6C634300 ADDMOD SHR STOP CALLER "
				},
				"gasEstimates": {
					"creation": {
						"codeDepositCost": "1426600",
						"executionCost": "25749",
						"totalCost": "1452349"
					},
					"external": {
						"addCertificate(string,string,string,string,uint256,string)": "infinite",
						"authorizeOrganization(address,string)": "infinite",
						"certificates(string)": "infinite",
						"getCertificate(string)": "infinite",
						"isVerified(string)": "infinite",
						"unauthorizeOrganization(address)": "infinite"
					}
				},
				"methodIdentifiers": {
					"addCertificate(string,string,string,string,uint256,string)": "ffd022bd",
					"authorizeOrganization(address,string)": "9d739043",
					"certificates(string)": "8f2b91ea",
					"getCertificate(string)": "ed0f2e75",
					"isVerified(string)": "234c76d5",
					"unauthorizeOrganization(address)": "d5ced930"
				}
			},
			"storageLayout": {
				"storage": [
					{
						"astId": 17,
						"contract": "backend/contracts/Certification.sol:Certification",
						"label": "certificates",
						"offset": 0,
						"slot": "0",
						"type": "t_mapping(t_string_memory_ptr,t_struct(Certificate)12_storage)"
					},
					{
						"astId": 21,
						"contract": "backend/contracts/Certification.sol:Certification",
						"label": "authorizedOrganizations",
						"offset": 0,
						"slot": "1",
						"type": "t_mapping(t_address,t_string_storage)"
					},
					{
						"astId": 23,
						"contract": "backend/contracts/Certification.sol:Certification",
						"label": "owner",
						"offset": 0,
						"slot": "2",
						"type": "t_address"
					}
				],
				"types": {
					"t_address": {
						"encoding": "inplace",
						"label": "address",
						"numberOfBytes": "20"
					},
					"t_mapping(t_address,t_string_storage)": {
						"encoding": "mapping",
						"key": "t_address",
						"label": "mapping(address => string)",
						"numberOfBytes": "32",
						"value": "t_string_storage"
					},
					"t_mapping(t_string_memory_ptr,t_struct(Certificate)12_storage)": {
						"encoding": "mapping",
						"key": "t_string_memory_ptr",
						"label": "mapping(string => struct Certification.Certificate)",
						"numberOfBytes": "32",
						"value": "t_struct(Certificate)12_storage"
					},
					"t_string_memory_ptr": {
						"encoding": "bytes",
						"label": "string",
						"numberOfBytes": "32"
					},
					"t_string_storage": {
						"encoding": "bytes",
						"label": "string",
						"numberOfBytes": "32"
					},
					"t_struct(Certificate)12_storage": {
						"encoding": "inplace",
						"label": "struct Certification.Certificate",
						"members": [
							{
								"astId": 3,
								"contract": "backend/contracts/Certification.sol:Certification",
								"label": "candidate_name",
								"offset": 0,
								"slot": "0",
								"type": "t_string_storage"
							},
							{
								"astId": 5,
								"contract": "backend/contracts/Certification.sol:Certification",
								"label": "certification_name",
								"offset": 0,
								"slot": "1",
								"type": "t_string_storage"
							},
							{
								"astId": 7,
								"contract": "backend/contracts/Certification.sol:Certification",
								"label": "org_name",
								"offset": 0,
								"slot": "2",
								"type": "t_string_storage"
							},
							{
								"astId": 9,
								"contract": "backend/contracts/Certification.sol:Certification",
								"label": "emission_date",
								"offset": 0,
								"slot": "3",
								"type": "t_uint256"
							},
							{
								"astId": 11,
								"contract": "backend/contracts/Certification.sol:Certification",
								"label": "ipfs_hash",
								"offset": 0,
								"slot": "4",
								"type": "t_string_storage"
							}
						],
						"numberOfBytes": "160"
					},
					"t_uint256": {
						"encoding": "inplace",
						"label": "uint256",
						"numberOfBytes": "32"
					}
				}
			},
			"userdoc": {
				"kind": "user",
				"methods": {},
				"version": 1
			}
		}
	}
}